{
	"data": {
		"bytecode": {
			"linkReferences": {},
			"object": "60806040523480156200001157600080fd5b50604051620050b0380380620050b0833981810160405281019062000037919062000ab3565b62000048876200017960201b60201c565b85600460006101000a81548173ffffffffffffffffffffffffffffffffffffffff021916908373ffffffffffffffffffffffffffffffffffffffff160217905550826005819055506010600660006101000a81548160ff021916908360000b60ff16021790555084600660016101000a81548160ff021916908360000b60ff160217905550426007819055506201518082620000e5919062000bb4565b42620000f2919062000c15565b60088190555083600b8190555080600c60006101000a81548173ffffffffffffffffffffffffffffffffffffffff021916908373ffffffffffffffffffffffffffffffffffffffff1602179055506200016c336001600554600754600854604051806020016040528060008152506200019560201b60201c565b505050505050506200124b565b80600290805190602001906200019192919062000788565b5050565b600073ffffffffffffffffffffffffffffffffffffffff168673ffffffffffffffffffffffffffffffffffffffff16141562000208576040517f08c379a0000000000000000000000000000000000000000000000000000000008152600401620001ff9062000cf9565b60405180910390fd5b60006200021a6200035c60201b60201c565b90506200025381600089620002358a6200036460201b60201c565b620002468a6200036460201b60201c565b87620003e560201b60201c565b8460008088815260200190815260200160002060008973ffffffffffffffffffffffffffffffffffffffff1673ffffffffffffffffffffffffffffffffffffffff1681526020019081526020016000206000828254620002b4919062000c15565b925050819055508673ffffffffffffffffffffffffffffffffffffffff16600073ffffffffffffffffffffffffffffffffffffffff168273ffffffffffffffffffffffffffffffffffffffff167fc3d58168c5ae7397731d063d5bbf3d657854427343f4c083240f7aacaa2d0f6289896040516200033492919062000d2c565b60405180910390a462000353816000898989876200056b60201b60201c565b50505050505050565b600033905090565b60606000600167ffffffffffffffff81111562000386576200038562000867565b5b604051908082528060200260200182016040528015620003b55781602001602082028036833780820191505090505b5090508281600081518110620003d057620003cf62000d59565b5b60200260200101818152505080915050919050565b600073ffffffffffffffffffffffffffffffffffffffff168573ffffffffffffffffffffffffffffffffffffffff161415620004a45760005b8351811015620004a2578281815181106200043e576200043d62000d59565b5b6020026020010151600f600086848151811062000460576200045f62000d59565b5b60200260200101518152602001908152602001600020600082825462000487919062000c15565b92505081905550806200049a9062000d88565b90506200041e565b505b600073ffffffffffffffffffffffffffffffffffffffff168473ffffffffffffffffffffffffffffffffffffffff161415620005635760005b83518110156200056157828181518110620004fd57620004fc62000d59565b5b6020026020010151600f60008684815181106200051f576200051e62000d59565b5b60200260200101518152602001908152602001600020600082825462000546919062000dd6565b9250508190555080620005599062000d88565b9050620004dd565b505b505050505050565b620005978473ffffffffffffffffffffffffffffffffffffffff166200076560201b620014651760201c565b156200075d578373ffffffffffffffffffffffffffffffffffffffff1663f23a6e6187878686866040518663ffffffff1660e01b8152600401620005e095949392919062000e7f565b6020604051808303816000875af19250505080156200061f57506040513d601f19601f820116820180604052508101906200061c919062000f40565b60015b620006d1576200062e62000f7f565b806308c379a014156200069257506200064662000fa4565b8062000653575062000694565b806040517f08c379a000000000000000000000000000000000000000000000000000000000815260040162000689919062001092565b60405180910390fd5b505b6040517f08c379a0000000000000000000000000000000000000000000000000000000008152600401620006c8906200112c565b60405180910390fd5b63f23a6e6160e01b7bffffffffffffffffffffffffffffffffffffffffffffffffffffffff1916817bffffffffffffffffffffffffffffffffffffffffffffffffffffffff1916146200075b576040517f08c379a00000000000000000000000000000000000000000000000000000000081526004016200075290620011c4565b60405180910390fd5b505b505050505050565b6000808273ffffffffffffffffffffffffffffffffffffffff163b119050919050565b828054620007969062001215565b90600052602060002090601f016020900481019282620007ba576000855562000806565b82601f10620007d557805160ff191683800117855562000806565b8280016001018555821562000806579182015b8281111562000805578251825591602001919060010190620007e8565b5b50905062000815919062000819565b5090565b5b80821115620008345760008160009055506001016200081a565b5090565b6000604051905090565b600080fd5b600080fd5b600080fd5b600080fd5b6000601f19601f8301169050919050565b7f4e487b7100000000000000000000000000000000000000000000000000000000600052604160045260246000fd5b620008a18262000856565b810181811067ffffffffffffffff82111715620008c357620008c262000867565b5b80604052505050565b6000620008d862000838565b9050620008e6828262000896565b919050565b600067ffffffffffffffff82111562000909576200090862000867565b5b620009148262000856565b9050602081019050919050565b60005b838110156200094157808201518184015260208101905062000924565b8381111562000951576000848401525b50505050565b60006200096e6200096884620008eb565b620008cc565b9050828152602081018484840111156200098d576200098c62000851565b5b6200099a84828562000921565b509392505050565b600082601f830112620009ba57620009b96200084c565b5b8151620009cc84826020860162000957565b91505092915050565b600073ffffffffffffffffffffffffffffffffffffffff82169050919050565b600062000a0282620009d5565b9050919050565b62000a1481620009f5565b811462000a2057600080fd5b50565b60008151905062000a348162000a09565b92915050565b60008160000b9050919050565b62000a528162000a3a565b811462000a5e57600080fd5b50565b60008151905062000a728162000a47565b92915050565b6000819050919050565b62000a8d8162000a78565b811462000a9957600080fd5b50565b60008151905062000aad8162000a82565b92915050565b600080600080600080600060e0888a03121562000ad55762000ad462000842565b5b600088015167ffffffffffffffff81111562000af65762000af562000847565b5b62000b048a828b01620009a2565b975050602062000b178a828b0162000a23565b965050604062000b2a8a828b0162000a61565b955050606062000b3d8a828b0162000a9c565b945050608062000b508a828b0162000a9c565b93505060a062000b638a828b0162000a9c565b92505060c062000b768a828b0162000a23565b91505092959891949750929550565b7f4e487b7100000000000000000000000000000000000000000000000000000000600052601160045260246000fd5b600062000bc18262000a78565b915062000bce8362000a78565b9250817fffffffffffffffffffffffffffffffffffffffffffffffffffffffffffffffff048311821515161562000c0a5762000c0962000b85565b5b828202905092915050565b600062000c228262000a78565b915062000c2f8362000a78565b9250827fffffffffffffffffffffffffffffffffffffffffffffffffffffffffffffffff0382111562000c675762000c6662000b85565b5b828201905092915050565b600082825260208201905092915050565b7f455243313135353a206d696e7420746f20746865207a65726f2061646472657360008201527f7300000000000000000000000000000000000000000000000000000000000000602082015250565b600062000ce160218362000c72565b915062000cee8262000c83565b604082019050919050565b6000602082019050818103600083015262000d148162000cd2565b9050919050565b62000d268162000a78565b82525050565b600060408201905062000d43600083018562000d1b565b62000d52602083018462000d1b565b9392505050565b7f4e487b7100000000000000000000000000000000000000000000000000000000600052603260045260246000fd5b600062000d958262000a78565b91507fffffffffffffffffffffffffffffffffffffffffffffffffffffffffffffffff82141562000dcb5762000dca62000b85565b5b600182019050919050565b600062000de38262000a78565b915062000df08362000a78565b92508282101562000e065762000e0562000b85565b5b828203905092915050565b62000e1c81620009f5565b82525050565b600081519050919050565b600082825260208201905092915050565b600062000e4b8262000e22565b62000e57818562000e2d565b935062000e6981856020860162000921565b62000e748162000856565b840191505092915050565b600060a08201905062000e96600083018862000e11565b62000ea5602083018762000e11565b62000eb4604083018662000d1b565b62000ec3606083018562000d1b565b818103608083015262000ed7818462000e3e565b90509695505050505050565b60007fffffffff0000000000000000000000000000000000000000000000000000000082169050919050565b62000f1a8162000ee3565b811462000f2657600080fd5b50565b60008151905062000f3a8162000f0f565b92915050565b60006020828403121562000f595762000f5862000842565b5b600062000f698482850162000f29565b91505092915050565b60008160e01c9050919050565b600060033d111562000fa15760046000803e62000f9e60005162000f72565b90505b90565b600060443d101562000fb65762001043565b62000fc062000838565b60043d036004823e80513d602482011167ffffffffffffffff8211171562000fea57505062001043565b808201805167ffffffffffffffff8111156200100a575050505062001043565b80602083010160043d0385018111156200102957505050505062001043565b6200103a8260200185018662000896565b82955050505050505b90565b600081519050919050565b60006200105e8262001046565b6200106a818562000c72565b93506200107c81856020860162000921565b620010878162000856565b840191505092915050565b60006020820190508181036000830152620010ae818462001051565b905092915050565b7f455243313135353a207472616e7366657220746f206e6f6e204552433131353560008201527f526563656976657220696d706c656d656e746572000000000000000000000000602082015250565b60006200111460348362000c72565b91506200112182620010b6565b604082019050919050565b60006020820190508181036000830152620011478162001105565b9050919050565b7f455243313135353a204552433131353552656365697665722072656a6563746560008201527f6420746f6b656e73000000000000000000000000000000000000000000000000602082015250565b6000620011ac60288362000c72565b9150620011b9826200114e565b604082019050919050565b60006020820190508181036000830152620011df816200119d565b9050919050565b7f4e487b7100000000000000000000000000000000000000000000000000000000600052602260045260246000fd5b600060028204905060018216806200122e57607f821691505b60208210811415620012455762001244620011e6565b5b50919050565b613e55806200125b6000396000f3fe608060405234801561001057600080fd5b50600436106101c35760003560e01c806347332694116100f9578063a22cb46511610097578063da1cc44311610071578063da1cc44314610521578063e985e9c514610551578063f242432a14610581578063fc4895521461059d576101c3565b8063a22cb465146104b7578063bd85b039146104d3578063be51f0fb14610503576101c3565b80637371ada0116100d35780637371ada01461042e5780637e933c511461044a578063953fb4fb146104685780639cbafb0b14610486576101c3565b806347332694146103b05780634e1273f4146103ce57806350e2e8af146103fe576101c3565b806322977efd116101665780633204ab14116101405780633204ab14146103265780633a85a3a2146103445780633b52ed831461036057806344fa523d14610390576101c3565b806322977efd146102d05780632888c5c5146102ec5780632eb2c2d61461030a576101c3565b80630e89341c116101a25780630e89341c1461024657806315898609146102765780631a5fa63c146102945780631bdce027146102b2576101c3565b8062fdd58e146101c857806301ffc9a7146101f85780630837430b14610228575b600080fd5b6101e260048036038101906101dd919061270a565b6105bb565b6040516101ef9190612759565b60405180910390f35b610212600480360381019061020d91906127cc565b610684565b60405161021f9190612814565b60405180910390f35b610230610766565b60405161023d919061288e565b60405180910390f35b610260600480360381019061025b91906128a9565b61078c565b60405161026d919061296f565b60405180910390f35b61027e610820565b60405161028b9190612759565b60405180910390f35b61029c610826565b6040516102a99190612759565b60405180910390f35b6102ba61082c565b6040516102c791906129ad565b60405180910390f35b6102ea60048036038101906102e59190612afd565b61083f565b005b6102f4610b8b565b6040516103019190612759565b60405180910390f35b610324600480360381019061031f9190612c6e565b610b91565b005b61032e610c32565b60405161033b9190612759565b60405180910390f35b61035e60048036038101906103599190612d3d565b610c38565b005b61037a60048036038101906103759190612d90565b610f27565b6040516103879190612759565b60405180910390f35b610398610f4c565b6040516103a793929190612dd0565b60405180910390f35b6103b8610f63565b6040516103c591906129ad565b60405180910390f35b6103e860048036038101906103e39190612eca565b610f76565b6040516103f59190613000565b60405180910390f35b610418600480360381019061041391906128a9565b61108f565b6040516104259190612759565b60405180910390f35b61044860048036038101906104439190612afd565b6110b3565b005b61045261119a565b60405161045f9190613031565b60405180910390f35b6104706111c0565b60405161047d9190613031565b60405180910390f35b6104a0600480360381019061049b91906128a9565b6111e6565b6040516104ae92919061304c565b60405180910390f35b6104d160048036038101906104cc91906130a1565b611240565b005b6104ed60048036038101906104e891906128a9565b611256565b6040516104fa9190612759565b60405180910390f35b61050b611273565b6040516105189190612814565b60405180910390f35b61053b600480360381019061053691906130e1565b611286565b6040516105489190612759565b60405180910390f35b61056b60048036038101906105669190612d90565b61132b565b6040516105789190612814565b60405180910390f35b61059b6004803603810190610596919061310e565b6113bf565b005b6105a5611460565b6040516105b29190612759565b60405180910390f35b60008073ffffffffffffffffffffffffffffffffffffffff168373ffffffffffffffffffffffffffffffffffffffff16141561062c576040517f08c379a000000000000000000000000000000000000000000000000000000000815260040161062390613217565b60405180910390fd5b60008083815260200190815260200160002060008473ffffffffffffffffffffffffffffffffffffffff1673ffffffffffffffffffffffffffffffffffffffff16815260200190815260200160002054905092915050565b60007fd9b67a26000000000000000000000000000000000000000000000000000000007bffffffffffffffffffffffffffffffffffffffffffffffffffffffff1916827bffffffffffffffffffffffffffffffffffffffffffffffffffffffff1916148061074f57507f0e89341c000000000000000000000000000000000000000000000000000000007bffffffffffffffffffffffffffffffffffffffffffffffffffffffff1916827bffffffffffffffffffffffffffffffffffffffffffffffffffffffff1916145b8061075f575061075e82611488565b5b9050919050565b600c60009054906101000a900473ffffffffffffffffffffffffffffffffffffffff1681565b60606002805461079b90613266565b80601f01602080910402602001604051908101604052809291908181526020018280546107c790613266565b80156108145780601f106107e957610100808354040283529160200191610814565b820191906000526020600020905b8154815290600101906020018083116107f757829003601f168201915b50505050509050919050565b60055481565b600b5481565b600660019054906101000a900460000b81565b4260085411610883576040517f08c379a000000000000000000000000000000000000000000000000000000000815260040161087a906132e4565b60405180910390fd5b600061088d6114f2565b90508073ffffffffffffffffffffffffffffffffffffffff168773ffffffffffffffffffffffffffffffffffffffff1614806108cf57506108ce878261132b565b5b61090e576040517f08c379a000000000000000000000000000000000000000000000000000000000815260040161090590613376565b60405180910390fd5b600073ffffffffffffffffffffffffffffffffffffffff168673ffffffffffffffffffffffffffffffffffffffff16141561097e576040517f08c379a000000000000000000000000000000000000000000000000000000000815260040161097590613408565b60405180910390fd5b600d60008773ffffffffffffffffffffffffffffffffffffffff1673ffffffffffffffffffffffffffffffffffffffff16815260200190815260200160002060008273ffffffffffffffffffffffffffffffffffffffff1673ffffffffffffffffffffffffffffffffffffffff16815260200190815260200160002054841115610a3d576040517f08c379a0000000000000000000000000000000000000000000000000000000008152600401610a34906134c0565b60405180910390fd5b600c60009054906101000a900473ffffffffffffffffffffffffffffffffffffffff1673ffffffffffffffffffffffffffffffffffffffff1663cfcd733e888989876040518563ffffffff1660e01b8152600401610a9e94939291906134e0565b6020604051808303816000875af1158015610abd573d6000803e3d6000fd5b505050506040513d601f19601f82011682018060405250810190610ae1919061353a565b5083600d60008873ffffffffffffffffffffffffffffffffffffffff1673ffffffffffffffffffffffffffffffffffffffff16815260200190815260200160002060008373ffffffffffffffffffffffffffffffffffffffff1673ffffffffffffffffffffffffffffffffffffffff1681526020019081526020016000206000828254610b6e9190613596565b92505081905550610b8287878787866114fa565b50505050505050565b60075481565b610b996114f2565b73ffffffffffffffffffffffffffffffffffffffff168573ffffffffffffffffffffffffffffffffffffffff161480610bdf5750610bde85610bd96114f2565b61132b565b5b610c1e576040517f08c379a0000000000000000000000000000000000000000000000000000000008152600401610c159061363c565b60405180910390fd5b610c2b858585858561177c565b5050505050565b60085481565b4260085411610c7c576040517f08c379a0000000000000000000000000000000000000000000000000000000008152600401610c73906132e4565b60405180910390fd5b6000610c866114f2565b90508373ffffffffffffffffffffffffffffffffffffffff168173ffffffffffffffffffffffffffffffffffffffff161415610cf7576040517f08c379a0000000000000000000000000000000000000000000000000000000008152600401610cee906136ce565b60405180910390fd5b600c60009054906101000a900473ffffffffffffffffffffffffffffffffffffffff1673ffffffffffffffffffffffffffffffffffffffff1663b8702a708286856040518463ffffffff1660e01b8152600401610d56939291906136ee565b6020604051808303816000875af1158015610d75573d6000803e3d6000fd5b505050506040513d601f19601f82011682018060405250810190610d99919061353a565b5082600d60008373ffffffffffffffffffffffffffffffffffffffff1673ffffffffffffffffffffffffffffffffffffffff16815260200190815260200160002060008673ffffffffffffffffffffffffffffffffffffffff1673ffffffffffffffffffffffffffffffffffffffff16815260200190815260200160002081905550610e2781856001611a90565b60018060008373ffffffffffffffffffffffffffffffffffffffff1673ffffffffffffffffffffffffffffffffffffffff16815260200190815260200160002060008673ffffffffffffffffffffffffffffffffffffffff1673ffffffffffffffffffffffffffffffffffffffff16815260200190815260200160002060006101000a81548160ff0219169083151502179055508373ffffffffffffffffffffffffffffffffffffffff168173ffffffffffffffffffffffffffffffffffffffff167f17307eab39ab6107e8899845ad3d59bd9653f200f220920489ca2b5937696c316001604051610f199190612814565b60405180910390a350505050565b600d602052816000526040600020602052806000526040600020600091509150505481565b600080600060085460075442925092509250909192565b600660009054906101000a900460000b81565b60608151835114610fbc576040517f08c379a0000000000000000000000000000000000000000000000000000000008152600401610fb390613797565b60405180910390fd5b6000835167ffffffffffffffff811115610fd957610fd86129d2565b5b6040519080825280602002602001820160405280156110075781602001602082028036833780820191505090505b50905060005b84518110156110845761105485828151811061102c5761102b6137b7565b5b6020026020010151858381518110611047576110466137b7565b5b60200260200101516105bb565b828281518110611067576110666137b7565b5b6020026020010181815250508061107d906137e6565b905061100d565b508091505092915050565b600a818154811061109f57600080fd5b906000526020600020016000915090505481565b42600854116110f7576040517f08c379a00000000000000000000000000000000000000000000000000000000081526004016110ee906132e4565b60405180910390fd5b6110ff6114f2565b73ffffffffffffffffffffffffffffffffffffffff168673ffffffffffffffffffffffffffffffffffffffff16148061114557506111448661113f6114f2565b61132b565b5b611184576040517f08c379a000000000000000000000000000000000000000000000000000000000815260040161117b90613376565b60405180910390fd5b611192868686868686611bfd565b505050505050565b600360009054906101000a900473ffffffffffffffffffffffffffffffffffffffff1681565b600460009054906101000a900473ffffffffffffffffffffffffffffffffffffffff1681565b600080600e600084815260200190815260200160002060010160009054906101000a900473ffffffffffffffffffffffffffffffffffffffff16600e60008581526020019081526020016000206000015491509150915091565b61125261124b6114f2565b8383611a90565b5050565b6000600f6000838152602001908152602001600020549050919050565b600960009054906101000a900460ff1681565b6000600c60009054906101000a900473ffffffffffffffffffffffffffffffffffffffff1673ffffffffffffffffffffffffffffffffffffffff1663a3e85a70836040518263ffffffff1660e01b81526004016112e39190613031565b602060405180830381865afa158015611300573d6000803e3d6000fd5b505050506040513d601f19601f820116820180604052508101906113249190613844565b9050919050565b6000600160008473ffffffffffffffffffffffffffffffffffffffff1673ffffffffffffffffffffffffffffffffffffffff16815260200190815260200160002060008373ffffffffffffffffffffffffffffffffffffffff1673ffffffffffffffffffffffffffffffffffffffff16815260200190815260200160002060009054906101000a900460ff16905092915050565b6113c76114f2565b73ffffffffffffffffffffffffffffffffffffffff168573ffffffffffffffffffffffffffffffffffffffff16148061140d575061140c856114076114f2565b61132b565b5b61144c576040517f08c379a000000000000000000000000000000000000000000000000000000000815260040161144390613376565b60405180910390fd5b61145985858585856114fa565b5050505050565b600181565b6000808273ffffffffffffffffffffffffffffffffffffffff163b119050919050565b60007f01ffc9a7000000000000000000000000000000000000000000000000000000007bffffffffffffffffffffffffffffffffffffffffffffffffffffffff1916827bffffffffffffffffffffffffffffffffffffffffffffffffffffffff1916149050919050565b600033905090565b600073ffffffffffffffffffffffffffffffffffffffff168473ffffffffffffffffffffffffffffffffffffffff16141561156a576040517f08c379a000000000000000000000000000000000000000000000000000000000815260040161156190613408565b60405180910390fd5b60006115746114f2565b905061159481878761158588611f5f565b61158e88611f5f565b87611fd9565b600080600086815260200190815260200160002060008873ffffffffffffffffffffffffffffffffffffffff1673ffffffffffffffffffffffffffffffffffffffff1681526020019081526020016000205490508381101561162b576040517f08c379a0000000000000000000000000000000000000000000000000000000008152600401611622906138e3565b60405180910390fd5b83810360008087815260200190815260200160002060008973ffffffffffffffffffffffffffffffffffffffff1673ffffffffffffffffffffffffffffffffffffffff168152602001908152602001600020819055508360008087815260200190815260200160002060008873ffffffffffffffffffffffffffffffffffffffff1673ffffffffffffffffffffffffffffffffffffffff16815260200190815260200160002060008282546116e09190613903565b925050819055508573ffffffffffffffffffffffffffffffffffffffff168773ffffffffffffffffffffffffffffffffffffffff168373ffffffffffffffffffffffffffffffffffffffff167fc3d58168c5ae7397731d063d5bbf3d657854427343f4c083240f7aacaa2d0f62888860405161175d929190613959565b60405180910390a4611773828888888888612145565b50505050505050565b81518351146117c0576040517f08c379a00000000000000000000000000000000000000000000000000000000081526004016117b7906139f4565b60405180910390fd5b600073ffffffffffffffffffffffffffffffffffffffff168473ffffffffffffffffffffffffffffffffffffffff161415611830576040517f08c379a000000000000000000000000000000000000000000000000000000000815260040161182790613408565b60405180910390fd5b600061183a6114f2565b905061184a818787878787611fd9565b60005b84518110156119fb57600085828151811061186b5761186a6137b7565b5b60200260200101519050600085838151811061188a576118896137b7565b5b60200260200101519050600080600084815260200190815260200160002060008b73ffffffffffffffffffffffffffffffffffffffff1673ffffffffffffffffffffffffffffffffffffffff1681526020019081526020016000205490508181101561192b576040517f08c379a0000000000000000000000000000000000000000000000000000000008152600401611922906138e3565b60405180910390fd5b81810360008085815260200190815260200160002060008c73ffffffffffffffffffffffffffffffffffffffff1673ffffffffffffffffffffffffffffffffffffffff168152602001908152602001600020819055508160008085815260200190815260200160002060008b73ffffffffffffffffffffffffffffffffffffffff1673ffffffffffffffffffffffffffffffffffffffff16815260200190815260200160002060008282546119e09190613903565b92505081905550505050806119f4906137e6565b905061184d565b508473ffffffffffffffffffffffffffffffffffffffff168673ffffffffffffffffffffffffffffffffffffffff168273ffffffffffffffffffffffffffffffffffffffff167f4a39dc06d4c0dbc64b70af90fd698a233a518aa5d07e595d983b8c0526c8f7fb8787604051611a72929190613a14565b60405180910390a4611a8881878787878761231d565b505050505050565b8173ffffffffffffffffffffffffffffffffffffffff168373ffffffffffffffffffffffffffffffffffffffff161415611aff576040517f08c379a0000000000000000000000000000000000000000000000000000000008152600401611af6906136ce565b60405180910390fd5b80600160008573ffffffffffffffffffffffffffffffffffffffff1673ffffffffffffffffffffffffffffffffffffffff16815260200190815260200160002060008473ffffffffffffffffffffffffffffffffffffffff1673ffffffffffffffffffffffffffffffffffffffff16815260200190815260200160002060006101000a81548160ff0219169083151502179055508173ffffffffffffffffffffffffffffffffffffffff168373ffffffffffffffffffffffffffffffffffffffff167f17307eab39ab6107e8899845ad3d59bd9653f200f220920489ca2b5937696c3183604051611bf09190612814565b60405180910390a3505050565b4260085411611c41576040517f08c379a0000000000000000000000000000000000000000000000000000000008152600401611c38906132e4565b60405180910390fd5b600073ffffffffffffffffffffffffffffffffffffffff168573ffffffffffffffffffffffffffffffffffffffff161415611cb1576040517f08c379a0000000000000000000000000000000000000000000000000000000008152600401611ca890613abd565b60405180910390fd5b6000611cbb6114f2565b9050611cdb818888611ccc89611f5f565b611cd589611f5f565b87611fd9565b600080600087815260200190815260200160002060008973ffffffffffffffffffffffffffffffffffffffff1673ffffffffffffffffffffffffffffffffffffffff16815260200190815260200160002054905084811015611d72576040517f08c379a0000000000000000000000000000000000000000000000000000000008152600401611d69906138e3565b60405180910390fd5b84810360008088815260200190815260200160002060008a73ffffffffffffffffffffffffffffffffffffffff1673ffffffffffffffffffffffffffffffffffffffff168152602001908152602001600020819055508673ffffffffffffffffffffffffffffffffffffffff168873ffffffffffffffffffffffffffffffffffffffff168373ffffffffffffffffffffffffffffffffffffffff167fc3d58168c5ae7397731d063d5bbf3d657854427343f4c083240f7aacaa2d0f628989604051611e3e929190613959565b60405180910390a4600c60009054906101000a900473ffffffffffffffffffffffffffffffffffffffff1673ffffffffffffffffffffffffffffffffffffffff16636b8d290c8989876040518463ffffffff1660e01b8152600401611ea5939291906136ee565b600060405180830381600087803b158015611ebf57600080fd5b505af1158015611ed3573d6000803e3d6000fd5b505050508460008088815260200190815260200160002060008973ffffffffffffffffffffffffffffffffffffffff1673ffffffffffffffffffffffffffffffffffffffff1681526020019081526020016000206000828254611f369190613903565b92505081905550611f4786886124f5565b611f55828989898988612145565b5050505050505050565b60606000600167ffffffffffffffff811115611f7e57611f7d6129d2565b5b604051908082528060200260200182016040528015611fac5781602001602082028036833780820191505090505b5090508281600081518110611fc457611fc36137b7565b5b60200260200101818152505080915050919050565b600073ffffffffffffffffffffffffffffffffffffffff168573ffffffffffffffffffffffffffffffffffffffff16141561208b5760005b83518110156120895782818151811061202d5761202c6137b7565b5b6020026020010151600f600086848151811061204c5761204b6137b7565b5b6020026020010151815260200190815260200160002060008282546120719190613903565b9250508190555080612082906137e6565b9050612011565b505b600073ffffffffffffffffffffffffffffffffffffffff168473ffffffffffffffffffffffffffffffffffffffff16141561213d5760005b835181101561213b578281815181106120df576120de6137b7565b5b6020026020010151600f60008684815181106120fe576120fd6137b7565b5b6020026020010151815260200190815260200160002060008282546121239190613596565b9250508190555080612134906137e6565b90506120c3565b505b505050505050565b6121648473ffffffffffffffffffffffffffffffffffffffff16611465565b15612315578373ffffffffffffffffffffffffffffffffffffffff1663f23a6e6187878686866040518663ffffffff1660e01b81526004016121aa959493929190613b32565b6020604051808303816000875af19250505080156121e657506040513d601f19601f820116820180604052508101906121e39190613ba1565b60015b61228c576121f2613bdb565b806308c379a0141561224f5750612207613bfd565b806122125750612251565b806040517f08c379a0000000000000000000000000000000000000000000000000000000008152600401612246919061296f565b60405180910390fd5b505b6040517f08c379a000000000000000000000000000000000000000000000000000000000815260040161228390613d05565b60405180910390fd5b63f23a6e6160e01b7bffffffffffffffffffffffffffffffffffffffffffffffffffffffff1916817bffffffffffffffffffffffffffffffffffffffffffffffffffffffff191614612313576040517f08c379a000000000000000000000000000000000000000000000000000000000815260040161230a90613d97565b60405180910390fd5b505b505050505050565b61233c8473ffffffffffffffffffffffffffffffffffffffff16611465565b156124ed578373ffffffffffffffffffffffffffffffffffffffff1663bc197c8187878686866040518663ffffffff1660e01b8152600401612382959493929190613db7565b6020604051808303816000875af19250505080156123be57506040513d601f19601f820116820180604052508101906123bb9190613ba1565b60015b612464576123ca613bdb565b806308c379a0141561242757506123df613bfd565b806123ea5750612429565b806040517f08c379a000000000000000000000000000000000000000000000000000000000815260040161241e919061296f565b60405180910390fd5b505b6040517f08c379a000000000000000000000000000000000000000000000000000000000815260040161245b90613d05565b60405180910390fd5b63bc197c8160e01b7bffffffffffffffffffffffffffffffffffffffffffffffffffffffff1916817bffffffffffffffffffffffffffffffffffffffffffffffffffffffff1916146124eb576040517f08c379a00000000000000000000000000000000000000000000000000000000081526004016124e290613d97565b60405180910390fd5b505b505050505050565b6124fe816125bf565b8061250e57506000600a80549050145b156125bb5781600e6000600a8054905081526020019081526020016000206000018190555080600e6000600a80549050815260200190815260200160002060010160006101000a81548173ffffffffffffffffffffffffffffffffffffffff021916908373ffffffffffffffffffffffffffffffffffffffff160217905550600a808054905090806001815401808255809150506001900390600052602060002001600090919091909150555b5050565b600080600a805490501461265c576000600a8054905081101561265a578273ffffffffffffffffffffffffffffffffffffffff16600e600083815260200190815260200160002060010160009054906101000a900473ffffffffffffffffffffffffffffffffffffffff1673ffffffffffffffffffffffffffffffffffffffff16141561265057600091505061265d565b600191505061265d565b505b5b919050565b6000604051905090565b600080fd5b600080fd5b600073ffffffffffffffffffffffffffffffffffffffff82169050919050565b60006126a182612676565b9050919050565b6126b181612696565b81146126bc57600080fd5b50565b6000813590506126ce816126a8565b92915050565b6000819050919050565b6126e7816126d4565b81146126f257600080fd5b50565b600081359050612704816126de565b92915050565b600080604083850312156127215761272061266c565b5b600061272f858286016126bf565b9250506020612740858286016126f5565b9150509250929050565b612753816126d4565b82525050565b600060208201905061276e600083018461274a565b92915050565b60007fffffffff0000000000000000000000000000000000000000000000000000000082169050919050565b6127a981612774565b81146127b457600080fd5b50565b6000813590506127c6816127a0565b92915050565b6000602082840312156127e2576127e161266c565b5b60006127f0848285016127b7565b91505092915050565b60008115159050919050565b61280e816127f9565b82525050565b60006020820190506128296000830184612805565b92915050565b6000819050919050565b600061285461284f61284a84612676565b61282f565b612676565b9050919050565b600061286682612839565b9050919050565b60006128788261285b565b9050919050565b6128888161286d565b82525050565b60006020820190506128a3600083018461287f565b92915050565b6000602082840312156128bf576128be61266c565b5b60006128cd848285016126f5565b91505092915050565b600081519050919050565b600082825260208201905092915050565b60005b838110156129105780820151818401526020810190506128f5565b8381111561291f576000848401525b50505050565b6000601f19601f8301169050919050565b6000612941826128d6565b61294b81856128e1565b935061295b8185602086016128f2565b61296481612925565b840191505092915050565b600060208201905081810360008301526129898184612936565b905092915050565b60008160000b9050919050565b6129a781612991565b82525050565b60006020820190506129c2600083018461299e565b92915050565b600080fd5b600080fd5b7f4e487b7100000000000000000000000000000000000000000000000000000000600052604160045260246000fd5b612a0a82612925565b810181811067ffffffffffffffff82111715612a2957612a286129d2565b5b80604052505050565b6000612a3c612662565b9050612a488282612a01565b919050565b600067ffffffffffffffff821115612a6857612a676129d2565b5b612a7182612925565b9050602081019050919050565b82818337600083830152505050565b6000612aa0612a9b84612a4d565b612a32565b905082815260208101848484011115612abc57612abb6129cd565b5b612ac7848285612a7e565b509392505050565b600082601f830112612ae457612ae36129c8565b5b8135612af4848260208601612a8d565b91505092915050565b60008060008060008060c08789031215612b1a57612b1961266c565b5b6000612b2889828a016126bf565b9650506020612b3989828a016126bf565b9550506040612b4a89828a016126f5565b9450506060612b5b89828a016126f5565b9350506080612b6c89828a016126f5565b92505060a087013567ffffffffffffffff811115612b8d57612b8c612671565b5b612b9989828a01612acf565b9150509295509295509295565b600067ffffffffffffffff821115612bc157612bc06129d2565b5b602082029050602081019050919050565b600080fd5b6000612bea612be584612ba6565b612a32565b90508083825260208201905060208402830185811115612c0d57612c0c612bd2565b5b835b81811015612c365780612c2288826126f5565b845260208401935050602081019050612c0f565b5050509392505050565b600082601f830112612c5557612c546129c8565b5b8135612c65848260208601612bd7565b91505092915050565b600080600080600060a08688031215612c8a57612c8961266c565b5b6000612c98888289016126bf565b9550506020612ca9888289016126bf565b945050604086013567ffffffffffffffff811115612cca57612cc9612671565b5b612cd688828901612c40565b935050606086013567ffffffffffffffff811115612cf757612cf6612671565b5b612d0388828901612c40565b925050608086013567ffffffffffffffff811115612d2457612d23612671565b5b612d3088828901612acf565b9150509295509295909350565b600080600060608486031215612d5657612d5561266c565b5b6000612d64868287016126bf565b9350506020612d75868287016126f5565b9250506040612d86868287016126f5565b9150509250925092565b60008060408385031215612da757612da661266c565b5b6000612db5858286016126bf565b9250506020612dc6858286016126bf565b9150509250929050565b6000606082019050612de5600083018661274a565b612df2602083018561274a565b612dff604083018461274a565b949350505050565b600067ffffffffffffffff821115612e2257612e216129d2565b5b602082029050602081019050919050565b6000612e46612e4184612e07565b612a32565b90508083825260208201905060208402830185811115612e6957612e68612bd2565b5b835b81811015612e925780612e7e88826126bf565b845260208401935050602081019050612e6b565b5050509392505050565b600082601f830112612eb157612eb06129c8565b5b8135612ec1848260208601612e33565b91505092915050565b60008060408385031215612ee157612ee061266c565b5b600083013567ffffffffffffffff811115612eff57612efe612671565b5b612f0b85828601612e9c565b925050602083013567ffffffffffffffff811115612f2c57612f2b612671565b5b612f3885828601612c40565b9150509250929050565b600081519050919050565b600082825260208201905092915050565b6000819050602082019050919050565b612f77816126d4565b82525050565b6000612f898383612f6e565b60208301905092915050565b6000602082019050919050565b6000612fad82612f42565b612fb78185612f4d565b9350612fc283612f5e565b8060005b83811015612ff3578151612fda8882612f7d565b9750612fe583612f95565b925050600181019050612fc6565b5085935050505092915050565b6000602082019050818103600083015261301a8184612fa2565b905092915050565b61302b81612696565b82525050565b60006020820190506130466000830184613022565b92915050565b60006040820190506130616000830185613022565b61306e602083018461274a565b9392505050565b61307e816127f9565b811461308957600080fd5b50565b60008135905061309b81613075565b92915050565b600080604083850312156130b8576130b761266c565b5b60006130c6858286016126bf565b92505060206130d78582860161308c565b9150509250929050565b6000602082840312156130f7576130f661266c565b5b6000613105848285016126bf565b91505092915050565b600080600080600060a0868803121561312a5761312961266c565b5b6000613138888289016126bf565b9550506020613149888289016126bf565b945050604061315a888289016126f5565b935050606061316b888289016126f5565b925050608086013567ffffffffffffffff81111561318c5761318b612671565b5b61319888828901612acf565b9150509295509295909350565b7f455243313135353a2062616c616e636520717565727920666f7220746865207a60008201527f65726f2061646472657373000000000000000000000000000000000000000000602082015250565b6000613201602b836128e1565b915061320c826131a5565b604082019050919050565b60006020820190508181036000830152613230816131f4565b9050919050565b7f4e487b7100000000000000000000000000000000000000000000000000000000600052602260045260246000fd5b6000600282049050600182168061327e57607f821691505b6020821081141561329257613291613237565b5b50919050565b7f4f7665722073616c6520646174612e2e2e000000000000000000000000000000600082015250565b60006132ce6011836128e1565b91506132d982613298565b602082019050919050565b600060208201905081810360008301526132fd816132c1565b9050919050565b7f455243313135353a2063616c6c6572206973206e6f74206f776e6572206e6f7260008201527f20617070726f7665640000000000000000000000000000000000000000000000602082015250565b60006133606029836128e1565b915061336b82613304565b604082019050919050565b6000602082019050818103600083015261338f81613353565b9050919050565b7f455243313135353a207472616e7366657220746f20746865207a65726f20616460008201527f6472657373000000000000000000000000000000000000000000000000000000602082015250565b60006133f26025836128e1565b91506133fd82613396565b604082019050919050565b60006020820190508181036000830152613421816133e5565b9050919050565b7f45524331313535203a20656e7465722061726720206d6f72652076616c75652060008201527f7468616e20416d6f756e74416c6c6f77616e636520696e7075742076616c756560208201527f2000000000000000000000000000000000000000000000000000000000000000604082015250565b60006134aa6041836128e1565b91506134b582613428565b606082019050919050565b600060208201905081810360008301526134d98161349d565b9050919050565b60006080820190506134f56000830187613022565b6135026020830186613022565b61350f6040830185613022565b61351c606083018461274a565b95945050505050565b60008151905061353481613075565b92915050565b6000602082840312156135505761354f61266c565b5b600061355e84828501613525565b91505092915050565b7f4e487b7100000000000000000000000000000000000000000000000000000000600052601160045260246000fd5b60006135a1826126d4565b91506135ac836126d4565b9250828210156135bf576135be613567565b5b828203905092915050565b7f455243313135353a207472616e736665722063616c6c6572206973206e6f742060008201527f6f776e6572206e6f7220617070726f7665640000000000000000000000000000602082015250565b60006136266032836128e1565b9150613631826135ca565b604082019050919050565b6000602082019050818103600083015261365581613619565b9050919050565b7f455243313135353a2073657474696e6720617070726f76616c2073746174757360008201527f20666f722073656c660000000000000000000000000000000000000000000000602082015250565b60006136b86029836128e1565b91506136c38261365c565b604082019050919050565b600060208201905081810360008301526136e7816136ab565b9050919050565b60006060820190506137036000830186613022565b6137106020830185613022565b61371d604083018461274a565b949350505050565b7f455243313135353a206163636f756e747320616e6420696473206c656e67746860008201527f206d69736d617463680000000000000000000000000000000000000000000000602082015250565b60006137816029836128e1565b915061378c82613725565b604082019050919050565b600060208201905081810360008301526137b081613774565b9050919050565b7f4e487b7100000000000000000000000000000000000000000000000000000000600052603260045260246000fd5b60006137f1826126d4565b91507fffffffffffffffffffffffffffffffffffffffffffffffffffffffffffffffff82141561382457613823613567565b5b600182019050919050565b60008151905061383e816126de565b92915050565b60006020828403121561385a5761385961266c565b5b60006138688482850161382f565b91505092915050565b7f455243313135353a20696e73756666696369656e742062616c616e636520666f60008201527f72207472616e7366657200000000000000000000000000000000000000000000602082015250565b60006138cd602a836128e1565b91506138d882613871565b604082019050919050565b600060208201905081810360008301526138fc816138c0565b9050919050565b600061390e826126d4565b9150613919836126d4565b9250827fffffffffffffffffffffffffffffffffffffffffffffffffffffffffffffffff0382111561394e5761394d613567565b5b828201905092915050565b600060408201905061396e600083018561274a565b61397b602083018461274a565b9392505050565b7f455243313135353a2069647320616e6420616d6f756e7473206c656e6774682060008201527f6d69736d61746368000000000000000000000000000000000000000000000000602082015250565b60006139de6028836128e1565b91506139e982613982565b604082019050919050565b60006020820190508181036000830152613a0d816139d1565b9050919050565b60006040820190508181036000830152613a2e8185612fa2565b90508181036020830152613a428184612fa2565b90509392505050565b7f455243313135353a207472616e73666572205f637573746f6d6572416464726560008201527f737320746865207a65726f206164647265737300000000000000000000000000602082015250565b6000613aa76033836128e1565b9150613ab282613a4b565b604082019050919050565b60006020820190508181036000830152613ad681613a9a565b9050919050565b600081519050919050565b600082825260208201905092915050565b6000613b0482613add565b613b0e8185613ae8565b9350613b1e8185602086016128f2565b613b2781612925565b840191505092915050565b600060a082019050613b476000830188613022565b613b546020830187613022565b613b61604083018661274a565b613b6e606083018561274a565b8181036080830152613b808184613af9565b90509695505050505050565b600081519050613b9b816127a0565b92915050565b600060208284031215613bb757613bb661266c565b5b6000613bc584828501613b8c565b91505092915050565b60008160e01c9050919050565b600060033d1115613bfa5760046000803e613bf7600051613bce565b90505b90565b600060443d1015613c0d57613c90565b613c15612662565b60043d036004823e80513d602482011167ffffffffffffffff82111715613c3d575050613c90565b808201805167ffffffffffffffff811115613c5b5750505050613c90565b80602083010160043d038501811115613c78575050505050613c90565b613c8782602001850186612a01565b82955050505050505b90565b7f455243313135353a207472616e7366657220746f206e6f6e204552433131353560008201527f526563656976657220696d706c656d656e746572000000000000000000000000602082015250565b6000613cef6034836128e1565b9150613cfa82613c93565b604082019050919050565b60006020820190508181036000830152613d1e81613ce2565b9050919050565b7f455243313135353a204552433131353552656365697665722072656a6563746560008201527f6420746f6b656e73000000000000000000000000000000000000000000000000602082015250565b6000613d816028836128e1565b9150613d8c82613d25565b604082019050919050565b60006020820190508181036000830152613db081613d74565b9050919050565b600060a082019050613dcc6000830188613022565b613dd96020830187613022565b8181036040830152613deb8186612fa2565b90508181036060830152613dff8185612fa2565b90508181036080830152613e138184613af9565b9050969550505050505056fea26469706673582212205b5dcde129886fa56123ea460c6c819cd2726ac521c819a4d5ee5b97f0a1ca0f64736f6c634300080b0033",
			"opcodes": "PUSH1 0x80 PUSH1 0x40 MSTORE CALLVALUE DUP1 ISZERO PUSH3 0x11 JUMPI PUSH1 0x0 DUP1 REVERT JUMPDEST POP PUSH1 0x40 MLOAD PUSH3 0x50B0 CODESIZE SUB DUP1 PUSH3 0x50B0 DUP4 CODECOPY DUP2 DUP2 ADD PUSH1 0x40 MSTORE DUP2 ADD SWAP1 PUSH3 0x37 SWAP2 SWAP1 PUSH3 0xAB3 JUMP JUMPDEST PUSH3 0x48 DUP8 PUSH3 0x179 PUSH1 0x20 SHL PUSH1 0x20 SHR JUMP JUMPDEST DUP6 PUSH1 0x4 PUSH1 0x0 PUSH2 0x100 EXP DUP2 SLOAD DUP2 PUSH20 0xFFFFFFFFFFFFFFFFFFFFFFFFFFFFFFFFFFFFFFFF MUL NOT AND SWAP1 DUP4 PUSH20 0xFFFFFFFFFFFFFFFFFFFFFFFFFFFFFFFFFFFFFFFF AND MUL OR SWAP1 SSTORE POP DUP3 PUSH1 0x5 DUP2 SWAP1 SSTORE POP PUSH1 0x10 PUSH1 0x6 PUSH1 0x0 PUSH2 0x100 EXP DUP2 SLOAD DUP2 PUSH1 0xFF MUL NOT AND SWAP1 DUP4 PUSH1 0x0 SIGNEXTEND PUSH1 0xFF AND MUL OR SWAP1 SSTORE POP DUP5 PUSH1 0x6 PUSH1 0x1 PUSH2 0x100 EXP DUP2 SLOAD DUP2 PUSH1 0xFF MUL NOT AND SWAP1 DUP4 PUSH1 0x0 SIGNEXTEND PUSH1 0xFF AND MUL OR SWAP1 SSTORE POP TIMESTAMP PUSH1 0x7 DUP2 SWAP1 SSTORE POP PUSH3 0x15180 DUP3 PUSH3 0xE5 SWAP2 SWAP1 PUSH3 0xBB4 JUMP JUMPDEST TIMESTAMP PUSH3 0xF2 SWAP2 SWAP1 PUSH3 0xC15 JUMP JUMPDEST PUSH1 0x8 DUP2 SWAP1 SSTORE POP DUP4 PUSH1 0xB DUP2 SWAP1 SSTORE POP DUP1 PUSH1 0xC PUSH1 0x0 PUSH2 0x100 EXP DUP2 SLOAD DUP2 PUSH20 0xFFFFFFFFFFFFFFFFFFFFFFFFFFFFFFFFFFFFFFFF MUL NOT AND SWAP1 DUP4 PUSH20 0xFFFFFFFFFFFFFFFFFFFFFFFFFFFFFFFFFFFFFFFF AND MUL OR SWAP1 SSTORE POP PUSH3 0x16C CALLER PUSH1 0x1 PUSH1 0x5 SLOAD PUSH1 0x7 SLOAD PUSH1 0x8 SLOAD PUSH1 0x40 MLOAD DUP1 PUSH1 0x20 ADD PUSH1 0x40 MSTORE DUP1 PUSH1 0x0 DUP2 MSTORE POP PUSH3 0x195 PUSH1 0x20 SHL PUSH1 0x20 SHR JUMP JUMPDEST POP POP POP POP POP POP POP PUSH3 0x124B JUMP JUMPDEST DUP1 PUSH1 0x2 SWAP1 DUP1 MLOAD SWAP1 PUSH1 0x20 ADD SWAP1 PUSH3 0x191 SWAP3 SWAP2 SWAP1 PUSH3 0x788 JUMP JUMPDEST POP POP JUMP JUMPDEST PUSH1 0x0 PUSH20 0xFFFFFFFFFFFFFFFFFFFFFFFFFFFFFFFFFFFFFFFF AND DUP7 PUSH20 0xFFFFFFFFFFFFFFFFFFFFFFFFFFFFFFFFFFFFFFFF AND EQ ISZERO PUSH3 0x208 JUMPI PUSH1 0x40 MLOAD PUSH32 0x8C379A000000000000000000000000000000000000000000000000000000000 DUP2 MSTORE PUSH1 0x4 ADD PUSH3 0x1FF SWAP1 PUSH3 0xCF9 JUMP JUMPDEST PUSH1 0x40 MLOAD DUP1 SWAP2 SUB SWAP1 REVERT JUMPDEST PUSH1 0x0 PUSH3 0x21A PUSH3 0x35C PUSH1 0x20 SHL PUSH1 0x20 SHR JUMP JUMPDEST SWAP1 POP PUSH3 0x253 DUP2 PUSH1 0x0 DUP10 PUSH3 0x235 DUP11 PUSH3 0x364 PUSH1 0x20 SHL PUSH1 0x20 SHR JUMP JUMPDEST PUSH3 0x246 DUP11 PUSH3 0x364 PUSH1 0x20 SHL PUSH1 0x20 SHR JUMP JUMPDEST DUP8 PUSH3 0x3E5 PUSH1 0x20 SHL PUSH1 0x20 SHR JUMP JUMPDEST DUP5 PUSH1 0x0 DUP1 DUP9 DUP2 MSTORE PUSH1 0x20 ADD SWAP1 DUP2 MSTORE PUSH1 0x20 ADD PUSH1 0x0 KECCAK256 PUSH1 0x0 DUP10 PUSH20 0xFFFFFFFFFFFFFFFFFFFFFFFFFFFFFFFFFFFFFFFF AND PUSH20 0xFFFFFFFFFFFFFFFFFFFFFFFFFFFFFFFFFFFFFFFF AND DUP2 MSTORE PUSH1 0x20 ADD SWAP1 DUP2 MSTORE PUSH1 0x20 ADD PUSH1 0x0 KECCAK256 PUSH1 0x0 DUP3 DUP3 SLOAD PUSH3 0x2B4 SWAP2 SWAP1 PUSH3 0xC15 JUMP JUMPDEST SWAP3 POP POP DUP2 SWAP1 SSTORE POP DUP7 PUSH20 0xFFFFFFFFFFFFFFFFFFFFFFFFFFFFFFFFFFFFFFFF AND PUSH1 0x0 PUSH20 0xFFFFFFFFFFFFFFFFFFFFFFFFFFFFFFFFFFFFFFFF AND DUP3 PUSH20 0xFFFFFFFFFFFFFFFFFFFFFFFFFFFFFFFFFFFFFFFF AND PUSH32 0xC3D58168C5AE7397731D063D5BBF3D657854427343F4C083240F7AACAA2D0F62 DUP10 DUP10 PUSH1 0x40 MLOAD PUSH3 0x334 SWAP3 SWAP2 SWAP1 PUSH3 0xD2C JUMP JUMPDEST PUSH1 0x40 MLOAD DUP1 SWAP2 SUB SWAP1 LOG4 PUSH3 0x353 DUP2 PUSH1 0x0 DUP10 DUP10 DUP10 DUP8 PUSH3 0x56B PUSH1 0x20 SHL PUSH1 0x20 SHR JUMP JUMPDEST POP POP POP POP POP POP POP JUMP JUMPDEST PUSH1 0x0 CALLER SWAP1 POP SWAP1 JUMP JUMPDEST PUSH1 0x60 PUSH1 0x0 PUSH1 0x1 PUSH8 0xFFFFFFFFFFFFFFFF DUP2 GT ISZERO PUSH3 0x386 JUMPI PUSH3 0x385 PUSH3 0x867 JUMP JUMPDEST JUMPDEST PUSH1 0x40 MLOAD SWAP1 DUP1 DUP3 MSTORE DUP1 PUSH1 0x20 MUL PUSH1 0x20 ADD DUP3 ADD PUSH1 0x40 MSTORE DUP1 ISZERO PUSH3 0x3B5 JUMPI DUP2 PUSH1 0x20 ADD PUSH1 0x20 DUP3 MUL DUP1 CALLDATASIZE DUP4 CALLDATACOPY DUP1 DUP3 ADD SWAP2 POP POP SWAP1 POP JUMPDEST POP SWAP1 POP DUP3 DUP2 PUSH1 0x0 DUP2 MLOAD DUP2 LT PUSH3 0x3D0 JUMPI PUSH3 0x3CF PUSH3 0xD59 JUMP JUMPDEST JUMPDEST PUSH1 0x20 MUL PUSH1 0x20 ADD ADD DUP2 DUP2 MSTORE POP POP DUP1 SWAP2 POP POP SWAP2 SWAP1 POP JUMP JUMPDEST PUSH1 0x0 PUSH20 0xFFFFFFFFFFFFFFFFFFFFFFFFFFFFFFFFFFFFFFFF AND DUP6 PUSH20 0xFFFFFFFFFFFFFFFFFFFFFFFFFFFFFFFFFFFFFFFF AND EQ ISZERO PUSH3 0x4A4 JUMPI PUSH1 0x0 JUMPDEST DUP4 MLOAD DUP2 LT ISZERO PUSH3 0x4A2 JUMPI DUP3 DUP2 DUP2 MLOAD DUP2 LT PUSH3 0x43E JUMPI PUSH3 0x43D PUSH3 0xD59 JUMP JUMPDEST JUMPDEST PUSH1 0x20 MUL PUSH1 0x20 ADD ADD MLOAD PUSH1 0xF PUSH1 0x0 DUP7 DUP5 DUP2 MLOAD DUP2 LT PUSH3 0x460 JUMPI PUSH3 0x45F PUSH3 0xD59 JUMP JUMPDEST JUMPDEST PUSH1 0x20 MUL PUSH1 0x20 ADD ADD MLOAD DUP2 MSTORE PUSH1 0x20 ADD SWAP1 DUP2 MSTORE PUSH1 0x20 ADD PUSH1 0x0 KECCAK256 PUSH1 0x0 DUP3 DUP3 SLOAD PUSH3 0x487 SWAP2 SWAP1 PUSH3 0xC15 JUMP JUMPDEST SWAP3 POP POP DUP2 SWAP1 SSTORE POP DUP1 PUSH3 0x49A SWAP1 PUSH3 0xD88 JUMP JUMPDEST SWAP1 POP PUSH3 0x41E JUMP JUMPDEST POP JUMPDEST PUSH1 0x0 PUSH20 0xFFFFFFFFFFFFFFFFFFFFFFFFFFFFFFFFFFFFFFFF AND DUP5 PUSH20 0xFFFFFFFFFFFFFFFFFFFFFFFFFFFFFFFFFFFFFFFF AND EQ ISZERO PUSH3 0x563 JUMPI PUSH1 0x0 JUMPDEST DUP4 MLOAD DUP2 LT ISZERO PUSH3 0x561 JUMPI DUP3 DUP2 DUP2 MLOAD DUP2 LT PUSH3 0x4FD JUMPI PUSH3 0x4FC PUSH3 0xD59 JUMP JUMPDEST JUMPDEST PUSH1 0x20 MUL PUSH1 0x20 ADD ADD MLOAD PUSH1 0xF PUSH1 0x0 DUP7 DUP5 DUP2 MLOAD DUP2 LT PUSH3 0x51F JUMPI PUSH3 0x51E PUSH3 0xD59 JUMP JUMPDEST JUMPDEST PUSH1 0x20 MUL PUSH1 0x20 ADD ADD MLOAD DUP2 MSTORE PUSH1 0x20 ADD SWAP1 DUP2 MSTORE PUSH1 0x20 ADD PUSH1 0x0 KECCAK256 PUSH1 0x0 DUP3 DUP3 SLOAD PUSH3 0x546 SWAP2 SWAP1 PUSH3 0xDD6 JUMP JUMPDEST SWAP3 POP POP DUP2 SWAP1 SSTORE POP DUP1 PUSH3 0x559 SWAP1 PUSH3 0xD88 JUMP JUMPDEST SWAP1 POP PUSH3 0x4DD JUMP JUMPDEST POP JUMPDEST POP POP POP POP POP POP JUMP JUMPDEST PUSH3 0x597 DUP5 PUSH20 0xFFFFFFFFFFFFFFFFFFFFFFFFFFFFFFFFFFFFFFFF AND PUSH3 0x765 PUSH1 0x20 SHL PUSH3 0x1465 OR PUSH1 0x20 SHR JUMP JUMPDEST ISZERO PUSH3 0x75D JUMPI DUP4 PUSH20 0xFFFFFFFFFFFFFFFFFFFFFFFFFFFFFFFFFFFFFFFF AND PUSH4 0xF23A6E61 DUP8 DUP8 DUP7 DUP7 DUP7 PUSH1 0x40 MLOAD DUP7 PUSH4 0xFFFFFFFF AND PUSH1 0xE0 SHL DUP2 MSTORE PUSH1 0x4 ADD PUSH3 0x5E0 SWAP6 SWAP5 SWAP4 SWAP3 SWAP2 SWAP1 PUSH3 0xE7F JUMP JUMPDEST PUSH1 0x20 PUSH1 0x40 MLOAD DUP1 DUP4 SUB DUP2 PUSH1 0x0 DUP8 GAS CALL SWAP3 POP POP POP DUP1 ISZERO PUSH3 0x61F JUMPI POP PUSH1 0x40 MLOAD RETURNDATASIZE PUSH1 0x1F NOT PUSH1 0x1F DUP3 ADD AND DUP3 ADD DUP1 PUSH1 0x40 MSTORE POP DUP2 ADD SWAP1 PUSH3 0x61C SWAP2 SWAP1 PUSH3 0xF40 JUMP JUMPDEST PUSH1 0x1 JUMPDEST PUSH3 0x6D1 JUMPI PUSH3 0x62E PUSH3 0xF7F JUMP JUMPDEST DUP1 PUSH4 0x8C379A0 EQ ISZERO PUSH3 0x692 JUMPI POP PUSH3 0x646 PUSH3 0xFA4 JUMP JUMPDEST DUP1 PUSH3 0x653 JUMPI POP PUSH3 0x694 JUMP JUMPDEST DUP1 PUSH1 0x40 MLOAD PUSH32 0x8C379A000000000000000000000000000000000000000000000000000000000 DUP2 MSTORE PUSH1 0x4 ADD PUSH3 0x689 SWAP2 SWAP1 PUSH3 0x1092 JUMP JUMPDEST PUSH1 0x40 MLOAD DUP1 SWAP2 SUB SWAP1 REVERT JUMPDEST POP JUMPDEST PUSH1 0x40 MLOAD PUSH32 0x8C379A000000000000000000000000000000000000000000000000000000000 DUP2 MSTORE PUSH1 0x4 ADD PUSH3 0x6C8 SWAP1 PUSH3 0x112C JUMP JUMPDEST PUSH1 0x40 MLOAD DUP1 SWAP2 SUB SWAP1 REVERT JUMPDEST PUSH4 0xF23A6E61 PUSH1 0xE0 SHL PUSH28 0xFFFFFFFFFFFFFFFFFFFFFFFFFFFFFFFFFFFFFFFFFFFFFFFFFFFFFFFF NOT AND DUP2 PUSH28 0xFFFFFFFFFFFFFFFFFFFFFFFFFFFFFFFFFFFFFFFFFFFFFFFFFFFFFFFF NOT AND EQ PUSH3 0x75B JUMPI PUSH1 0x40 MLOAD PUSH32 0x8C379A000000000000000000000000000000000000000000000000000000000 DUP2 MSTORE PUSH1 0x4 ADD PUSH3 0x752 SWAP1 PUSH3 0x11C4 JUMP JUMPDEST PUSH1 0x40 MLOAD DUP1 SWAP2 SUB SWAP1 REVERT JUMPDEST POP JUMPDEST POP POP POP POP POP POP JUMP JUMPDEST PUSH1 0x0 DUP1 DUP3 PUSH20 0xFFFFFFFFFFFFFFFFFFFFFFFFFFFFFFFFFFFFFFFF AND EXTCODESIZE GT SWAP1 POP SWAP2 SWAP1 POP JUMP JUMPDEST DUP3 DUP1 SLOAD PUSH3 0x796 SWAP1 PUSH3 0x1215 JUMP JUMPDEST SWAP1 PUSH1 0x0 MSTORE PUSH1 0x20 PUSH1 0x0 KECCAK256 SWAP1 PUSH1 0x1F ADD PUSH1 0x20 SWAP1 DIV DUP2 ADD SWAP3 DUP3 PUSH3 0x7BA JUMPI PUSH1 0x0 DUP6 SSTORE PUSH3 0x806 JUMP JUMPDEST DUP3 PUSH1 0x1F LT PUSH3 0x7D5 JUMPI DUP1 MLOAD PUSH1 0xFF NOT AND DUP4 DUP1 ADD OR DUP6 SSTORE PUSH3 0x806 JUMP JUMPDEST DUP3 DUP1 ADD PUSH1 0x1 ADD DUP6 SSTORE DUP3 ISZERO PUSH3 0x806 JUMPI SWAP2 DUP3 ADD JUMPDEST DUP3 DUP2 GT ISZERO PUSH3 0x805 JUMPI DUP3 MLOAD DUP3 SSTORE SWAP2 PUSH1 0x20 ADD SWAP2 SWAP1 PUSH1 0x1 ADD SWAP1 PUSH3 0x7E8 JUMP JUMPDEST JUMPDEST POP SWAP1 POP PUSH3 0x815 SWAP2 SWAP1 PUSH3 0x819 JUMP JUMPDEST POP SWAP1 JUMP JUMPDEST JUMPDEST DUP1 DUP3 GT ISZERO PUSH3 0x834 JUMPI PUSH1 0x0 DUP2 PUSH1 0x0 SWAP1 SSTORE POP PUSH1 0x1 ADD PUSH3 0x81A JUMP JUMPDEST POP SWAP1 JUMP JUMPDEST PUSH1 0x0 PUSH1 0x40 MLOAD SWAP1 POP SWAP1 JUMP JUMPDEST PUSH1 0x0 DUP1 REVERT JUMPDEST PUSH1 0x0 DUP1 REVERT JUMPDEST PUSH1 0x0 DUP1 REVERT JUMPDEST PUSH1 0x0 DUP1 REVERT JUMPDEST PUSH1 0x0 PUSH1 0x1F NOT PUSH1 0x1F DUP4 ADD AND SWAP1 POP SWAP2 SWAP1 POP JUMP JUMPDEST PUSH32 0x4E487B7100000000000000000000000000000000000000000000000000000000 PUSH1 0x0 MSTORE PUSH1 0x41 PUSH1 0x4 MSTORE PUSH1 0x24 PUSH1 0x0 REVERT JUMPDEST PUSH3 0x8A1 DUP3 PUSH3 0x856 JUMP JUMPDEST DUP2 ADD DUP2 DUP2 LT PUSH8 0xFFFFFFFFFFFFFFFF DUP3 GT OR ISZERO PUSH3 0x8C3 JUMPI PUSH3 0x8C2 PUSH3 0x867 JUMP JUMPDEST JUMPDEST DUP1 PUSH1 0x40 MSTORE POP POP POP JUMP JUMPDEST PUSH1 0x0 PUSH3 0x8D8 PUSH3 0x838 JUMP JUMPDEST SWAP1 POP PUSH3 0x8E6 DUP3 DUP3 PUSH3 0x896 JUMP JUMPDEST SWAP2 SWAP1 POP JUMP JUMPDEST PUSH1 0x0 PUSH8 0xFFFFFFFFFFFFFFFF DUP3 GT ISZERO PUSH3 0x909 JUMPI PUSH3 0x908 PUSH3 0x867 JUMP JUMPDEST JUMPDEST PUSH3 0x914 DUP3 PUSH3 0x856 JUMP JUMPDEST SWAP1 POP PUSH1 0x20 DUP2 ADD SWAP1 POP SWAP2 SWAP1 POP JUMP JUMPDEST PUSH1 0x0 JUMPDEST DUP4 DUP2 LT ISZERO PUSH3 0x941 JUMPI DUP1 DUP3 ADD MLOAD DUP2 DUP5 ADD MSTORE PUSH1 0x20 DUP2 ADD SWAP1 POP PUSH3 0x924 JUMP JUMPDEST DUP4 DUP2 GT ISZERO PUSH3 0x951 JUMPI PUSH1 0x0 DUP5 DUP5 ADD MSTORE JUMPDEST POP POP POP POP JUMP JUMPDEST PUSH1 0x0 PUSH3 0x96E PUSH3 0x968 DUP5 PUSH3 0x8EB JUMP JUMPDEST PUSH3 0x8CC JUMP JUMPDEST SWAP1 POP DUP3 DUP2 MSTORE PUSH1 0x20 DUP2 ADD DUP5 DUP5 DUP5 ADD GT ISZERO PUSH3 0x98D JUMPI PUSH3 0x98C PUSH3 0x851 JUMP JUMPDEST JUMPDEST PUSH3 0x99A DUP5 DUP3 DUP6 PUSH3 0x921 JUMP JUMPDEST POP SWAP4 SWAP3 POP POP POP JUMP JUMPDEST PUSH1 0x0 DUP3 PUSH1 0x1F DUP4 ADD SLT PUSH3 0x9BA JUMPI PUSH3 0x9B9 PUSH3 0x84C JUMP JUMPDEST JUMPDEST DUP2 MLOAD PUSH3 0x9CC DUP5 DUP3 PUSH1 0x20 DUP7 ADD PUSH3 0x957 JUMP JUMPDEST SWAP2 POP POP SWAP3 SWAP2 POP POP JUMP JUMPDEST PUSH1 0x0 PUSH20 0xFFFFFFFFFFFFFFFFFFFFFFFFFFFFFFFFFFFFFFFF DUP3 AND SWAP1 POP SWAP2 SWAP1 POP JUMP JUMPDEST PUSH1 0x0 PUSH3 0xA02 DUP3 PUSH3 0x9D5 JUMP JUMPDEST SWAP1 POP SWAP2 SWAP1 POP JUMP JUMPDEST PUSH3 0xA14 DUP2 PUSH3 0x9F5 JUMP JUMPDEST DUP2 EQ PUSH3 0xA20 JUMPI PUSH1 0x0 DUP1 REVERT JUMPDEST POP JUMP JUMPDEST PUSH1 0x0 DUP2 MLOAD SWAP1 POP PUSH3 0xA34 DUP2 PUSH3 0xA09 JUMP JUMPDEST SWAP3 SWAP2 POP POP JUMP JUMPDEST PUSH1 0x0 DUP2 PUSH1 0x0 SIGNEXTEND SWAP1 POP SWAP2 SWAP1 POP JUMP JUMPDEST PUSH3 0xA52 DUP2 PUSH3 0xA3A JUMP JUMPDEST DUP2 EQ PUSH3 0xA5E JUMPI PUSH1 0x0 DUP1 REVERT JUMPDEST POP JUMP JUMPDEST PUSH1 0x0 DUP2 MLOAD SWAP1 POP PUSH3 0xA72 DUP2 PUSH3 0xA47 JUMP JUMPDEST SWAP3 SWAP2 POP POP JUMP JUMPDEST PUSH1 0x0 DUP2 SWAP1 POP SWAP2 SWAP1 POP JUMP JUMPDEST PUSH3 0xA8D DUP2 PUSH3 0xA78 JUMP JUMPDEST DUP2 EQ PUSH3 0xA99 JUMPI PUSH1 0x0 DUP1 REVERT JUMPDEST POP JUMP JUMPDEST PUSH1 0x0 DUP2 MLOAD SWAP1 POP PUSH3 0xAAD DUP2 PUSH3 0xA82 JUMP JUMPDEST SWAP3 SWAP2 POP POP JUMP JUMPDEST PUSH1 0x0 DUP1 PUSH1 0x0 DUP1 PUSH1 0x0 DUP1 PUSH1 0x0 PUSH1 0xE0 DUP9 DUP11 SUB SLT ISZERO PUSH3 0xAD5 JUMPI PUSH3 0xAD4 PUSH3 0x842 JUMP JUMPDEST JUMPDEST PUSH1 0x0 DUP9 ADD MLOAD PUSH8 0xFFFFFFFFFFFFFFFF DUP2 GT ISZERO PUSH3 0xAF6 JUMPI PUSH3 0xAF5 PUSH3 0x847 JUMP JUMPDEST JUMPDEST PUSH3 0xB04 DUP11 DUP3 DUP12 ADD PUSH3 0x9A2 JUMP JUMPDEST SWAP8 POP POP PUSH1 0x20 PUSH3 0xB17 DUP11 DUP3 DUP12 ADD PUSH3 0xA23 JUMP JUMPDEST SWAP7 POP POP PUSH1 0x40 PUSH3 0xB2A DUP11 DUP3 DUP12 ADD PUSH3 0xA61 JUMP JUMPDEST SWAP6 POP POP PUSH1 0x60 PUSH3 0xB3D DUP11 DUP3 DUP12 ADD PUSH3 0xA9C JUMP JUMPDEST SWAP5 POP POP PUSH1 0x80 PUSH3 0xB50 DUP11 DUP3 DUP12 ADD PUSH3 0xA9C JUMP JUMPDEST SWAP4 POP POP PUSH1 0xA0 PUSH3 0xB63 DUP11 DUP3 DUP12 ADD PUSH3 0xA9C JUMP JUMPDEST SWAP3 POP POP PUSH1 0xC0 PUSH3 0xB76 DUP11 DUP3 DUP12 ADD PUSH3 0xA23 JUMP JUMPDEST SWAP2 POP POP SWAP3 SWAP6 SWAP9 SWAP2 SWAP5 SWAP8 POP SWAP3 SWAP6 POP JUMP JUMPDEST PUSH32 0x4E487B7100000000000000000000000000000000000000000000000000000000 PUSH1 0x0 MSTORE PUSH1 0x11 PUSH1 0x4 MSTORE PUSH1 0x24 PUSH1 0x0 REVERT JUMPDEST PUSH1 0x0 PUSH3 0xBC1 DUP3 PUSH3 0xA78 JUMP JUMPDEST SWAP2 POP PUSH3 0xBCE DUP4 PUSH3 0xA78 JUMP JUMPDEST SWAP3 POP DUP2 PUSH32 0xFFFFFFFFFFFFFFFFFFFFFFFFFFFFFFFFFFFFFFFFFFFFFFFFFFFFFFFFFFFFFFFF DIV DUP4 GT DUP3 ISZERO ISZERO AND ISZERO PUSH3 0xC0A JUMPI PUSH3 0xC09 PUSH3 0xB85 JUMP JUMPDEST JUMPDEST DUP3 DUP3 MUL SWAP1 POP SWAP3 SWAP2 POP POP JUMP JUMPDEST PUSH1 0x0 PUSH3 0xC22 DUP3 PUSH3 0xA78 JUMP JUMPDEST SWAP2 POP PUSH3 0xC2F DUP4 PUSH3 0xA78 JUMP JUMPDEST SWAP3 POP DUP3 PUSH32 0xFFFFFFFFFFFFFFFFFFFFFFFFFFFFFFFFFFFFFFFFFFFFFFFFFFFFFFFFFFFFFFFF SUB DUP3 GT ISZERO PUSH3 0xC67 JUMPI PUSH3 0xC66 PUSH3 0xB85 JUMP JUMPDEST JUMPDEST DUP3 DUP3 ADD SWAP1 POP SWAP3 SWAP2 POP POP JUMP JUMPDEST PUSH1 0x0 DUP3 DUP3 MSTORE PUSH1 0x20 DUP3 ADD SWAP1 POP SWAP3 SWAP2 POP POP JUMP JUMPDEST PUSH32 0x455243313135353A206D696E7420746F20746865207A65726F20616464726573 PUSH1 0x0 DUP3 ADD MSTORE PUSH32 0x7300000000000000000000000000000000000000000000000000000000000000 PUSH1 0x20 DUP3 ADD MSTORE POP JUMP JUMPDEST PUSH1 0x0 PUSH3 0xCE1 PUSH1 0x21 DUP4 PUSH3 0xC72 JUMP JUMPDEST SWAP2 POP PUSH3 0xCEE DUP3 PUSH3 0xC83 JUMP JUMPDEST PUSH1 0x40 DUP3 ADD SWAP1 POP SWAP2 SWAP1 POP JUMP JUMPDEST PUSH1 0x0 PUSH1 0x20 DUP3 ADD SWAP1 POP DUP2 DUP2 SUB PUSH1 0x0 DUP4 ADD MSTORE PUSH3 0xD14 DUP2 PUSH3 0xCD2 JUMP JUMPDEST SWAP1 POP SWAP2 SWAP1 POP JUMP JUMPDEST PUSH3 0xD26 DUP2 PUSH3 0xA78 JUMP JUMPDEST DUP3 MSTORE POP POP JUMP JUMPDEST PUSH1 0x0 PUSH1 0x40 DUP3 ADD SWAP1 POP PUSH3 0xD43 PUSH1 0x0 DUP4 ADD DUP6 PUSH3 0xD1B JUMP JUMPDEST PUSH3 0xD52 PUSH1 0x20 DUP4 ADD DUP5 PUSH3 0xD1B JUMP JUMPDEST SWAP4 SWAP3 POP POP POP JUMP JUMPDEST PUSH32 0x4E487B7100000000000000000000000000000000000000000000000000000000 PUSH1 0x0 MSTORE PUSH1 0x32 PUSH1 0x4 MSTORE PUSH1 0x24 PUSH1 0x0 REVERT JUMPDEST PUSH1 0x0 PUSH3 0xD95 DUP3 PUSH3 0xA78 JUMP JUMPDEST SWAP2 POP PUSH32 0xFFFFFFFFFFFFFFFFFFFFFFFFFFFFFFFFFFFFFFFFFFFFFFFFFFFFFFFFFFFFFFFF DUP3 EQ ISZERO PUSH3 0xDCB JUMPI PUSH3 0xDCA PUSH3 0xB85 JUMP JUMPDEST JUMPDEST PUSH1 0x1 DUP3 ADD SWAP1 POP SWAP2 SWAP1 POP JUMP JUMPDEST PUSH1 0x0 PUSH3 0xDE3 DUP3 PUSH3 0xA78 JUMP JUMPDEST SWAP2 POP PUSH3 0xDF0 DUP4 PUSH3 0xA78 JUMP JUMPDEST SWAP3 POP DUP3 DUP3 LT ISZERO PUSH3 0xE06 JUMPI PUSH3 0xE05 PUSH3 0xB85 JUMP JUMPDEST JUMPDEST DUP3 DUP3 SUB SWAP1 POP SWAP3 SWAP2 POP POP JUMP JUMPDEST PUSH3 0xE1C DUP2 PUSH3 0x9F5 JUMP JUMPDEST DUP3 MSTORE POP POP JUMP JUMPDEST PUSH1 0x0 DUP2 MLOAD SWAP1 POP SWAP2 SWAP1 POP JUMP JUMPDEST PUSH1 0x0 DUP3 DUP3 MSTORE PUSH1 0x20 DUP3 ADD SWAP1 POP SWAP3 SWAP2 POP POP JUMP JUMPDEST PUSH1 0x0 PUSH3 0xE4B DUP3 PUSH3 0xE22 JUMP JUMPDEST PUSH3 0xE57 DUP2 DUP6 PUSH3 0xE2D JUMP JUMPDEST SWAP4 POP PUSH3 0xE69 DUP2 DUP6 PUSH1 0x20 DUP7 ADD PUSH3 0x921 JUMP JUMPDEST PUSH3 0xE74 DUP2 PUSH3 0x856 JUMP JUMPDEST DUP5 ADD SWAP2 POP POP SWAP3 SWAP2 POP POP JUMP JUMPDEST PUSH1 0x0 PUSH1 0xA0 DUP3 ADD SWAP1 POP PUSH3 0xE96 PUSH1 0x0 DUP4 ADD DUP9 PUSH3 0xE11 JUMP JUMPDEST PUSH3 0xEA5 PUSH1 0x20 DUP4 ADD DUP8 PUSH3 0xE11 JUMP JUMPDEST PUSH3 0xEB4 PUSH1 0x40 DUP4 ADD DUP7 PUSH3 0xD1B JUMP JUMPDEST PUSH3 0xEC3 PUSH1 0x60 DUP4 ADD DUP6 PUSH3 0xD1B JUMP JUMPDEST DUP2 DUP2 SUB PUSH1 0x80 DUP4 ADD MSTORE PUSH3 0xED7 DUP2 DUP5 PUSH3 0xE3E JUMP JUMPDEST SWAP1 POP SWAP7 SWAP6 POP POP POP POP POP POP JUMP JUMPDEST PUSH1 0x0 PUSH32 0xFFFFFFFF00000000000000000000000000000000000000000000000000000000 DUP3 AND SWAP1 POP SWAP2 SWAP1 POP JUMP JUMPDEST PUSH3 0xF1A DUP2 PUSH3 0xEE3 JUMP JUMPDEST DUP2 EQ PUSH3 0xF26 JUMPI PUSH1 0x0 DUP1 REVERT JUMPDEST POP JUMP JUMPDEST PUSH1 0x0 DUP2 MLOAD SWAP1 POP PUSH3 0xF3A DUP2 PUSH3 0xF0F JUMP JUMPDEST SWAP3 SWAP2 POP POP JUMP JUMPDEST PUSH1 0x0 PUSH1 0x20 DUP3 DUP5 SUB SLT ISZERO PUSH3 0xF59 JUMPI PUSH3 0xF58 PUSH3 0x842 JUMP JUMPDEST JUMPDEST PUSH1 0x0 PUSH3 0xF69 DUP5 DUP3 DUP6 ADD PUSH3 0xF29 JUMP JUMPDEST SWAP2 POP POP SWAP3 SWAP2 POP POP JUMP JUMPDEST PUSH1 0x0 DUP2 PUSH1 0xE0 SHR SWAP1 POP SWAP2 SWAP1 POP JUMP JUMPDEST PUSH1 0x0 PUSH1 0x3 RETURNDATASIZE GT ISZERO PUSH3 0xFA1 JUMPI PUSH1 0x4 PUSH1 0x0 DUP1 RETURNDATACOPY PUSH3 0xF9E PUSH1 0x0 MLOAD PUSH3 0xF72 JUMP JUMPDEST SWAP1 POP JUMPDEST SWAP1 JUMP JUMPDEST PUSH1 0x0 PUSH1 0x44 RETURNDATASIZE LT ISZERO PUSH3 0xFB6 JUMPI PUSH3 0x1043 JUMP JUMPDEST PUSH3 0xFC0 PUSH3 0x838 JUMP JUMPDEST PUSH1 0x4 RETURNDATASIZE SUB PUSH1 0x4 DUP3 RETURNDATACOPY DUP1 MLOAD RETURNDATASIZE PUSH1 0x24 DUP3 ADD GT PUSH8 0xFFFFFFFFFFFFFFFF DUP3 GT OR ISZERO PUSH3 0xFEA JUMPI POP POP PUSH3 0x1043 JUMP JUMPDEST DUP1 DUP3 ADD DUP1 MLOAD PUSH8 0xFFFFFFFFFFFFFFFF DUP2 GT ISZERO PUSH3 0x100A JUMPI POP POP POP POP PUSH3 0x1043 JUMP JUMPDEST DUP1 PUSH1 0x20 DUP4 ADD ADD PUSH1 0x4 RETURNDATASIZE SUB DUP6 ADD DUP2 GT ISZERO PUSH3 0x1029 JUMPI POP POP POP POP POP PUSH3 0x1043 JUMP JUMPDEST PUSH3 0x103A DUP3 PUSH1 0x20 ADD DUP6 ADD DUP7 PUSH3 0x896 JUMP JUMPDEST DUP3 SWAP6 POP POP POP POP POP POP JUMPDEST SWAP1 JUMP JUMPDEST PUSH1 0x0 DUP2 MLOAD SWAP1 POP SWAP2 SWAP1 POP JUMP JUMPDEST PUSH1 0x0 PUSH3 0x105E DUP3 PUSH3 0x1046 JUMP JUMPDEST PUSH3 0x106A DUP2 DUP6 PUSH3 0xC72 JUMP JUMPDEST SWAP4 POP PUSH3 0x107C DUP2 DUP6 PUSH1 0x20 DUP7 ADD PUSH3 0x921 JUMP JUMPDEST PUSH3 0x1087 DUP2 PUSH3 0x856 JUMP JUMPDEST DUP5 ADD SWAP2 POP POP SWAP3 SWAP2 POP POP JUMP JUMPDEST PUSH1 0x0 PUSH1 0x20 DUP3 ADD SWAP1 POP DUP2 DUP2 SUB PUSH1 0x0 DUP4 ADD MSTORE PUSH3 0x10AE DUP2 DUP5 PUSH3 0x1051 JUMP JUMPDEST SWAP1 POP SWAP3 SWAP2 POP POP JUMP JUMPDEST PUSH32 0x455243313135353A207472616E7366657220746F206E6F6E2045524331313535 PUSH1 0x0 DUP3 ADD MSTORE PUSH32 0x526563656976657220696D706C656D656E746572000000000000000000000000 PUSH1 0x20 DUP3 ADD MSTORE POP JUMP JUMPDEST PUSH1 0x0 PUSH3 0x1114 PUSH1 0x34 DUP4 PUSH3 0xC72 JUMP JUMPDEST SWAP2 POP PUSH3 0x1121 DUP3 PUSH3 0x10B6 JUMP JUMPDEST PUSH1 0x40 DUP3 ADD SWAP1 POP SWAP2 SWAP1 POP JUMP JUMPDEST PUSH1 0x0 PUSH1 0x20 DUP3 ADD SWAP1 POP DUP2 DUP2 SUB PUSH1 0x0 DUP4 ADD MSTORE PUSH3 0x1147 DUP2 PUSH3 0x1105 JUMP JUMPDEST SWAP1 POP SWAP2 SWAP1 POP JUMP JUMPDEST PUSH32 0x455243313135353A204552433131353552656365697665722072656A65637465 PUSH1 0x0 DUP3 ADD MSTORE PUSH32 0x6420746F6B656E73000000000000000000000000000000000000000000000000 PUSH1 0x20 DUP3 ADD MSTORE POP JUMP JUMPDEST PUSH1 0x0 PUSH3 0x11AC PUSH1 0x28 DUP4 PUSH3 0xC72 JUMP JUMPDEST SWAP2 POP PUSH3 0x11B9 DUP3 PUSH3 0x114E JUMP JUMPDEST PUSH1 0x40 DUP3 ADD SWAP1 POP SWAP2 SWAP1 POP JUMP JUMPDEST PUSH1 0x0 PUSH1 0x20 DUP3 ADD SWAP1 POP DUP2 DUP2 SUB PUSH1 0x0 DUP4 ADD MSTORE PUSH3 0x11DF DUP2 PUSH3 0x119D JUMP JUMPDEST SWAP1 POP SWAP2 SWAP1 POP JUMP JUMPDEST PUSH32 0x4E487B7100000000000000000000000000000000000000000000000000000000 PUSH1 0x0 MSTORE PUSH1 0x22 PUSH1 0x4 MSTORE PUSH1 0x24 PUSH1 0x0 REVERT JUMPDEST PUSH1 0x0 PUSH1 0x2 DUP3 DIV SWAP1 POP PUSH1 0x1 DUP3 AND DUP1 PUSH3 0x122E JUMPI PUSH1 0x7F DUP3 AND SWAP2 POP JUMPDEST PUSH1 0x20 DUP3 LT DUP2 EQ ISZERO PUSH3 0x1245 JUMPI PUSH3 0x1244 PUSH3 0x11E6 JUMP JUMPDEST JUMPDEST POP SWAP2 SWAP1 POP JUMP JUMPDEST PUSH2 0x3E55 DUP1 PUSH3 0x125B PUSH1 0x0 CODECOPY PUSH1 0x0 RETURN INVALID PUSH1 0x80 PUSH1 0x40 MSTORE CALLVALUE DUP1 ISZERO PUSH2 0x10 JUMPI PUSH1 0x0 DUP1 REVERT JUMPDEST POP PUSH1 0x4 CALLDATASIZE LT PUSH2 0x1C3 JUMPI PUSH1 0x0 CALLDATALOAD PUSH1 0xE0 SHR DUP1 PUSH4 0x47332694 GT PUSH2 0xF9 JUMPI DUP1 PUSH4 0xA22CB465 GT PUSH2 0x97 JUMPI DUP1 PUSH4 0xDA1CC443 GT PUSH2 0x71 JUMPI DUP1 PUSH4 0xDA1CC443 EQ PUSH2 0x521 JUMPI DUP1 PUSH4 0xE985E9C5 EQ PUSH2 0x551 JUMPI DUP1 PUSH4 0xF242432A EQ PUSH2 0x581 JUMPI DUP1 PUSH4 0xFC489552 EQ PUSH2 0x59D JUMPI PUSH2 0x1C3 JUMP JUMPDEST DUP1 PUSH4 0xA22CB465 EQ PUSH2 0x4B7 JUMPI DUP1 PUSH4 0xBD85B039 EQ PUSH2 0x4D3 JUMPI DUP1 PUSH4 0xBE51F0FB EQ PUSH2 0x503 JUMPI PUSH2 0x1C3 JUMP JUMPDEST DUP1 PUSH4 0x7371ADA0 GT PUSH2 0xD3 JUMPI DUP1 PUSH4 0x7371ADA0 EQ PUSH2 0x42E JUMPI DUP1 PUSH4 0x7E933C51 EQ PUSH2 0x44A JUMPI DUP1 PUSH4 0x953FB4FB EQ PUSH2 0x468 JUMPI DUP1 PUSH4 0x9CBAFB0B EQ PUSH2 0x486 JUMPI PUSH2 0x1C3 JUMP JUMPDEST DUP1 PUSH4 0x47332694 EQ PUSH2 0x3B0 JUMPI DUP1 PUSH4 0x4E1273F4 EQ PUSH2 0x3CE JUMPI DUP1 PUSH4 0x50E2E8AF EQ PUSH2 0x3FE JUMPI PUSH2 0x1C3 JUMP JUMPDEST DUP1 PUSH4 0x22977EFD GT PUSH2 0x166 JUMPI DUP1 PUSH4 0x3204AB14 GT PUSH2 0x140 JUMPI DUP1 PUSH4 0x3204AB14 EQ PUSH2 0x326 JUMPI DUP1 PUSH4 0x3A85A3A2 EQ PUSH2 0x344 JUMPI DUP1 PUSH4 0x3B52ED83 EQ PUSH2 0x360 JUMPI DUP1 PUSH4 0x44FA523D EQ PUSH2 0x390 JUMPI PUSH2 0x1C3 JUMP JUMPDEST DUP1 PUSH4 0x22977EFD EQ PUSH2 0x2D0 JUMPI DUP1 PUSH4 0x2888C5C5 EQ PUSH2 0x2EC JUMPI DUP1 PUSH4 0x2EB2C2D6 EQ PUSH2 0x30A JUMPI PUSH2 0x1C3 JUMP JUMPDEST DUP1 PUSH4 0xE89341C GT PUSH2 0x1A2 JUMPI DUP1 PUSH4 0xE89341C EQ PUSH2 0x246 JUMPI DUP1 PUSH4 0x15898609 EQ PUSH2 0x276 JUMPI DUP1 PUSH4 0x1A5FA63C EQ PUSH2 0x294 JUMPI DUP1 PUSH4 0x1BDCE027 EQ PUSH2 0x2B2 JUMPI PUSH2 0x1C3 JUMP JUMPDEST DUP1 PUSH3 0xFDD58E EQ PUSH2 0x1C8 JUMPI DUP1 PUSH4 0x1FFC9A7 EQ PUSH2 0x1F8 JUMPI DUP1 PUSH4 0x837430B EQ PUSH2 0x228 JUMPI JUMPDEST PUSH1 0x0 DUP1 REVERT JUMPDEST PUSH2 0x1E2 PUSH1 0x4 DUP1 CALLDATASIZE SUB DUP2 ADD SWAP1 PUSH2 0x1DD SWAP2 SWAP1 PUSH2 0x270A JUMP JUMPDEST PUSH2 0x5BB JUMP JUMPDEST PUSH1 0x40 MLOAD PUSH2 0x1EF SWAP2 SWAP1 PUSH2 0x2759 JUMP JUMPDEST PUSH1 0x40 MLOAD DUP1 SWAP2 SUB SWAP1 RETURN JUMPDEST PUSH2 0x212 PUSH1 0x4 DUP1 CALLDATASIZE SUB DUP2 ADD SWAP1 PUSH2 0x20D SWAP2 SWAP1 PUSH2 0x27CC JUMP JUMPDEST PUSH2 0x684 JUMP JUMPDEST PUSH1 0x40 MLOAD PUSH2 0x21F SWAP2 SWAP1 PUSH2 0x2814 JUMP JUMPDEST PUSH1 0x40 MLOAD DUP1 SWAP2 SUB SWAP1 RETURN JUMPDEST PUSH2 0x230 PUSH2 0x766 JUMP JUMPDEST PUSH1 0x40 MLOAD PUSH2 0x23D SWAP2 SWAP1 PUSH2 0x288E JUMP JUMPDEST PUSH1 0x40 MLOAD DUP1 SWAP2 SUB SWAP1 RETURN JUMPDEST PUSH2 0x260 PUSH1 0x4 DUP1 CALLDATASIZE SUB DUP2 ADD SWAP1 PUSH2 0x25B SWAP2 SWAP1 PUSH2 0x28A9 JUMP JUMPDEST PUSH2 0x78C JUMP JUMPDEST PUSH1 0x40 MLOAD PUSH2 0x26D SWAP2 SWAP1 PUSH2 0x296F JUMP JUMPDEST PUSH1 0x40 MLOAD DUP1 SWAP2 SUB SWAP1 RETURN JUMPDEST PUSH2 0x27E PUSH2 0x820 JUMP JUMPDEST PUSH1 0x40 MLOAD PUSH2 0x28B SWAP2 SWAP1 PUSH2 0x2759 JUMP JUMPDEST PUSH1 0x40 MLOAD DUP1 SWAP2 SUB SWAP1 RETURN JUMPDEST PUSH2 0x29C PUSH2 0x826 JUMP JUMPDEST PUSH1 0x40 MLOAD PUSH2 0x2A9 SWAP2 SWAP1 PUSH2 0x2759 JUMP JUMPDEST PUSH1 0x40 MLOAD DUP1 SWAP2 SUB SWAP1 RETURN JUMPDEST PUSH2 0x2BA PUSH2 0x82C JUMP JUMPDEST PUSH1 0x40 MLOAD PUSH2 0x2C7 SWAP2 SWAP1 PUSH2 0x29AD JUMP JUMPDEST PUSH1 0x40 MLOAD DUP1 SWAP2 SUB SWAP1 RETURN JUMPDEST PUSH2 0x2EA PUSH1 0x4 DUP1 CALLDATASIZE SUB DUP2 ADD SWAP1 PUSH2 0x2E5 SWAP2 SWAP1 PUSH2 0x2AFD JUMP JUMPDEST PUSH2 0x83F JUMP JUMPDEST STOP JUMPDEST PUSH2 0x2F4 PUSH2 0xB8B JUMP JUMPDEST PUSH1 0x40 MLOAD PUSH2 0x301 SWAP2 SWAP1 PUSH2 0x2759 JUMP JUMPDEST PUSH1 0x40 MLOAD DUP1 SWAP2 SUB SWAP1 RETURN JUMPDEST PUSH2 0x324 PUSH1 0x4 DUP1 CALLDATASIZE SUB DUP2 ADD SWAP1 PUSH2 0x31F SWAP2 SWAP1 PUSH2 0x2C6E JUMP JUMPDEST PUSH2 0xB91 JUMP JUMPDEST STOP JUMPDEST PUSH2 0x32E PUSH2 0xC32 JUMP JUMPDEST PUSH1 0x40 MLOAD PUSH2 0x33B SWAP2 SWAP1 PUSH2 0x2759 JUMP JUMPDEST PUSH1 0x40 MLOAD DUP1 SWAP2 SUB SWAP1 RETURN JUMPDEST PUSH2 0x35E PUSH1 0x4 DUP1 CALLDATASIZE SUB DUP2 ADD SWAP1 PUSH2 0x359 SWAP2 SWAP1 PUSH2 0x2D3D JUMP JUMPDEST PUSH2 0xC38 JUMP JUMPDEST STOP JUMPDEST PUSH2 0x37A PUSH1 0x4 DUP1 CALLDATASIZE SUB DUP2 ADD SWAP1 PUSH2 0x375 SWAP2 SWAP1 PUSH2 0x2D90 JUMP JUMPDEST PUSH2 0xF27 JUMP JUMPDEST PUSH1 0x40 MLOAD PUSH2 0x387 SWAP2 SWAP1 PUSH2 0x2759 JUMP JUMPDEST PUSH1 0x40 MLOAD DUP1 SWAP2 SUB SWAP1 RETURN JUMPDEST PUSH2 0x398 PUSH2 0xF4C JUMP JUMPDEST PUSH1 0x40 MLOAD PUSH2 0x3A7 SWAP4 SWAP3 SWAP2 SWAP1 PUSH2 0x2DD0 JUMP JUMPDEST PUSH1 0x40 MLOAD DUP1 SWAP2 SUB SWAP1 RETURN JUMPDEST PUSH2 0x3B8 PUSH2 0xF63 JUMP JUMPDEST PUSH1 0x40 MLOAD PUSH2 0x3C5 SWAP2 SWAP1 PUSH2 0x29AD JUMP JUMPDEST PUSH1 0x40 MLOAD DUP1 SWAP2 SUB SWAP1 RETURN JUMPDEST PUSH2 0x3E8 PUSH1 0x4 DUP1 CALLDATASIZE SUB DUP2 ADD SWAP1 PUSH2 0x3E3 SWAP2 SWAP1 PUSH2 0x2ECA JUMP JUMPDEST PUSH2 0xF76 JUMP JUMPDEST PUSH1 0x40 MLOAD PUSH2 0x3F5 SWAP2 SWAP1 PUSH2 0x3000 JUMP JUMPDEST PUSH1 0x40 MLOAD DUP1 SWAP2 SUB SWAP1 RETURN JUMPDEST PUSH2 0x418 PUSH1 0x4 DUP1 CALLDATASIZE SUB DUP2 ADD SWAP1 PUSH2 0x413 SWAP2 SWAP1 PUSH2 0x28A9 JUMP JUMPDEST PUSH2 0x108F JUMP JUMPDEST PUSH1 0x40 MLOAD PUSH2 0x425 SWAP2 SWAP1 PUSH2 0x2759 JUMP JUMPDEST PUSH1 0x40 MLOAD DUP1 SWAP2 SUB SWAP1 RETURN JUMPDEST PUSH2 0x448 PUSH1 0x4 DUP1 CALLDATASIZE SUB DUP2 ADD SWAP1 PUSH2 0x443 SWAP2 SWAP1 PUSH2 0x2AFD JUMP JUMPDEST PUSH2 0x10B3 JUMP JUMPDEST STOP JUMPDEST PUSH2 0x452 PUSH2 0x119A JUMP JUMPDEST PUSH1 0x40 MLOAD PUSH2 0x45F SWAP2 SWAP1 PUSH2 0x3031 JUMP JUMPDEST PUSH1 0x40 MLOAD DUP1 SWAP2 SUB SWAP1 RETURN JUMPDEST PUSH2 0x470 PUSH2 0x11C0 JUMP JUMPDEST PUSH1 0x40 MLOAD PUSH2 0x47D SWAP2 SWAP1 PUSH2 0x3031 JUMP JUMPDEST PUSH1 0x40 MLOAD DUP1 SWAP2 SUB SWAP1 RETURN JUMPDEST PUSH2 0x4A0 PUSH1 0x4 DUP1 CALLDATASIZE SUB DUP2 ADD SWAP1 PUSH2 0x49B SWAP2 SWAP1 PUSH2 0x28A9 JUMP JUMPDEST PUSH2 0x11E6 JUMP JUMPDEST PUSH1 0x40 MLOAD PUSH2 0x4AE SWAP3 SWAP2 SWAP1 PUSH2 0x304C JUMP JUMPDEST PUSH1 0x40 MLOAD DUP1 SWAP2 SUB SWAP1 RETURN JUMPDEST PUSH2 0x4D1 PUSH1 0x4 DUP1 CALLDATASIZE SUB DUP2 ADD SWAP1 PUSH2 0x4CC SWAP2 SWAP1 PUSH2 0x30A1 JUMP JUMPDEST PUSH2 0x1240 JUMP JUMPDEST STOP JUMPDEST PUSH2 0x4ED PUSH1 0x4 DUP1 CALLDATASIZE SUB DUP2 ADD SWAP1 PUSH2 0x4E8 SWAP2 SWAP1 PUSH2 0x28A9 JUMP JUMPDEST PUSH2 0x1256 JUMP JUMPDEST PUSH1 0x40 MLOAD PUSH2 0x4FA SWAP2 SWAP1 PUSH2 0x2759 JUMP JUMPDEST PUSH1 0x40 MLOAD DUP1 SWAP2 SUB SWAP1 RETURN JUMPDEST PUSH2 0x50B PUSH2 0x1273 JUMP JUMPDEST PUSH1 0x40 MLOAD PUSH2 0x518 SWAP2 SWAP1 PUSH2 0x2814 JUMP JUMPDEST PUSH1 0x40 MLOAD DUP1 SWAP2 SUB SWAP1 RETURN JUMPDEST PUSH2 0x53B PUSH1 0x4 DUP1 CALLDATASIZE SUB DUP2 ADD SWAP1 PUSH2 0x536 SWAP2 SWAP1 PUSH2 0x30E1 JUMP JUMPDEST PUSH2 0x1286 JUMP JUMPDEST PUSH1 0x40 MLOAD PUSH2 0x548 SWAP2 SWAP1 PUSH2 0x2759 JUMP JUMPDEST PUSH1 0x40 MLOAD DUP1 SWAP2 SUB SWAP1 RETURN JUMPDEST PUSH2 0x56B PUSH1 0x4 DUP1 CALLDATASIZE SUB DUP2 ADD SWAP1 PUSH2 0x566 SWAP2 SWAP1 PUSH2 0x2D90 JUMP JUMPDEST PUSH2 0x132B JUMP JUMPDEST PUSH1 0x40 MLOAD PUSH2 0x578 SWAP2 SWAP1 PUSH2 0x2814 JUMP JUMPDEST PUSH1 0x40 MLOAD DUP1 SWAP2 SUB SWAP1 RETURN JUMPDEST PUSH2 0x59B PUSH1 0x4 DUP1 CALLDATASIZE SUB DUP2 ADD SWAP1 PUSH2 0x596 SWAP2 SWAP1 PUSH2 0x310E JUMP JUMPDEST PUSH2 0x13BF JUMP JUMPDEST STOP JUMPDEST PUSH2 0x5A5 PUSH2 0x1460 JUMP JUMPDEST PUSH1 0x40 MLOAD PUSH2 0x5B2 SWAP2 SWAP1 PUSH2 0x2759 JUMP JUMPDEST PUSH1 0x40 MLOAD DUP1 SWAP2 SUB SWAP1 RETURN JUMPDEST PUSH1 0x0 DUP1 PUSH20 0xFFFFFFFFFFFFFFFFFFFFFFFFFFFFFFFFFFFFFFFF AND DUP4 PUSH20 0xFFFFFFFFFFFFFFFFFFFFFFFFFFFFFFFFFFFFFFFF AND EQ ISZERO PUSH2 0x62C JUMPI PUSH1 0x40 MLOAD PUSH32 0x8C379A000000000000000000000000000000000000000000000000000000000 DUP2 MSTORE PUSH1 0x4 ADD PUSH2 0x623 SWAP1 PUSH2 0x3217 JUMP JUMPDEST PUSH1 0x40 MLOAD DUP1 SWAP2 SUB SWAP1 REVERT JUMPDEST PUSH1 0x0 DUP1 DUP4 DUP2 MSTORE PUSH1 0x20 ADD SWAP1 DUP2 MSTORE PUSH1 0x20 ADD PUSH1 0x0 KECCAK256 PUSH1 0x0 DUP5 PUSH20 0xFFFFFFFFFFFFFFFFFFFFFFFFFFFFFFFFFFFFFFFF AND PUSH20 0xFFFFFFFFFFFFFFFFFFFFFFFFFFFFFFFFFFFFFFFF AND DUP2 MSTORE PUSH1 0x20 ADD SWAP1 DUP2 MSTORE PUSH1 0x20 ADD PUSH1 0x0 KECCAK256 SLOAD SWAP1 POP SWAP3 SWAP2 POP POP JUMP JUMPDEST PUSH1 0x0 PUSH32 0xD9B67A2600000000000000000000000000000000000000000000000000000000 PUSH28 0xFFFFFFFFFFFFFFFFFFFFFFFFFFFFFFFFFFFFFFFFFFFFFFFFFFFFFFFF NOT AND DUP3 PUSH28 0xFFFFFFFFFFFFFFFFFFFFFFFFFFFFFFFFFFFFFFFFFFFFFFFFFFFFFFFF NOT AND EQ DUP1 PUSH2 0x74F JUMPI POP PUSH32 0xE89341C00000000000000000000000000000000000000000000000000000000 PUSH28 0xFFFFFFFFFFFFFFFFFFFFFFFFFFFFFFFFFFFFFFFFFFFFFFFFFFFFFFFF NOT AND DUP3 PUSH28 0xFFFFFFFFFFFFFFFFFFFFFFFFFFFFFFFFFFFFFFFFFFFFFFFFFFFFFFFF NOT AND EQ JUMPDEST DUP1 PUSH2 0x75F JUMPI POP PUSH2 0x75E DUP3 PUSH2 0x1488 JUMP JUMPDEST JUMPDEST SWAP1 POP SWAP2 SWAP1 POP JUMP JUMPDEST PUSH1 0xC PUSH1 0x0 SWAP1 SLOAD SWAP1 PUSH2 0x100 EXP SWAP1 DIV PUSH20 0xFFFFFFFFFFFFFFFFFFFFFFFFFFFFFFFFFFFFFFFF AND DUP2 JUMP JUMPDEST PUSH1 0x60 PUSH1 0x2 DUP1 SLOAD PUSH2 0x79B SWAP1 PUSH2 0x3266 JUMP JUMPDEST DUP1 PUSH1 0x1F ADD PUSH1 0x20 DUP1 SWAP2 DIV MUL PUSH1 0x20 ADD PUSH1 0x40 MLOAD SWAP1 DUP2 ADD PUSH1 0x40 MSTORE DUP1 SWAP3 SWAP2 SWAP1 DUP2 DUP2 MSTORE PUSH1 0x20 ADD DUP3 DUP1 SLOAD PUSH2 0x7C7 SWAP1 PUSH2 0x3266 JUMP JUMPDEST DUP1 ISZERO PUSH2 0x814 JUMPI DUP1 PUSH1 0x1F LT PUSH2 0x7E9 JUMPI PUSH2 0x100 DUP1 DUP4 SLOAD DIV MUL DUP4 MSTORE SWAP2 PUSH1 0x20 ADD SWAP2 PUSH2 0x814 JUMP JUMPDEST DUP3 ADD SWAP2 SWAP1 PUSH1 0x0 MSTORE PUSH1 0x20 PUSH1 0x0 KECCAK256 SWAP1 JUMPDEST DUP2 SLOAD DUP2 MSTORE SWAP1 PUSH1 0x1 ADD SWAP1 PUSH1 0x20 ADD DUP1 DUP4 GT PUSH2 0x7F7 JUMPI DUP3 SWAP1 SUB PUSH1 0x1F AND DUP3 ADD SWAP2 JUMPDEST POP POP POP POP POP SWAP1 POP SWAP2 SWAP1 POP JUMP JUMPDEST PUSH1 0x5 SLOAD DUP2 JUMP JUMPDEST PUSH1 0xB SLOAD DUP2 JUMP JUMPDEST PUSH1 0x6 PUSH1 0x1 SWAP1 SLOAD SWAP1 PUSH2 0x100 EXP SWAP1 DIV PUSH1 0x0 SIGNEXTEND DUP2 JUMP JUMPDEST TIMESTAMP PUSH1 0x8 SLOAD GT PUSH2 0x883 JUMPI PUSH1 0x40 MLOAD PUSH32 0x8C379A000000000000000000000000000000000000000000000000000000000 DUP2 MSTORE PUSH1 0x4 ADD PUSH2 0x87A SWAP1 PUSH2 0x32E4 JUMP JUMPDEST PUSH1 0x40 MLOAD DUP1 SWAP2 SUB SWAP1 REVERT JUMPDEST PUSH1 0x0 PUSH2 0x88D PUSH2 0x14F2 JUMP JUMPDEST SWAP1 POP DUP1 PUSH20 0xFFFFFFFFFFFFFFFFFFFFFFFFFFFFFFFFFFFFFFFF AND DUP8 PUSH20 0xFFFFFFFFFFFFFFFFFFFFFFFFFFFFFFFFFFFFFFFF AND EQ DUP1 PUSH2 0x8CF JUMPI POP PUSH2 0x8CE DUP8 DUP3 PUSH2 0x132B JUMP JUMPDEST JUMPDEST PUSH2 0x90E JUMPI PUSH1 0x40 MLOAD PUSH32 0x8C379A000000000000000000000000000000000000000000000000000000000 DUP2 MSTORE PUSH1 0x4 ADD PUSH2 0x905 SWAP1 PUSH2 0x3376 JUMP JUMPDEST PUSH1 0x40 MLOAD DUP1 SWAP2 SUB SWAP1 REVERT JUMPDEST PUSH1 0x0 PUSH20 0xFFFFFFFFFFFFFFFFFFFFFFFFFFFFFFFFFFFFFFFF AND DUP7 PUSH20 0xFFFFFFFFFFFFFFFFFFFFFFFFFFFFFFFFFFFFFFFF AND EQ ISZERO PUSH2 0x97E JUMPI PUSH1 0x40 MLOAD PUSH32 0x8C379A000000000000000000000000000000000000000000000000000000000 DUP2 MSTORE PUSH1 0x4 ADD PUSH2 0x975 SWAP1 PUSH2 0x3408 JUMP JUMPDEST PUSH1 0x40 MLOAD DUP1 SWAP2 SUB SWAP1 REVERT JUMPDEST PUSH1 0xD PUSH1 0x0 DUP8 PUSH20 0xFFFFFFFFFFFFFFFFFFFFFFFFFFFFFFFFFFFFFFFF AND PUSH20 0xFFFFFFFFFFFFFFFFFFFFFFFFFFFFFFFFFFFFFFFF AND DUP2 MSTORE PUSH1 0x20 ADD SWAP1 DUP2 MSTORE PUSH1 0x20 ADD PUSH1 0x0 KECCAK256 PUSH1 0x0 DUP3 PUSH20 0xFFFFFFFFFFFFFFFFFFFFFFFFFFFFFFFFFFFFFFFF AND PUSH20 0xFFFFFFFFFFFFFFFFFFFFFFFFFFFFFFFFFFFFFFFF AND DUP2 MSTORE PUSH1 0x20 ADD SWAP1 DUP2 MSTORE PUSH1 0x20 ADD PUSH1 0x0 KECCAK256 SLOAD DUP5 GT ISZERO PUSH2 0xA3D JUMPI PUSH1 0x40 MLOAD PUSH32 0x8C379A000000000000000000000000000000000000000000000000000000000 DUP2 MSTORE PUSH1 0x4 ADD PUSH2 0xA34 SWAP1 PUSH2 0x34C0 JUMP JUMPDEST PUSH1 0x40 MLOAD DUP1 SWAP2 SUB SWAP1 REVERT JUMPDEST PUSH1 0xC PUSH1 0x0 SWAP1 SLOAD SWAP1 PUSH2 0x100 EXP SWAP1 DIV PUSH20 0xFFFFFFFFFFFFFFFFFFFFFFFFFFFFFFFFFFFFFFFF AND PUSH20 0xFFFFFFFFFFFFFFFFFFFFFFFFFFFFFFFFFFFFFFFF AND PUSH4 0xCFCD733E DUP9 DUP10 DUP10 DUP8 PUSH1 0x40 MLOAD DUP6 PUSH4 0xFFFFFFFF AND PUSH1 0xE0 SHL DUP2 MSTORE PUSH1 0x4 ADD PUSH2 0xA9E SWAP5 SWAP4 SWAP3 SWAP2 SWAP1 PUSH2 0x34E0 JUMP JUMPDEST PUSH1 0x20 PUSH1 0x40 MLOAD DUP1 DUP4 SUB DUP2 PUSH1 0x0 DUP8 GAS CALL ISZERO DUP1 ISZERO PUSH2 0xABD JUMPI RETURNDATASIZE PUSH1 0x0 DUP1 RETURNDATACOPY RETURNDATASIZE PUSH1 0x0 REVERT JUMPDEST POP POP POP POP PUSH1 0x40 MLOAD RETURNDATASIZE PUSH1 0x1F NOT PUSH1 0x1F DUP3 ADD AND DUP3 ADD DUP1 PUSH1 0x40 MSTORE POP DUP2 ADD SWAP1 PUSH2 0xAE1 SWAP2 SWAP1 PUSH2 0x353A JUMP JUMPDEST POP DUP4 PUSH1 0xD PUSH1 0x0 DUP9 PUSH20 0xFFFFFFFFFFFFFFFFFFFFFFFFFFFFFFFFFFFFFFFF AND PUSH20 0xFFFFFFFFFFFFFFFFFFFFFFFFFFFFFFFFFFFFFFFF AND DUP2 MSTORE PUSH1 0x20 ADD SWAP1 DUP2 MSTORE PUSH1 0x20 ADD PUSH1 0x0 KECCAK256 PUSH1 0x0 DUP4 PUSH20 0xFFFFFFFFFFFFFFFFFFFFFFFFFFFFFFFFFFFFFFFF AND PUSH20 0xFFFFFFFFFFFFFFFFFFFFFFFFFFFFFFFFFFFFFFFF AND DUP2 MSTORE PUSH1 0x20 ADD SWAP1 DUP2 MSTORE PUSH1 0x20 ADD PUSH1 0x0 KECCAK256 PUSH1 0x0 DUP3 DUP3 SLOAD PUSH2 0xB6E SWAP2 SWAP1 PUSH2 0x3596 JUMP JUMPDEST SWAP3 POP POP DUP2 SWAP1 SSTORE POP PUSH2 0xB82 DUP8 DUP8 DUP8 DUP8 DUP7 PUSH2 0x14FA JUMP JUMPDEST POP POP POP POP POP POP POP JUMP JUMPDEST PUSH1 0x7 SLOAD DUP2 JUMP JUMPDEST PUSH2 0xB99 PUSH2 0x14F2 JUMP JUMPDEST PUSH20 0xFFFFFFFFFFFFFFFFFFFFFFFFFFFFFFFFFFFFFFFF AND DUP6 PUSH20 0xFFFFFFFFFFFFFFFFFFFFFFFFFFFFFFFFFFFFFFFF AND EQ DUP1 PUSH2 0xBDF JUMPI POP PUSH2 0xBDE DUP6 PUSH2 0xBD9 PUSH2 0x14F2 JUMP JUMPDEST PUSH2 0x132B JUMP JUMPDEST JUMPDEST PUSH2 0xC1E JUMPI PUSH1 0x40 MLOAD PUSH32 0x8C379A000000000000000000000000000000000000000000000000000000000 DUP2 MSTORE PUSH1 0x4 ADD PUSH2 0xC15 SWAP1 PUSH2 0x363C JUMP JUMPDEST PUSH1 0x40 MLOAD DUP1 SWAP2 SUB SWAP1 REVERT JUMPDEST PUSH2 0xC2B DUP6 DUP6 DUP6 DUP6 DUP6 PUSH2 0x177C JUMP JUMPDEST POP POP POP POP POP JUMP JUMPDEST PUSH1 0x8 SLOAD DUP2 JUMP JUMPDEST TIMESTAMP PUSH1 0x8 SLOAD GT PUSH2 0xC7C JUMPI PUSH1 0x40 MLOAD PUSH32 0x8C379A000000000000000000000000000000000000000000000000000000000 DUP2 MSTORE PUSH1 0x4 ADD PUSH2 0xC73 SWAP1 PUSH2 0x32E4 JUMP JUMPDEST PUSH1 0x40 MLOAD DUP1 SWAP2 SUB SWAP1 REVERT JUMPDEST PUSH1 0x0 PUSH2 0xC86 PUSH2 0x14F2 JUMP JUMPDEST SWAP1 POP DUP4 PUSH20 0xFFFFFFFFFFFFFFFFFFFFFFFFFFFFFFFFFFFFFFFF AND DUP2 PUSH20 0xFFFFFFFFFFFFFFFFFFFFFFFFFFFFFFFFFFFFFFFF AND EQ ISZERO PUSH2 0xCF7 JUMPI PUSH1 0x40 MLOAD PUSH32 0x8C379A000000000000000000000000000000000000000000000000000000000 DUP2 MSTORE PUSH1 0x4 ADD PUSH2 0xCEE SWAP1 PUSH2 0x36CE JUMP JUMPDEST PUSH1 0x40 MLOAD DUP1 SWAP2 SUB SWAP1 REVERT JUMPDEST PUSH1 0xC PUSH1 0x0 SWAP1 SLOAD SWAP1 PUSH2 0x100 EXP SWAP1 DIV PUSH20 0xFFFFFFFFFFFFFFFFFFFFFFFFFFFFFFFFFFFFFFFF AND PUSH20 0xFFFFFFFFFFFFFFFFFFFFFFFFFFFFFFFFFFFFFFFF AND PUSH4 0xB8702A70 DUP3 DUP7 DUP6 PUSH1 0x40 MLOAD DUP5 PUSH4 0xFFFFFFFF AND PUSH1 0xE0 SHL DUP2 MSTORE PUSH1 0x4 ADD PUSH2 0xD56 SWAP4 SWAP3 SWAP2 SWAP1 PUSH2 0x36EE JUMP JUMPDEST PUSH1 0x20 PUSH1 0x40 MLOAD DUP1 DUP4 SUB DUP2 PUSH1 0x0 DUP8 GAS CALL ISZERO DUP1 ISZERO PUSH2 0xD75 JUMPI RETURNDATASIZE PUSH1 0x0 DUP1 RETURNDATACOPY RETURNDATASIZE PUSH1 0x0 REVERT JUMPDEST POP POP POP POP PUSH1 0x40 MLOAD RETURNDATASIZE PUSH1 0x1F NOT PUSH1 0x1F DUP3 ADD AND DUP3 ADD DUP1 PUSH1 0x40 MSTORE POP DUP2 ADD SWAP1 PUSH2 0xD99 SWAP2 SWAP1 PUSH2 0x353A JUMP JUMPDEST POP DUP3 PUSH1 0xD PUSH1 0x0 DUP4 PUSH20 0xFFFFFFFFFFFFFFFFFFFFFFFFFFFFFFFFFFFFFFFF AND PUSH20 0xFFFFFFFFFFFFFFFFFFFFFFFFFFFFFFFFFFFFFFFF AND DUP2 MSTORE PUSH1 0x20 ADD SWAP1 DUP2 MSTORE PUSH1 0x20 ADD PUSH1 0x0 KECCAK256 PUSH1 0x0 DUP7 PUSH20 0xFFFFFFFFFFFFFFFFFFFFFFFFFFFFFFFFFFFFFFFF AND PUSH20 0xFFFFFFFFFFFFFFFFFFFFFFFFFFFFFFFFFFFFFFFF AND DUP2 MSTORE PUSH1 0x20 ADD SWAP1 DUP2 MSTORE PUSH1 0x20 ADD PUSH1 0x0 KECCAK256 DUP2 SWAP1 SSTORE POP PUSH2 0xE27 DUP2 DUP6 PUSH1 0x1 PUSH2 0x1A90 JUMP JUMPDEST PUSH1 0x1 DUP1 PUSH1 0x0 DUP4 PUSH20 0xFFFFFFFFFFFFFFFFFFFFFFFFFFFFFFFFFFFFFFFF AND PUSH20 0xFFFFFFFFFFFFFFFFFFFFFFFFFFFFFFFFFFFFFFFF AND DUP2 MSTORE PUSH1 0x20 ADD SWAP1 DUP2 MSTORE PUSH1 0x20 ADD PUSH1 0x0 KECCAK256 PUSH1 0x0 DUP7 PUSH20 0xFFFFFFFFFFFFFFFFFFFFFFFFFFFFFFFFFFFFFFFF AND PUSH20 0xFFFFFFFFFFFFFFFFFFFFFFFFFFFFFFFFFFFFFFFF AND DUP2 MSTORE PUSH1 0x20 ADD SWAP1 DUP2 MSTORE PUSH1 0x20 ADD PUSH1 0x0 KECCAK256 PUSH1 0x0 PUSH2 0x100 EXP DUP2 SLOAD DUP2 PUSH1 0xFF MUL NOT AND SWAP1 DUP4 ISZERO ISZERO MUL OR SWAP1 SSTORE POP DUP4 PUSH20 0xFFFFFFFFFFFFFFFFFFFFFFFFFFFFFFFFFFFFFFFF AND DUP2 PUSH20 0xFFFFFFFFFFFFFFFFFFFFFFFFFFFFFFFFFFFFFFFF AND PUSH32 0x17307EAB39AB6107E8899845AD3D59BD9653F200F220920489CA2B5937696C31 PUSH1 0x1 PUSH1 0x40 MLOAD PUSH2 0xF19 SWAP2 SWAP1 PUSH2 0x2814 JUMP JUMPDEST PUSH1 0x40 MLOAD DUP1 SWAP2 SUB SWAP1 LOG3 POP POP POP POP JUMP JUMPDEST PUSH1 0xD PUSH1 0x20 MSTORE DUP2 PUSH1 0x0 MSTORE PUSH1 0x40 PUSH1 0x0 KECCAK256 PUSH1 0x20 MSTORE DUP1 PUSH1 0x0 MSTORE PUSH1 0x40 PUSH1 0x0 KECCAK256 PUSH1 0x0 SWAP2 POP SWAP2 POP POP SLOAD DUP2 JUMP JUMPDEST PUSH1 0x0 DUP1 PUSH1 0x0 PUSH1 0x8 SLOAD PUSH1 0x7 SLOAD TIMESTAMP SWAP3 POP SWAP3 POP SWAP3 POP SWAP1 SWAP2 SWAP3 JUMP JUMPDEST PUSH1 0x6 PUSH1 0x0 SWAP1 SLOAD SWAP1 PUSH2 0x100 EXP SWAP1 DIV PUSH1 0x0 SIGNEXTEND DUP2 JUMP JUMPDEST PUSH1 0x60 DUP2 MLOAD DUP4 MLOAD EQ PUSH2 0xFBC JUMPI PUSH1 0x40 MLOAD PUSH32 0x8C379A000000000000000000000000000000000000000000000000000000000 DUP2 MSTORE PUSH1 0x4 ADD PUSH2 0xFB3 SWAP1 PUSH2 0x3797 JUMP JUMPDEST PUSH1 0x40 MLOAD DUP1 SWAP2 SUB SWAP1 REVERT JUMPDEST PUSH1 0x0 DUP4 MLOAD PUSH8 0xFFFFFFFFFFFFFFFF DUP2 GT ISZERO PUSH2 0xFD9 JUMPI PUSH2 0xFD8 PUSH2 0x29D2 JUMP JUMPDEST JUMPDEST PUSH1 0x40 MLOAD SWAP1 DUP1 DUP3 MSTORE DUP1 PUSH1 0x20 MUL PUSH1 0x20 ADD DUP3 ADD PUSH1 0x40 MSTORE DUP1 ISZERO PUSH2 0x1007 JUMPI DUP2 PUSH1 0x20 ADD PUSH1 0x20 DUP3 MUL DUP1 CALLDATASIZE DUP4 CALLDATACOPY DUP1 DUP3 ADD SWAP2 POP POP SWAP1 POP JUMPDEST POP SWAP1 POP PUSH1 0x0 JUMPDEST DUP5 MLOAD DUP2 LT ISZERO PUSH2 0x1084 JUMPI PUSH2 0x1054 DUP6 DUP3 DUP2 MLOAD DUP2 LT PUSH2 0x102C JUMPI PUSH2 0x102B PUSH2 0x37B7 JUMP JUMPDEST JUMPDEST PUSH1 0x20 MUL PUSH1 0x20 ADD ADD MLOAD DUP6 DUP4 DUP2 MLOAD DUP2 LT PUSH2 0x1047 JUMPI PUSH2 0x1046 PUSH2 0x37B7 JUMP JUMPDEST JUMPDEST PUSH1 0x20 MUL PUSH1 0x20 ADD ADD MLOAD PUSH2 0x5BB JUMP JUMPDEST DUP3 DUP3 DUP2 MLOAD DUP2 LT PUSH2 0x1067 JUMPI PUSH2 0x1066 PUSH2 0x37B7 JUMP JUMPDEST JUMPDEST PUSH1 0x20 MUL PUSH1 0x20 ADD ADD DUP2 DUP2 MSTORE POP POP DUP1 PUSH2 0x107D SWAP1 PUSH2 0x37E6 JUMP JUMPDEST SWAP1 POP PUSH2 0x100D JUMP JUMPDEST POP DUP1 SWAP2 POP POP SWAP3 SWAP2 POP POP JUMP JUMPDEST PUSH1 0xA DUP2 DUP2 SLOAD DUP2 LT PUSH2 0x109F JUMPI PUSH1 0x0 DUP1 REVERT JUMPDEST SWAP1 PUSH1 0x0 MSTORE PUSH1 0x20 PUSH1 0x0 KECCAK256 ADD PUSH1 0x0 SWAP2 POP SWAP1 POP SLOAD DUP2 JUMP JUMPDEST TIMESTAMP PUSH1 0x8 SLOAD GT PUSH2 0x10F7 JUMPI PUSH1 0x40 MLOAD PUSH32 0x8C379A000000000000000000000000000000000000000000000000000000000 DUP2 MSTORE PUSH1 0x4 ADD PUSH2 0x10EE SWAP1 PUSH2 0x32E4 JUMP JUMPDEST PUSH1 0x40 MLOAD DUP1 SWAP2 SUB SWAP1 REVERT JUMPDEST PUSH2 0x10FF PUSH2 0x14F2 JUMP JUMPDEST PUSH20 0xFFFFFFFFFFFFFFFFFFFFFFFFFFFFFFFFFFFFFFFF AND DUP7 PUSH20 0xFFFFFFFFFFFFFFFFFFFFFFFFFFFFFFFFFFFFFFFF AND EQ DUP1 PUSH2 0x1145 JUMPI POP PUSH2 0x1144 DUP7 PUSH2 0x113F PUSH2 0x14F2 JUMP JUMPDEST PUSH2 0x132B JUMP JUMPDEST JUMPDEST PUSH2 0x1184 JUMPI PUSH1 0x40 MLOAD PUSH32 0x8C379A000000000000000000000000000000000000000000000000000000000 DUP2 MSTORE PUSH1 0x4 ADD PUSH2 0x117B SWAP1 PUSH2 0x3376 JUMP JUMPDEST PUSH1 0x40 MLOAD DUP1 SWAP2 SUB SWAP1 REVERT JUMPDEST PUSH2 0x1192 DUP7 DUP7 DUP7 DUP7 DUP7 DUP7 PUSH2 0x1BFD JUMP JUMPDEST POP POP POP POP POP POP JUMP JUMPDEST PUSH1 0x3 PUSH1 0x0 SWAP1 SLOAD SWAP1 PUSH2 0x100 EXP SWAP1 DIV PUSH20 0xFFFFFFFFFFFFFFFFFFFFFFFFFFFFFFFFFFFFFFFF AND DUP2 JUMP JUMPDEST PUSH1 0x4 PUSH1 0x0 SWAP1 SLOAD SWAP1 PUSH2 0x100 EXP SWAP1 DIV PUSH20 0xFFFFFFFFFFFFFFFFFFFFFFFFFFFFFFFFFFFFFFFF AND DUP2 JUMP JUMPDEST PUSH1 0x0 DUP1 PUSH1 0xE PUSH1 0x0 DUP5 DUP2 MSTORE PUSH1 0x20 ADD SWAP1 DUP2 MSTORE PUSH1 0x20 ADD PUSH1 0x0 KECCAK256 PUSH1 0x1 ADD PUSH1 0x0 SWAP1 SLOAD SWAP1 PUSH2 0x100 EXP SWAP1 DIV PUSH20 0xFFFFFFFFFFFFFFFFFFFFFFFFFFFFFFFFFFFFFFFF AND PUSH1 0xE PUSH1 0x0 DUP6 DUP2 MSTORE PUSH1 0x20 ADD SWAP1 DUP2 MSTORE PUSH1 0x20 ADD PUSH1 0x0 KECCAK256 PUSH1 0x0 ADD SLOAD SWAP2 POP SWAP2 POP SWAP2 POP SWAP2 JUMP JUMPDEST PUSH2 0x1252 PUSH2 0x124B PUSH2 0x14F2 JUMP JUMPDEST DUP4 DUP4 PUSH2 0x1A90 JUMP JUMPDEST POP POP JUMP JUMPDEST PUSH1 0x0 PUSH1 0xF PUSH1 0x0 DUP4 DUP2 MSTORE PUSH1 0x20 ADD SWAP1 DUP2 MSTORE PUSH1 0x20 ADD PUSH1 0x0 KECCAK256 SLOAD SWAP1 POP SWAP2 SWAP1 POP JUMP JUMPDEST PUSH1 0x9 PUSH1 0x0 SWAP1 SLOAD SWAP1 PUSH2 0x100 EXP SWAP1 DIV PUSH1 0xFF AND DUP2 JUMP JUMPDEST PUSH1 0x0 PUSH1 0xC PUSH1 0x0 SWAP1 SLOAD SWAP1 PUSH2 0x100 EXP SWAP1 DIV PUSH20 0xFFFFFFFFFFFFFFFFFFFFFFFFFFFFFFFFFFFFFFFF AND PUSH20 0xFFFFFFFFFFFFFFFFFFFFFFFFFFFFFFFFFFFFFFFF AND PUSH4 0xA3E85A70 DUP4 PUSH1 0x40 MLOAD DUP3 PUSH4 0xFFFFFFFF AND PUSH1 0xE0 SHL DUP2 MSTORE PUSH1 0x4 ADD PUSH2 0x12E3 SWAP2 SWAP1 PUSH2 0x3031 JUMP JUMPDEST PUSH1 0x20 PUSH1 0x40 MLOAD DUP1 DUP4 SUB DUP2 DUP7 GAS STATICCALL ISZERO DUP1 ISZERO PUSH2 0x1300 JUMPI RETURNDATASIZE PUSH1 0x0 DUP1 RETURNDATACOPY RETURNDATASIZE PUSH1 0x0 REVERT JUMPDEST POP POP POP POP PUSH1 0x40 MLOAD RETURNDATASIZE PUSH1 0x1F NOT PUSH1 0x1F DUP3 ADD AND DUP3 ADD DUP1 PUSH1 0x40 MSTORE POP DUP2 ADD SWAP1 PUSH2 0x1324 SWAP2 SWAP1 PUSH2 0x3844 JUMP JUMPDEST SWAP1 POP SWAP2 SWAP1 POP JUMP JUMPDEST PUSH1 0x0 PUSH1 0x1 PUSH1 0x0 DUP5 PUSH20 0xFFFFFFFFFFFFFFFFFFFFFFFFFFFFFFFFFFFFFFFF AND PUSH20 0xFFFFFFFFFFFFFFFFFFFFFFFFFFFFFFFFFFFFFFFF AND DUP2 MSTORE PUSH1 0x20 ADD SWAP1 DUP2 MSTORE PUSH1 0x20 ADD PUSH1 0x0 KECCAK256 PUSH1 0x0 DUP4 PUSH20 0xFFFFFFFFFFFFFFFFFFFFFFFFFFFFFFFFFFFFFFFF AND PUSH20 0xFFFFFFFFFFFFFFFFFFFFFFFFFFFFFFFFFFFFFFFF AND DUP2 MSTORE PUSH1 0x20 ADD SWAP1 DUP2 MSTORE PUSH1 0x20 ADD PUSH1 0x0 KECCAK256 PUSH1 0x0 SWAP1 SLOAD SWAP1 PUSH2 0x100 EXP SWAP1 DIV PUSH1 0xFF AND SWAP1 POP SWAP3 SWAP2 POP POP JUMP JUMPDEST PUSH2 0x13C7 PUSH2 0x14F2 JUMP JUMPDEST PUSH20 0xFFFFFFFFFFFFFFFFFFFFFFFFFFFFFFFFFFFFFFFF AND DUP6 PUSH20 0xFFFFFFFFFFFFFFFFFFFFFFFFFFFFFFFFFFFFFFFF AND EQ DUP1 PUSH2 0x140D JUMPI POP PUSH2 0x140C DUP6 PUSH2 0x1407 PUSH2 0x14F2 JUMP JUMPDEST PUSH2 0x132B JUMP JUMPDEST JUMPDEST PUSH2 0x144C JUMPI PUSH1 0x40 MLOAD PUSH32 0x8C379A000000000000000000000000000000000000000000000000000000000 DUP2 MSTORE PUSH1 0x4 ADD PUSH2 0x1443 SWAP1 PUSH2 0x3376 JUMP JUMPDEST PUSH1 0x40 MLOAD DUP1 SWAP2 SUB SWAP1 REVERT JUMPDEST PUSH2 0x1459 DUP6 DUP6 DUP6 DUP6 DUP6 PUSH2 0x14FA JUMP JUMPDEST POP POP POP POP POP JUMP JUMPDEST PUSH1 0x1 DUP2 JUMP JUMPDEST PUSH1 0x0 DUP1 DUP3 PUSH20 0xFFFFFFFFFFFFFFFFFFFFFFFFFFFFFFFFFFFFFFFF AND EXTCODESIZE GT SWAP1 POP SWAP2 SWAP1 POP JUMP JUMPDEST PUSH1 0x0 PUSH32 0x1FFC9A700000000000000000000000000000000000000000000000000000000 PUSH28 0xFFFFFFFFFFFFFFFFFFFFFFFFFFFFFFFFFFFFFFFFFFFFFFFFFFFFFFFF NOT AND DUP3 PUSH28 0xFFFFFFFFFFFFFFFFFFFFFFFFFFFFFFFFFFFFFFFFFFFFFFFFFFFFFFFF NOT AND EQ SWAP1 POP SWAP2 SWAP1 POP JUMP JUMPDEST PUSH1 0x0 CALLER SWAP1 POP SWAP1 JUMP JUMPDEST PUSH1 0x0 PUSH20 0xFFFFFFFFFFFFFFFFFFFFFFFFFFFFFFFFFFFFFFFF AND DUP5 PUSH20 0xFFFFFFFFFFFFFFFFFFFFFFFFFFFFFFFFFFFFFFFF AND EQ ISZERO PUSH2 0x156A JUMPI PUSH1 0x40 MLOAD PUSH32 0x8C379A000000000000000000000000000000000000000000000000000000000 DUP2 MSTORE PUSH1 0x4 ADD PUSH2 0x1561 SWAP1 PUSH2 0x3408 JUMP JUMPDEST PUSH1 0x40 MLOAD DUP1 SWAP2 SUB SWAP1 REVERT JUMPDEST PUSH1 0x0 PUSH2 0x1574 PUSH2 0x14F2 JUMP JUMPDEST SWAP1 POP PUSH2 0x1594 DUP2 DUP8 DUP8 PUSH2 0x1585 DUP9 PUSH2 0x1F5F JUMP JUMPDEST PUSH2 0x158E DUP9 PUSH2 0x1F5F JUMP JUMPDEST DUP8 PUSH2 0x1FD9 JUMP JUMPDEST PUSH1 0x0 DUP1 PUSH1 0x0 DUP7 DUP2 MSTORE PUSH1 0x20 ADD SWAP1 DUP2 MSTORE PUSH1 0x20 ADD PUSH1 0x0 KECCAK256 PUSH1 0x0 DUP9 PUSH20 0xFFFFFFFFFFFFFFFFFFFFFFFFFFFFFFFFFFFFFFFF AND PUSH20 0xFFFFFFFFFFFFFFFFFFFFFFFFFFFFFFFFFFFFFFFF AND DUP2 MSTORE PUSH1 0x20 ADD SWAP1 DUP2 MSTORE PUSH1 0x20 ADD PUSH1 0x0 KECCAK256 SLOAD SWAP1 POP DUP4 DUP2 LT ISZERO PUSH2 0x162B JUMPI PUSH1 0x40 MLOAD PUSH32 0x8C379A000000000000000000000000000000000000000000000000000000000 DUP2 MSTORE PUSH1 0x4 ADD PUSH2 0x1622 SWAP1 PUSH2 0x38E3 JUMP JUMPDEST PUSH1 0x40 MLOAD DUP1 SWAP2 SUB SWAP1 REVERT JUMPDEST DUP4 DUP2 SUB PUSH1 0x0 DUP1 DUP8 DUP2 MSTORE PUSH1 0x20 ADD SWAP1 DUP2 MSTORE PUSH1 0x20 ADD PUSH1 0x0 KECCAK256 PUSH1 0x0 DUP10 PUSH20 0xFFFFFFFFFFFFFFFFFFFFFFFFFFFFFFFFFFFFFFFF AND PUSH20 0xFFFFFFFFFFFFFFFFFFFFFFFFFFFFFFFFFFFFFFFF AND DUP2 MSTORE PUSH1 0x20 ADD SWAP1 DUP2 MSTORE PUSH1 0x20 ADD PUSH1 0x0 KECCAK256 DUP2 SWAP1 SSTORE POP DUP4 PUSH1 0x0 DUP1 DUP8 DUP2 MSTORE PUSH1 0x20 ADD SWAP1 DUP2 MSTORE PUSH1 0x20 ADD PUSH1 0x0 KECCAK256 PUSH1 0x0 DUP9 PUSH20 0xFFFFFFFFFFFFFFFFFFFFFFFFFFFFFFFFFFFFFFFF AND PUSH20 0xFFFFFFFFFFFFFFFFFFFFFFFFFFFFFFFFFFFFFFFF AND DUP2 MSTORE PUSH1 0x20 ADD SWAP1 DUP2 MSTORE PUSH1 0x20 ADD PUSH1 0x0 KECCAK256 PUSH1 0x0 DUP3 DUP3 SLOAD PUSH2 0x16E0 SWAP2 SWAP1 PUSH2 0x3903 JUMP JUMPDEST SWAP3 POP POP DUP2 SWAP1 SSTORE POP DUP6 PUSH20 0xFFFFFFFFFFFFFFFFFFFFFFFFFFFFFFFFFFFFFFFF AND DUP8 PUSH20 0xFFFFFFFFFFFFFFFFFFFFFFFFFFFFFFFFFFFFFFFF AND DUP4 PUSH20 0xFFFFFFFFFFFFFFFFFFFFFFFFFFFFFFFFFFFFFFFF AND PUSH32 0xC3D58168C5AE7397731D063D5BBF3D657854427343F4C083240F7AACAA2D0F62 DUP9 DUP9 PUSH1 0x40 MLOAD PUSH2 0x175D SWAP3 SWAP2 SWAP1 PUSH2 0x3959 JUMP JUMPDEST PUSH1 0x40 MLOAD DUP1 SWAP2 SUB SWAP1 LOG4 PUSH2 0x1773 DUP3 DUP9 DUP9 DUP9 DUP9 DUP9 PUSH2 0x2145 JUMP JUMPDEST POP POP POP POP POP POP POP JUMP JUMPDEST DUP2 MLOAD DUP4 MLOAD EQ PUSH2 0x17C0 JUMPI PUSH1 0x40 MLOAD PUSH32 0x8C379A000000000000000000000000000000000000000000000000000000000 DUP2 MSTORE PUSH1 0x4 ADD PUSH2 0x17B7 SWAP1 PUSH2 0x39F4 JUMP JUMPDEST PUSH1 0x40 MLOAD DUP1 SWAP2 SUB SWAP1 REVERT JUMPDEST PUSH1 0x0 PUSH20 0xFFFFFFFFFFFFFFFFFFFFFFFFFFFFFFFFFFFFFFFF AND DUP5 PUSH20 0xFFFFFFFFFFFFFFFFFFFFFFFFFFFFFFFFFFFFFFFF AND EQ ISZERO PUSH2 0x1830 JUMPI PUSH1 0x40 MLOAD PUSH32 0x8C379A000000000000000000000000000000000000000000000000000000000 DUP2 MSTORE PUSH1 0x4 ADD PUSH2 0x1827 SWAP1 PUSH2 0x3408 JUMP JUMPDEST PUSH1 0x40 MLOAD DUP1 SWAP2 SUB SWAP1 REVERT JUMPDEST PUSH1 0x0 PUSH2 0x183A PUSH2 0x14F2 JUMP JUMPDEST SWAP1 POP PUSH2 0x184A DUP2 DUP8 DUP8 DUP8 DUP8 DUP8 PUSH2 0x1FD9 JUMP JUMPDEST PUSH1 0x0 JUMPDEST DUP5 MLOAD DUP2 LT ISZERO PUSH2 0x19FB JUMPI PUSH1 0x0 DUP6 DUP3 DUP2 MLOAD DUP2 LT PUSH2 0x186B JUMPI PUSH2 0x186A PUSH2 0x37B7 JUMP JUMPDEST JUMPDEST PUSH1 0x20 MUL PUSH1 0x20 ADD ADD MLOAD SWAP1 POP PUSH1 0x0 DUP6 DUP4 DUP2 MLOAD DUP2 LT PUSH2 0x188A JUMPI PUSH2 0x1889 PUSH2 0x37B7 JUMP JUMPDEST JUMPDEST PUSH1 0x20 MUL PUSH1 0x20 ADD ADD MLOAD SWAP1 POP PUSH1 0x0 DUP1 PUSH1 0x0 DUP5 DUP2 MSTORE PUSH1 0x20 ADD SWAP1 DUP2 MSTORE PUSH1 0x20 ADD PUSH1 0x0 KECCAK256 PUSH1 0x0 DUP12 PUSH20 0xFFFFFFFFFFFFFFFFFFFFFFFFFFFFFFFFFFFFFFFF AND PUSH20 0xFFFFFFFFFFFFFFFFFFFFFFFFFFFFFFFFFFFFFFFF AND DUP2 MSTORE PUSH1 0x20 ADD SWAP1 DUP2 MSTORE PUSH1 0x20 ADD PUSH1 0x0 KECCAK256 SLOAD SWAP1 POP DUP2 DUP2 LT ISZERO PUSH2 0x192B JUMPI PUSH1 0x40 MLOAD PUSH32 0x8C379A000000000000000000000000000000000000000000000000000000000 DUP2 MSTORE PUSH1 0x4 ADD PUSH2 0x1922 SWAP1 PUSH2 0x38E3 JUMP JUMPDEST PUSH1 0x40 MLOAD DUP1 SWAP2 SUB SWAP1 REVERT JUMPDEST DUP2 DUP2 SUB PUSH1 0x0 DUP1 DUP6 DUP2 MSTORE PUSH1 0x20 ADD SWAP1 DUP2 MSTORE PUSH1 0x20 ADD PUSH1 0x0 KECCAK256 PUSH1 0x0 DUP13 PUSH20 0xFFFFFFFFFFFFFFFFFFFFFFFFFFFFFFFFFFFFFFFF AND PUSH20 0xFFFFFFFFFFFFFFFFFFFFFFFFFFFFFFFFFFFFFFFF AND DUP2 MSTORE PUSH1 0x20 ADD SWAP1 DUP2 MSTORE PUSH1 0x20 ADD PUSH1 0x0 KECCAK256 DUP2 SWAP1 SSTORE POP DUP2 PUSH1 0x0 DUP1 DUP6 DUP2 MSTORE PUSH1 0x20 ADD SWAP1 DUP2 MSTORE PUSH1 0x20 ADD PUSH1 0x0 KECCAK256 PUSH1 0x0 DUP12 PUSH20 0xFFFFFFFFFFFFFFFFFFFFFFFFFFFFFFFFFFFFFFFF AND PUSH20 0xFFFFFFFFFFFFFFFFFFFFFFFFFFFFFFFFFFFFFFFF AND DUP2 MSTORE PUSH1 0x20 ADD SWAP1 DUP2 MSTORE PUSH1 0x20 ADD PUSH1 0x0 KECCAK256 PUSH1 0x0 DUP3 DUP3 SLOAD PUSH2 0x19E0 SWAP2 SWAP1 PUSH2 0x3903 JUMP JUMPDEST SWAP3 POP POP DUP2 SWAP1 SSTORE POP POP POP POP DUP1 PUSH2 0x19F4 SWAP1 PUSH2 0x37E6 JUMP JUMPDEST SWAP1 POP PUSH2 0x184D JUMP JUMPDEST POP DUP5 PUSH20 0xFFFFFFFFFFFFFFFFFFFFFFFFFFFFFFFFFFFFFFFF AND DUP7 PUSH20 0xFFFFFFFFFFFFFFFFFFFFFFFFFFFFFFFFFFFFFFFF AND DUP3 PUSH20 0xFFFFFFFFFFFFFFFFFFFFFFFFFFFFFFFFFFFFFFFF AND PUSH32 0x4A39DC06D4C0DBC64B70AF90FD698A233A518AA5D07E595D983B8C0526C8F7FB DUP8 DUP8 PUSH1 0x40 MLOAD PUSH2 0x1A72 SWAP3 SWAP2 SWAP1 PUSH2 0x3A14 JUMP JUMPDEST PUSH1 0x40 MLOAD DUP1 SWAP2 SUB SWAP1 LOG4 PUSH2 0x1A88 DUP2 DUP8 DUP8 DUP8 DUP8 DUP8 PUSH2 0x231D JUMP JUMPDEST POP POP POP POP POP POP JUMP JUMPDEST DUP2 PUSH20 0xFFFFFFFFFFFFFFFFFFFFFFFFFFFFFFFFFFFFFFFF AND DUP4 PUSH20 0xFFFFFFFFFFFFFFFFFFFFFFFFFFFFFFFFFFFFFFFF AND EQ ISZERO PUSH2 0x1AFF JUMPI PUSH1 0x40 MLOAD PUSH32 0x8C379A000000000000000000000000000000000000000000000000000000000 DUP2 MSTORE PUSH1 0x4 ADD PUSH2 0x1AF6 SWAP1 PUSH2 0x36CE JUMP JUMPDEST PUSH1 0x40 MLOAD DUP1 SWAP2 SUB SWAP1 REVERT JUMPDEST DUP1 PUSH1 0x1 PUSH1 0x0 DUP6 PUSH20 0xFFFFFFFFFFFFFFFFFFFFFFFFFFFFFFFFFFFFFFFF AND PUSH20 0xFFFFFFFFFFFFFFFFFFFFFFFFFFFFFFFFFFFFFFFF AND DUP2 MSTORE PUSH1 0x20 ADD SWAP1 DUP2 MSTORE PUSH1 0x20 ADD PUSH1 0x0 KECCAK256 PUSH1 0x0 DUP5 PUSH20 0xFFFFFFFFFFFFFFFFFFFFFFFFFFFFFFFFFFFFFFFF AND PUSH20 0xFFFFFFFFFFFFFFFFFFFFFFFFFFFFFFFFFFFFFFFF AND DUP2 MSTORE PUSH1 0x20 ADD SWAP1 DUP2 MSTORE PUSH1 0x20 ADD PUSH1 0x0 KECCAK256 PUSH1 0x0 PUSH2 0x100 EXP DUP2 SLOAD DUP2 PUSH1 0xFF MUL NOT AND SWAP1 DUP4 ISZERO ISZERO MUL OR SWAP1 SSTORE POP DUP2 PUSH20 0xFFFFFFFFFFFFFFFFFFFFFFFFFFFFFFFFFFFFFFFF AND DUP4 PUSH20 0xFFFFFFFFFFFFFFFFFFFFFFFFFFFFFFFFFFFFFFFF AND PUSH32 0x17307EAB39AB6107E8899845AD3D59BD9653F200F220920489CA2B5937696C31 DUP4 PUSH1 0x40 MLOAD PUSH2 0x1BF0 SWAP2 SWAP1 PUSH2 0x2814 JUMP JUMPDEST PUSH1 0x40 MLOAD DUP1 SWAP2 SUB SWAP1 LOG3 POP POP POP JUMP JUMPDEST TIMESTAMP PUSH1 0x8 SLOAD GT PUSH2 0x1C41 JUMPI PUSH1 0x40 MLOAD PUSH32 0x8C379A000000000000000000000000000000000000000000000000000000000 DUP2 MSTORE PUSH1 0x4 ADD PUSH2 0x1C38 SWAP1 PUSH2 0x32E4 JUMP JUMPDEST PUSH1 0x40 MLOAD DUP1 SWAP2 SUB SWAP1 REVERT JUMPDEST PUSH1 0x0 PUSH20 0xFFFFFFFFFFFFFFFFFFFFFFFFFFFFFFFFFFFFFFFF AND DUP6 PUSH20 0xFFFFFFFFFFFFFFFFFFFFFFFFFFFFFFFFFFFFFFFF AND EQ ISZERO PUSH2 0x1CB1 JUMPI PUSH1 0x40 MLOAD PUSH32 0x8C379A000000000000000000000000000000000000000000000000000000000 DUP2 MSTORE PUSH1 0x4 ADD PUSH2 0x1CA8 SWAP1 PUSH2 0x3ABD JUMP JUMPDEST PUSH1 0x40 MLOAD DUP1 SWAP2 SUB SWAP1 REVERT JUMPDEST PUSH1 0x0 PUSH2 0x1CBB PUSH2 0x14F2 JUMP JUMPDEST SWAP1 POP PUSH2 0x1CDB DUP2 DUP9 DUP9 PUSH2 0x1CCC DUP10 PUSH2 0x1F5F JUMP JUMPDEST PUSH2 0x1CD5 DUP10 PUSH2 0x1F5F JUMP JUMPDEST DUP8 PUSH2 0x1FD9 JUMP JUMPDEST PUSH1 0x0 DUP1 PUSH1 0x0 DUP8 DUP2 MSTORE PUSH1 0x20 ADD SWAP1 DUP2 MSTORE PUSH1 0x20 ADD PUSH1 0x0 KECCAK256 PUSH1 0x0 DUP10 PUSH20 0xFFFFFFFFFFFFFFFFFFFFFFFFFFFFFFFFFFFFFFFF AND PUSH20 0xFFFFFFFFFFFFFFFFFFFFFFFFFFFFFFFFFFFFFFFF AND DUP2 MSTORE PUSH1 0x20 ADD SWAP1 DUP2 MSTORE PUSH1 0x20 ADD PUSH1 0x0 KECCAK256 SLOAD SWAP1 POP DUP5 DUP2 LT ISZERO PUSH2 0x1D72 JUMPI PUSH1 0x40 MLOAD PUSH32 0x8C379A000000000000000000000000000000000000000000000000000000000 DUP2 MSTORE PUSH1 0x4 ADD PUSH2 0x1D69 SWAP1 PUSH2 0x38E3 JUMP JUMPDEST PUSH1 0x40 MLOAD DUP1 SWAP2 SUB SWAP1 REVERT JUMPDEST DUP5 DUP2 SUB PUSH1 0x0 DUP1 DUP9 DUP2 MSTORE PUSH1 0x20 ADD SWAP1 DUP2 MSTORE PUSH1 0x20 ADD PUSH1 0x0 KECCAK256 PUSH1 0x0 DUP11 PUSH20 0xFFFFFFFFFFFFFFFFFFFFFFFFFFFFFFFFFFFFFFFF AND PUSH20 0xFFFFFFFFFFFFFFFFFFFFFFFFFFFFFFFFFFFFFFFF AND DUP2 MSTORE PUSH1 0x20 ADD SWAP1 DUP2 MSTORE PUSH1 0x20 ADD PUSH1 0x0 KECCAK256 DUP2 SWAP1 SSTORE POP DUP7 PUSH20 0xFFFFFFFFFFFFFFFFFFFFFFFFFFFFFFFFFFFFFFFF AND DUP9 PUSH20 0xFFFFFFFFFFFFFFFFFFFFFFFFFFFFFFFFFFFFFFFF AND DUP4 PUSH20 0xFFFFFFFFFFFFFFFFFFFFFFFFFFFFFFFFFFFFFFFF AND PUSH32 0xC3D58168C5AE7397731D063D5BBF3D657854427343F4C083240F7AACAA2D0F62 DUP10 DUP10 PUSH1 0x40 MLOAD PUSH2 0x1E3E SWAP3 SWAP2 SWAP1 PUSH2 0x3959 JUMP JUMPDEST PUSH1 0x40 MLOAD DUP1 SWAP2 SUB SWAP1 LOG4 PUSH1 0xC PUSH1 0x0 SWAP1 SLOAD SWAP1 PUSH2 0x100 EXP SWAP1 DIV PUSH20 0xFFFFFFFFFFFFFFFFFFFFFFFFFFFFFFFFFFFFFFFF AND PUSH20 0xFFFFFFFFFFFFFFFFFFFFFFFFFFFFFFFFFFFFFFFF AND PUSH4 0x6B8D290C DUP10 DUP10 DUP8 PUSH1 0x40 MLOAD DUP5 PUSH4 0xFFFFFFFF AND PUSH1 0xE0 SHL DUP2 MSTORE PUSH1 0x4 ADD PUSH2 0x1EA5 SWAP4 SWAP3 SWAP2 SWAP1 PUSH2 0x36EE JUMP JUMPDEST PUSH1 0x0 PUSH1 0x40 MLOAD DUP1 DUP4 SUB DUP2 PUSH1 0x0 DUP8 DUP1 EXTCODESIZE ISZERO DUP1 ISZERO PUSH2 0x1EBF JUMPI PUSH1 0x0 DUP1 REVERT JUMPDEST POP GAS CALL ISZERO DUP1 ISZERO PUSH2 0x1ED3 JUMPI RETURNDATASIZE PUSH1 0x0 DUP1 RETURNDATACOPY RETURNDATASIZE PUSH1 0x0 REVERT JUMPDEST POP POP POP POP DUP5 PUSH1 0x0 DUP1 DUP9 DUP2 MSTORE PUSH1 0x20 ADD SWAP1 DUP2 MSTORE PUSH1 0x20 ADD PUSH1 0x0 KECCAK256 PUSH1 0x0 DUP10 PUSH20 0xFFFFFFFFFFFFFFFFFFFFFFFFFFFFFFFFFFFFFFFF AND PUSH20 0xFFFFFFFFFFFFFFFFFFFFFFFFFFFFFFFFFFFFFFFF AND DUP2 MSTORE PUSH1 0x20 ADD SWAP1 DUP2 MSTORE PUSH1 0x20 ADD PUSH1 0x0 KECCAK256 PUSH1 0x0 DUP3 DUP3 SLOAD PUSH2 0x1F36 SWAP2 SWAP1 PUSH2 0x3903 JUMP JUMPDEST SWAP3 POP POP DUP2 SWAP1 SSTORE POP PUSH2 0x1F47 DUP7 DUP9 PUSH2 0x24F5 JUMP JUMPDEST PUSH2 0x1F55 DUP3 DUP10 DUP10 DUP10 DUP10 DUP9 PUSH2 0x2145 JUMP JUMPDEST POP POP POP POP POP POP POP POP JUMP JUMPDEST PUSH1 0x60 PUSH1 0x0 PUSH1 0x1 PUSH8 0xFFFFFFFFFFFFFFFF DUP2 GT ISZERO PUSH2 0x1F7E JUMPI PUSH2 0x1F7D PUSH2 0x29D2 JUMP JUMPDEST JUMPDEST PUSH1 0x40 MLOAD SWAP1 DUP1 DUP3 MSTORE DUP1 PUSH1 0x20 MUL PUSH1 0x20 ADD DUP3 ADD PUSH1 0x40 MSTORE DUP1 ISZERO PUSH2 0x1FAC JUMPI DUP2 PUSH1 0x20 ADD PUSH1 0x20 DUP3 MUL DUP1 CALLDATASIZE DUP4 CALLDATACOPY DUP1 DUP3 ADD SWAP2 POP POP SWAP1 POP JUMPDEST POP SWAP1 POP DUP3 DUP2 PUSH1 0x0 DUP2 MLOAD DUP2 LT PUSH2 0x1FC4 JUMPI PUSH2 0x1FC3 PUSH2 0x37B7 JUMP JUMPDEST JUMPDEST PUSH1 0x20 MUL PUSH1 0x20 ADD ADD DUP2 DUP2 MSTORE POP POP DUP1 SWAP2 POP POP SWAP2 SWAP1 POP JUMP JUMPDEST PUSH1 0x0 PUSH20 0xFFFFFFFFFFFFFFFFFFFFFFFFFFFFFFFFFFFFFFFF AND DUP6 PUSH20 0xFFFFFFFFFFFFFFFFFFFFFFFFFFFFFFFFFFFFFFFF AND EQ ISZERO PUSH2 0x208B JUMPI PUSH1 0x0 JUMPDEST DUP4 MLOAD DUP2 LT ISZERO PUSH2 0x2089 JUMPI DUP3 DUP2 DUP2 MLOAD DUP2 LT PUSH2 0x202D JUMPI PUSH2 0x202C PUSH2 0x37B7 JUMP JUMPDEST JUMPDEST PUSH1 0x20 MUL PUSH1 0x20 ADD ADD MLOAD PUSH1 0xF PUSH1 0x0 DUP7 DUP5 DUP2 MLOAD DUP2 LT PUSH2 0x204C JUMPI PUSH2 0x204B PUSH2 0x37B7 JUMP JUMPDEST JUMPDEST PUSH1 0x20 MUL PUSH1 0x20 ADD ADD MLOAD DUP2 MSTORE PUSH1 0x20 ADD SWAP1 DUP2 MSTORE PUSH1 0x20 ADD PUSH1 0x0 KECCAK256 PUSH1 0x0 DUP3 DUP3 SLOAD PUSH2 0x2071 SWAP2 SWAP1 PUSH2 0x3903 JUMP JUMPDEST SWAP3 POP POP DUP2 SWAP1 SSTORE POP DUP1 PUSH2 0x2082 SWAP1 PUSH2 0x37E6 JUMP JUMPDEST SWAP1 POP PUSH2 0x2011 JUMP JUMPDEST POP JUMPDEST PUSH1 0x0 PUSH20 0xFFFFFFFFFFFFFFFFFFFFFFFFFFFFFFFFFFFFFFFF AND DUP5 PUSH20 0xFFFFFFFFFFFFFFFFFFFFFFFFFFFFFFFFFFFFFFFF AND EQ ISZERO PUSH2 0x213D JUMPI PUSH1 0x0 JUMPDEST DUP4 MLOAD DUP2 LT ISZERO PUSH2 0x213B JUMPI DUP3 DUP2 DUP2 MLOAD DUP2 LT PUSH2 0x20DF JUMPI PUSH2 0x20DE PUSH2 0x37B7 JUMP JUMPDEST JUMPDEST PUSH1 0x20 MUL PUSH1 0x20 ADD ADD MLOAD PUSH1 0xF PUSH1 0x0 DUP7 DUP5 DUP2 MLOAD DUP2 LT PUSH2 0x20FE JUMPI PUSH2 0x20FD PUSH2 0x37B7 JUMP JUMPDEST JUMPDEST PUSH1 0x20 MUL PUSH1 0x20 ADD ADD MLOAD DUP2 MSTORE PUSH1 0x20 ADD SWAP1 DUP2 MSTORE PUSH1 0x20 ADD PUSH1 0x0 KECCAK256 PUSH1 0x0 DUP3 DUP3 SLOAD PUSH2 0x2123 SWAP2 SWAP1 PUSH2 0x3596 JUMP JUMPDEST SWAP3 POP POP DUP2 SWAP1 SSTORE POP DUP1 PUSH2 0x2134 SWAP1 PUSH2 0x37E6 JUMP JUMPDEST SWAP1 POP PUSH2 0x20C3 JUMP JUMPDEST POP JUMPDEST POP POP POP POP POP POP JUMP JUMPDEST PUSH2 0x2164 DUP5 PUSH20 0xFFFFFFFFFFFFFFFFFFFFFFFFFFFFFFFFFFFFFFFF AND PUSH2 0x1465 JUMP JUMPDEST ISZERO PUSH2 0x2315 JUMPI DUP4 PUSH20 0xFFFFFFFFFFFFFFFFFFFFFFFFFFFFFFFFFFFFFFFF AND PUSH4 0xF23A6E61 DUP8 DUP8 DUP7 DUP7 DUP7 PUSH1 0x40 MLOAD DUP7 PUSH4 0xFFFFFFFF AND PUSH1 0xE0 SHL DUP2 MSTORE PUSH1 0x4 ADD PUSH2 0x21AA SWAP6 SWAP5 SWAP4 SWAP3 SWAP2 SWAP1 PUSH2 0x3B32 JUMP JUMPDEST PUSH1 0x20 PUSH1 0x40 MLOAD DUP1 DUP4 SUB DUP2 PUSH1 0x0 DUP8 GAS CALL SWAP3 POP POP POP DUP1 ISZERO PUSH2 0x21E6 JUMPI POP PUSH1 0x40 MLOAD RETURNDATASIZE PUSH1 0x1F NOT PUSH1 0x1F DUP3 ADD AND DUP3 ADD DUP1 PUSH1 0x40 MSTORE POP DUP2 ADD SWAP1 PUSH2 0x21E3 SWAP2 SWAP1 PUSH2 0x3BA1 JUMP JUMPDEST PUSH1 0x1 JUMPDEST PUSH2 0x228C JUMPI PUSH2 0x21F2 PUSH2 0x3BDB JUMP JUMPDEST DUP1 PUSH4 0x8C379A0 EQ ISZERO PUSH2 0x224F JUMPI POP PUSH2 0x2207 PUSH2 0x3BFD JUMP JUMPDEST DUP1 PUSH2 0x2212 JUMPI POP PUSH2 0x2251 JUMP JUMPDEST DUP1 PUSH1 0x40 MLOAD PUSH32 0x8C379A000000000000000000000000000000000000000000000000000000000 DUP2 MSTORE PUSH1 0x4 ADD PUSH2 0x2246 SWAP2 SWAP1 PUSH2 0x296F JUMP JUMPDEST PUSH1 0x40 MLOAD DUP1 SWAP2 SUB SWAP1 REVERT JUMPDEST POP JUMPDEST PUSH1 0x40 MLOAD PUSH32 0x8C379A000000000000000000000000000000000000000000000000000000000 DUP2 MSTORE PUSH1 0x4 ADD PUSH2 0x2283 SWAP1 PUSH2 0x3D05 JUMP JUMPDEST PUSH1 0x40 MLOAD DUP1 SWAP2 SUB SWAP1 REVERT JUMPDEST PUSH4 0xF23A6E61 PUSH1 0xE0 SHL PUSH28 0xFFFFFFFFFFFFFFFFFFFFFFFFFFFFFFFFFFFFFFFFFFFFFFFFFFFFFFFF NOT AND DUP2 PUSH28 0xFFFFFFFFFFFFFFFFFFFFFFFFFFFFFFFFFFFFFFFFFFFFFFFFFFFFFFFF NOT AND EQ PUSH2 0x2313 JUMPI PUSH1 0x40 MLOAD PUSH32 0x8C379A000000000000000000000000000000000000000000000000000000000 DUP2 MSTORE PUSH1 0x4 ADD PUSH2 0x230A SWAP1 PUSH2 0x3D97 JUMP JUMPDEST PUSH1 0x40 MLOAD DUP1 SWAP2 SUB SWAP1 REVERT JUMPDEST POP JUMPDEST POP POP POP POP POP POP JUMP JUMPDEST PUSH2 0x233C DUP5 PUSH20 0xFFFFFFFFFFFFFFFFFFFFFFFFFFFFFFFFFFFFFFFF AND PUSH2 0x1465 JUMP JUMPDEST ISZERO PUSH2 0x24ED JUMPI DUP4 PUSH20 0xFFFFFFFFFFFFFFFFFFFFFFFFFFFFFFFFFFFFFFFF AND PUSH4 0xBC197C81 DUP8 DUP8 DUP7 DUP7 DUP7 PUSH1 0x40 MLOAD DUP7 PUSH4 0xFFFFFFFF AND PUSH1 0xE0 SHL DUP2 MSTORE PUSH1 0x4 ADD PUSH2 0x2382 SWAP6 SWAP5 SWAP4 SWAP3 SWAP2 SWAP1 PUSH2 0x3DB7 JUMP JUMPDEST PUSH1 0x20 PUSH1 0x40 MLOAD DUP1 DUP4 SUB DUP2 PUSH1 0x0 DUP8 GAS CALL SWAP3 POP POP POP DUP1 ISZERO PUSH2 0x23BE JUMPI POP PUSH1 0x40 MLOAD RETURNDATASIZE PUSH1 0x1F NOT PUSH1 0x1F DUP3 ADD AND DUP3 ADD DUP1 PUSH1 0x40 MSTORE POP DUP2 ADD SWAP1 PUSH2 0x23BB SWAP2 SWAP1 PUSH2 0x3BA1 JUMP JUMPDEST PUSH1 0x1 JUMPDEST PUSH2 0x2464 JUMPI PUSH2 0x23CA PUSH2 0x3BDB JUMP JUMPDEST DUP1 PUSH4 0x8C379A0 EQ ISZERO PUSH2 0x2427 JUMPI POP PUSH2 0x23DF PUSH2 0x3BFD JUMP JUMPDEST DUP1 PUSH2 0x23EA JUMPI POP PUSH2 0x2429 JUMP JUMPDEST DUP1 PUSH1 0x40 MLOAD PUSH32 0x8C379A000000000000000000000000000000000000000000000000000000000 DUP2 MSTORE PUSH1 0x4 ADD PUSH2 0x241E SWAP2 SWAP1 PUSH2 0x296F JUMP JUMPDEST PUSH1 0x40 MLOAD DUP1 SWAP2 SUB SWAP1 REVERT JUMPDEST POP JUMPDEST PUSH1 0x40 MLOAD PUSH32 0x8C379A000000000000000000000000000000000000000000000000000000000 DUP2 MSTORE PUSH1 0x4 ADD PUSH2 0x245B SWAP1 PUSH2 0x3D05 JUMP JUMPDEST PUSH1 0x40 MLOAD DUP1 SWAP2 SUB SWAP1 REVERT JUMPDEST PUSH4 0xBC197C81 PUSH1 0xE0 SHL PUSH28 0xFFFFFFFFFFFFFFFFFFFFFFFFFFFFFFFFFFFFFFFFFFFFFFFFFFFFFFFF NOT AND DUP2 PUSH28 0xFFFFFFFFFFFFFFFFFFFFFFFFFFFFFFFFFFFFFFFFFFFFFFFFFFFFFFFF NOT AND EQ PUSH2 0x24EB JUMPI PUSH1 0x40 MLOAD PUSH32 0x8C379A000000000000000000000000000000000000000000000000000000000 DUP2 MSTORE PUSH1 0x4 ADD PUSH2 0x24E2 SWAP1 PUSH2 0x3D97 JUMP JUMPDEST PUSH1 0x40 MLOAD DUP1 SWAP2 SUB SWAP1 REVERT JUMPDEST POP JUMPDEST POP POP POP POP POP POP JUMP JUMPDEST PUSH2 0x24FE DUP2 PUSH2 0x25BF JUMP JUMPDEST DUP1 PUSH2 0x250E JUMPI POP PUSH1 0x0 PUSH1 0xA DUP1 SLOAD SWAP1 POP EQ JUMPDEST ISZERO PUSH2 0x25BB JUMPI DUP2 PUSH1 0xE PUSH1 0x0 PUSH1 0xA DUP1 SLOAD SWAP1 POP DUP2 MSTORE PUSH1 0x20 ADD SWAP1 DUP2 MSTORE PUSH1 0x20 ADD PUSH1 0x0 KECCAK256 PUSH1 0x0 ADD DUP2 SWAP1 SSTORE POP DUP1 PUSH1 0xE PUSH1 0x0 PUSH1 0xA DUP1 SLOAD SWAP1 POP DUP2 MSTORE PUSH1 0x20 ADD SWAP1 DUP2 MSTORE PUSH1 0x20 ADD PUSH1 0x0 KECCAK256 PUSH1 0x1 ADD PUSH1 0x0 PUSH2 0x100 EXP DUP2 SLOAD DUP2 PUSH20 0xFFFFFFFFFFFFFFFFFFFFFFFFFFFFFFFFFFFFFFFF MUL NOT AND SWAP1 DUP4 PUSH20 0xFFFFFFFFFFFFFFFFFFFFFFFFFFFFFFFFFFFFFFFF AND MUL OR SWAP1 SSTORE POP PUSH1 0xA DUP1 DUP1 SLOAD SWAP1 POP SWAP1 DUP1 PUSH1 0x1 DUP2 SLOAD ADD DUP1 DUP3 SSTORE DUP1 SWAP2 POP POP PUSH1 0x1 SWAP1 SUB SWAP1 PUSH1 0x0 MSTORE PUSH1 0x20 PUSH1 0x0 KECCAK256 ADD PUSH1 0x0 SWAP1 SWAP2 SWAP1 SWAP2 SWAP1 SWAP2 POP SSTORE JUMPDEST POP POP JUMP JUMPDEST PUSH1 0x0 DUP1 PUSH1 0xA DUP1 SLOAD SWAP1 POP EQ PUSH2 0x265C JUMPI PUSH1 0x0 PUSH1 0xA DUP1 SLOAD SWAP1 POP DUP2 LT ISZERO PUSH2 0x265A JUMPI DUP3 PUSH20 0xFFFFFFFFFFFFFFFFFFFFFFFFFFFFFFFFFFFFFFFF AND PUSH1 0xE PUSH1 0x0 DUP4 DUP2 MSTORE PUSH1 0x20 ADD SWAP1 DUP2 MSTORE PUSH1 0x20 ADD PUSH1 0x0 KECCAK256 PUSH1 0x1 ADD PUSH1 0x0 SWAP1 SLOAD SWAP1 PUSH2 0x100 EXP SWAP1 DIV PUSH20 0xFFFFFFFFFFFFFFFFFFFFFFFFFFFFFFFFFFFFFFFF AND PUSH20 0xFFFFFFFFFFFFFFFFFFFFFFFFFFFFFFFFFFFFFFFF AND EQ ISZERO PUSH2 0x2650 JUMPI PUSH1 0x0 SWAP2 POP POP PUSH2 0x265D JUMP JUMPDEST PUSH1 0x1 SWAP2 POP POP PUSH2 0x265D JUMP JUMPDEST POP JUMPDEST JUMPDEST SWAP2 SWAP1 POP JUMP JUMPDEST PUSH1 0x0 PUSH1 0x40 MLOAD SWAP1 POP SWAP1 JUMP JUMPDEST PUSH1 0x0 DUP1 REVERT JUMPDEST PUSH1 0x0 DUP1 REVERT JUMPDEST PUSH1 0x0 PUSH20 0xFFFFFFFFFFFFFFFFFFFFFFFFFFFFFFFFFFFFFFFF DUP3 AND SWAP1 POP SWAP2 SWAP1 POP JUMP JUMPDEST PUSH1 0x0 PUSH2 0x26A1 DUP3 PUSH2 0x2676 JUMP JUMPDEST SWAP1 POP SWAP2 SWAP1 POP JUMP JUMPDEST PUSH2 0x26B1 DUP2 PUSH2 0x2696 JUMP JUMPDEST DUP2 EQ PUSH2 0x26BC JUMPI PUSH1 0x0 DUP1 REVERT JUMPDEST POP JUMP JUMPDEST PUSH1 0x0 DUP2 CALLDATALOAD SWAP1 POP PUSH2 0x26CE DUP2 PUSH2 0x26A8 JUMP JUMPDEST SWAP3 SWAP2 POP POP JUMP JUMPDEST PUSH1 0x0 DUP2 SWAP1 POP SWAP2 SWAP1 POP JUMP JUMPDEST PUSH2 0x26E7 DUP2 PUSH2 0x26D4 JUMP JUMPDEST DUP2 EQ PUSH2 0x26F2 JUMPI PUSH1 0x0 DUP1 REVERT JUMPDEST POP JUMP JUMPDEST PUSH1 0x0 DUP2 CALLDATALOAD SWAP1 POP PUSH2 0x2704 DUP2 PUSH2 0x26DE JUMP JUMPDEST SWAP3 SWAP2 POP POP JUMP JUMPDEST PUSH1 0x0 DUP1 PUSH1 0x40 DUP4 DUP6 SUB SLT ISZERO PUSH2 0x2721 JUMPI PUSH2 0x2720 PUSH2 0x266C JUMP JUMPDEST JUMPDEST PUSH1 0x0 PUSH2 0x272F DUP6 DUP3 DUP7 ADD PUSH2 0x26BF JUMP JUMPDEST SWAP3 POP POP PUSH1 0x20 PUSH2 0x2740 DUP6 DUP3 DUP7 ADD PUSH2 0x26F5 JUMP JUMPDEST SWAP2 POP POP SWAP3 POP SWAP3 SWAP1 POP JUMP JUMPDEST PUSH2 0x2753 DUP2 PUSH2 0x26D4 JUMP JUMPDEST DUP3 MSTORE POP POP JUMP JUMPDEST PUSH1 0x0 PUSH1 0x20 DUP3 ADD SWAP1 POP PUSH2 0x276E PUSH1 0x0 DUP4 ADD DUP5 PUSH2 0x274A JUMP JUMPDEST SWAP3 SWAP2 POP POP JUMP JUMPDEST PUSH1 0x0 PUSH32 0xFFFFFFFF00000000000000000000000000000000000000000000000000000000 DUP3 AND SWAP1 POP SWAP2 SWAP1 POP JUMP JUMPDEST PUSH2 0x27A9 DUP2 PUSH2 0x2774 JUMP JUMPDEST DUP2 EQ PUSH2 0x27B4 JUMPI PUSH1 0x0 DUP1 REVERT JUMPDEST POP JUMP JUMPDEST PUSH1 0x0 DUP2 CALLDATALOAD SWAP1 POP PUSH2 0x27C6 DUP2 PUSH2 0x27A0 JUMP JUMPDEST SWAP3 SWAP2 POP POP JUMP JUMPDEST PUSH1 0x0 PUSH1 0x20 DUP3 DUP5 SUB SLT ISZERO PUSH2 0x27E2 JUMPI PUSH2 0x27E1 PUSH2 0x266C JUMP JUMPDEST JUMPDEST PUSH1 0x0 PUSH2 0x27F0 DUP5 DUP3 DUP6 ADD PUSH2 0x27B7 JUMP JUMPDEST SWAP2 POP POP SWAP3 SWAP2 POP POP JUMP JUMPDEST PUSH1 0x0 DUP2 ISZERO ISZERO SWAP1 POP SWAP2 SWAP1 POP JUMP JUMPDEST PUSH2 0x280E DUP2 PUSH2 0x27F9 JUMP JUMPDEST DUP3 MSTORE POP POP JUMP JUMPDEST PUSH1 0x0 PUSH1 0x20 DUP3 ADD SWAP1 POP PUSH2 0x2829 PUSH1 0x0 DUP4 ADD DUP5 PUSH2 0x2805 JUMP JUMPDEST SWAP3 SWAP2 POP POP JUMP JUMPDEST PUSH1 0x0 DUP2 SWAP1 POP SWAP2 SWAP1 POP JUMP JUMPDEST PUSH1 0x0 PUSH2 0x2854 PUSH2 0x284F PUSH2 0x284A DUP5 PUSH2 0x2676 JUMP JUMPDEST PUSH2 0x282F JUMP JUMPDEST PUSH2 0x2676 JUMP JUMPDEST SWAP1 POP SWAP2 SWAP1 POP JUMP JUMPDEST PUSH1 0x0 PUSH2 0x2866 DUP3 PUSH2 0x2839 JUMP JUMPDEST SWAP1 POP SWAP2 SWAP1 POP JUMP JUMPDEST PUSH1 0x0 PUSH2 0x2878 DUP3 PUSH2 0x285B JUMP JUMPDEST SWAP1 POP SWAP2 SWAP1 POP JUMP JUMPDEST PUSH2 0x2888 DUP2 PUSH2 0x286D JUMP JUMPDEST DUP3 MSTORE POP POP JUMP JUMPDEST PUSH1 0x0 PUSH1 0x20 DUP3 ADD SWAP1 POP PUSH2 0x28A3 PUSH1 0x0 DUP4 ADD DUP5 PUSH2 0x287F JUMP JUMPDEST SWAP3 SWAP2 POP POP JUMP JUMPDEST PUSH1 0x0 PUSH1 0x20 DUP3 DUP5 SUB SLT ISZERO PUSH2 0x28BF JUMPI PUSH2 0x28BE PUSH2 0x266C JUMP JUMPDEST JUMPDEST PUSH1 0x0 PUSH2 0x28CD DUP5 DUP3 DUP6 ADD PUSH2 0x26F5 JUMP JUMPDEST SWAP2 POP POP SWAP3 SWAP2 POP POP JUMP JUMPDEST PUSH1 0x0 DUP2 MLOAD SWAP1 POP SWAP2 SWAP1 POP JUMP JUMPDEST PUSH1 0x0 DUP3 DUP3 MSTORE PUSH1 0x20 DUP3 ADD SWAP1 POP SWAP3 SWAP2 POP POP JUMP JUMPDEST PUSH1 0x0 JUMPDEST DUP4 DUP2 LT ISZERO PUSH2 0x2910 JUMPI DUP1 DUP3 ADD MLOAD DUP2 DUP5 ADD MSTORE PUSH1 0x20 DUP2 ADD SWAP1 POP PUSH2 0x28F5 JUMP JUMPDEST DUP4 DUP2 GT ISZERO PUSH2 0x291F JUMPI PUSH1 0x0 DUP5 DUP5 ADD MSTORE JUMPDEST POP POP POP POP JUMP JUMPDEST PUSH1 0x0 PUSH1 0x1F NOT PUSH1 0x1F DUP4 ADD AND SWAP1 POP SWAP2 SWAP1 POP JUMP JUMPDEST PUSH1 0x0 PUSH2 0x2941 DUP3 PUSH2 0x28D6 JUMP JUMPDEST PUSH2 0x294B DUP2 DUP6 PUSH2 0x28E1 JUMP JUMPDEST SWAP4 POP PUSH2 0x295B DUP2 DUP6 PUSH1 0x20 DUP7 ADD PUSH2 0x28F2 JUMP JUMPDEST PUSH2 0x2964 DUP2 PUSH2 0x2925 JUMP JUMPDEST DUP5 ADD SWAP2 POP POP SWAP3 SWAP2 POP POP JUMP JUMPDEST PUSH1 0x0 PUSH1 0x20 DUP3 ADD SWAP1 POP DUP2 DUP2 SUB PUSH1 0x0 DUP4 ADD MSTORE PUSH2 0x2989 DUP2 DUP5 PUSH2 0x2936 JUMP JUMPDEST SWAP1 POP SWAP3 SWAP2 POP POP JUMP JUMPDEST PUSH1 0x0 DUP2 PUSH1 0x0 SIGNEXTEND SWAP1 POP SWAP2 SWAP1 POP JUMP JUMPDEST PUSH2 0x29A7 DUP2 PUSH2 0x2991 JUMP JUMPDEST DUP3 MSTORE POP POP JUMP JUMPDEST PUSH1 0x0 PUSH1 0x20 DUP3 ADD SWAP1 POP PUSH2 0x29C2 PUSH1 0x0 DUP4 ADD DUP5 PUSH2 0x299E JUMP JUMPDEST SWAP3 SWAP2 POP POP JUMP JUMPDEST PUSH1 0x0 DUP1 REVERT JUMPDEST PUSH1 0x0 DUP1 REVERT JUMPDEST PUSH32 0x4E487B7100000000000000000000000000000000000000000000000000000000 PUSH1 0x0 MSTORE PUSH1 0x41 PUSH1 0x4 MSTORE PUSH1 0x24 PUSH1 0x0 REVERT JUMPDEST PUSH2 0x2A0A DUP3 PUSH2 0x2925 JUMP JUMPDEST DUP2 ADD DUP2 DUP2 LT PUSH8 0xFFFFFFFFFFFFFFFF DUP3 GT OR ISZERO PUSH2 0x2A29 JUMPI PUSH2 0x2A28 PUSH2 0x29D2 JUMP JUMPDEST JUMPDEST DUP1 PUSH1 0x40 MSTORE POP POP POP JUMP JUMPDEST PUSH1 0x0 PUSH2 0x2A3C PUSH2 0x2662 JUMP JUMPDEST SWAP1 POP PUSH2 0x2A48 DUP3 DUP3 PUSH2 0x2A01 JUMP JUMPDEST SWAP2 SWAP1 POP JUMP JUMPDEST PUSH1 0x0 PUSH8 0xFFFFFFFFFFFFFFFF DUP3 GT ISZERO PUSH2 0x2A68 JUMPI PUSH2 0x2A67 PUSH2 0x29D2 JUMP JUMPDEST JUMPDEST PUSH2 0x2A71 DUP3 PUSH2 0x2925 JUMP JUMPDEST SWAP1 POP PUSH1 0x20 DUP2 ADD SWAP1 POP SWAP2 SWAP1 POP JUMP JUMPDEST DUP3 DUP2 DUP4 CALLDATACOPY PUSH1 0x0 DUP4 DUP4 ADD MSTORE POP POP POP JUMP JUMPDEST PUSH1 0x0 PUSH2 0x2AA0 PUSH2 0x2A9B DUP5 PUSH2 0x2A4D JUMP JUMPDEST PUSH2 0x2A32 JUMP JUMPDEST SWAP1 POP DUP3 DUP2 MSTORE PUSH1 0x20 DUP2 ADD DUP5 DUP5 DUP5 ADD GT ISZERO PUSH2 0x2ABC JUMPI PUSH2 0x2ABB PUSH2 0x29CD JUMP JUMPDEST JUMPDEST PUSH2 0x2AC7 DUP5 DUP3 DUP6 PUSH2 0x2A7E JUMP JUMPDEST POP SWAP4 SWAP3 POP POP POP JUMP JUMPDEST PUSH1 0x0 DUP3 PUSH1 0x1F DUP4 ADD SLT PUSH2 0x2AE4 JUMPI PUSH2 0x2AE3 PUSH2 0x29C8 JUMP JUMPDEST JUMPDEST DUP2 CALLDATALOAD PUSH2 0x2AF4 DUP5 DUP3 PUSH1 0x20 DUP7 ADD PUSH2 0x2A8D JUMP JUMPDEST SWAP2 POP POP SWAP3 SWAP2 POP POP JUMP JUMPDEST PUSH1 0x0 DUP1 PUSH1 0x0 DUP1 PUSH1 0x0 DUP1 PUSH1 0xC0 DUP8 DUP10 SUB SLT ISZERO PUSH2 0x2B1A JUMPI PUSH2 0x2B19 PUSH2 0x266C JUMP JUMPDEST JUMPDEST PUSH1 0x0 PUSH2 0x2B28 DUP10 DUP3 DUP11 ADD PUSH2 0x26BF JUMP JUMPDEST SWAP7 POP POP PUSH1 0x20 PUSH2 0x2B39 DUP10 DUP3 DUP11 ADD PUSH2 0x26BF JUMP JUMPDEST SWAP6 POP POP PUSH1 0x40 PUSH2 0x2B4A DUP10 DUP3 DUP11 ADD PUSH2 0x26F5 JUMP JUMPDEST SWAP5 POP POP PUSH1 0x60 PUSH2 0x2B5B DUP10 DUP3 DUP11 ADD PUSH2 0x26F5 JUMP JUMPDEST SWAP4 POP POP PUSH1 0x80 PUSH2 0x2B6C DUP10 DUP3 DUP11 ADD PUSH2 0x26F5 JUMP JUMPDEST SWAP3 POP POP PUSH1 0xA0 DUP8 ADD CALLDATALOAD PUSH8 0xFFFFFFFFFFFFFFFF DUP2 GT ISZERO PUSH2 0x2B8D JUMPI PUSH2 0x2B8C PUSH2 0x2671 JUMP JUMPDEST JUMPDEST PUSH2 0x2B99 DUP10 DUP3 DUP11 ADD PUSH2 0x2ACF JUMP JUMPDEST SWAP2 POP POP SWAP3 SWAP6 POP SWAP3 SWAP6 POP SWAP3 SWAP6 JUMP JUMPDEST PUSH1 0x0 PUSH8 0xFFFFFFFFFFFFFFFF DUP3 GT ISZERO PUSH2 0x2BC1 JUMPI PUSH2 0x2BC0 PUSH2 0x29D2 JUMP JUMPDEST JUMPDEST PUSH1 0x20 DUP3 MUL SWAP1 POP PUSH1 0x20 DUP2 ADD SWAP1 POP SWAP2 SWAP1 POP JUMP JUMPDEST PUSH1 0x0 DUP1 REVERT JUMPDEST PUSH1 0x0 PUSH2 0x2BEA PUSH2 0x2BE5 DUP5 PUSH2 0x2BA6 JUMP JUMPDEST PUSH2 0x2A32 JUMP JUMPDEST SWAP1 POP DUP1 DUP4 DUP3 MSTORE PUSH1 0x20 DUP3 ADD SWAP1 POP PUSH1 0x20 DUP5 MUL DUP4 ADD DUP6 DUP2 GT ISZERO PUSH2 0x2C0D JUMPI PUSH2 0x2C0C PUSH2 0x2BD2 JUMP JUMPDEST JUMPDEST DUP4 JUMPDEST DUP2 DUP2 LT ISZERO PUSH2 0x2C36 JUMPI DUP1 PUSH2 0x2C22 DUP9 DUP3 PUSH2 0x26F5 JUMP JUMPDEST DUP5 MSTORE PUSH1 0x20 DUP5 ADD SWAP4 POP POP PUSH1 0x20 DUP2 ADD SWAP1 POP PUSH2 0x2C0F JUMP JUMPDEST POP POP POP SWAP4 SWAP3 POP POP POP JUMP JUMPDEST PUSH1 0x0 DUP3 PUSH1 0x1F DUP4 ADD SLT PUSH2 0x2C55 JUMPI PUSH2 0x2C54 PUSH2 0x29C8 JUMP JUMPDEST JUMPDEST DUP2 CALLDATALOAD PUSH2 0x2C65 DUP5 DUP3 PUSH1 0x20 DUP7 ADD PUSH2 0x2BD7 JUMP JUMPDEST SWAP2 POP POP SWAP3 SWAP2 POP POP JUMP JUMPDEST PUSH1 0x0 DUP1 PUSH1 0x0 DUP1 PUSH1 0x0 PUSH1 0xA0 DUP7 DUP9 SUB SLT ISZERO PUSH2 0x2C8A JUMPI PUSH2 0x2C89 PUSH2 0x266C JUMP JUMPDEST JUMPDEST PUSH1 0x0 PUSH2 0x2C98 DUP9 DUP3 DUP10 ADD PUSH2 0x26BF JUMP JUMPDEST SWAP6 POP POP PUSH1 0x20 PUSH2 0x2CA9 DUP9 DUP3 DUP10 ADD PUSH2 0x26BF JUMP JUMPDEST SWAP5 POP POP PUSH1 0x40 DUP7 ADD CALLDATALOAD PUSH8 0xFFFFFFFFFFFFFFFF DUP2 GT ISZERO PUSH2 0x2CCA JUMPI PUSH2 0x2CC9 PUSH2 0x2671 JUMP JUMPDEST JUMPDEST PUSH2 0x2CD6 DUP9 DUP3 DUP10 ADD PUSH2 0x2C40 JUMP JUMPDEST SWAP4 POP POP PUSH1 0x60 DUP7 ADD CALLDATALOAD PUSH8 0xFFFFFFFFFFFFFFFF DUP2 GT ISZERO PUSH2 0x2CF7 JUMPI PUSH2 0x2CF6 PUSH2 0x2671 JUMP JUMPDEST JUMPDEST PUSH2 0x2D03 DUP9 DUP3 DUP10 ADD PUSH2 0x2C40 JUMP JUMPDEST SWAP3 POP POP PUSH1 0x80 DUP7 ADD CALLDATALOAD PUSH8 0xFFFFFFFFFFFFFFFF DUP2 GT ISZERO PUSH2 0x2D24 JUMPI PUSH2 0x2D23 PUSH2 0x2671 JUMP JUMPDEST JUMPDEST PUSH2 0x2D30 DUP9 DUP3 DUP10 ADD PUSH2 0x2ACF JUMP JUMPDEST SWAP2 POP POP SWAP3 SWAP6 POP SWAP3 SWAP6 SWAP1 SWAP4 POP JUMP JUMPDEST PUSH1 0x0 DUP1 PUSH1 0x0 PUSH1 0x60 DUP5 DUP7 SUB SLT ISZERO PUSH2 0x2D56 JUMPI PUSH2 0x2D55 PUSH2 0x266C JUMP JUMPDEST JUMPDEST PUSH1 0x0 PUSH2 0x2D64 DUP7 DUP3 DUP8 ADD PUSH2 0x26BF JUMP JUMPDEST SWAP4 POP POP PUSH1 0x20 PUSH2 0x2D75 DUP7 DUP3 DUP8 ADD PUSH2 0x26F5 JUMP JUMPDEST SWAP3 POP POP PUSH1 0x40 PUSH2 0x2D86 DUP7 DUP3 DUP8 ADD PUSH2 0x26F5 JUMP JUMPDEST SWAP2 POP POP SWAP3 POP SWAP3 POP SWAP3 JUMP JUMPDEST PUSH1 0x0 DUP1 PUSH1 0x40 DUP4 DUP6 SUB SLT ISZERO PUSH2 0x2DA7 JUMPI PUSH2 0x2DA6 PUSH2 0x266C JUMP JUMPDEST JUMPDEST PUSH1 0x0 PUSH2 0x2DB5 DUP6 DUP3 DUP7 ADD PUSH2 0x26BF JUMP JUMPDEST SWAP3 POP POP PUSH1 0x20 PUSH2 0x2DC6 DUP6 DUP3 DUP7 ADD PUSH2 0x26BF JUMP JUMPDEST SWAP2 POP POP SWAP3 POP SWAP3 SWAP1 POP JUMP JUMPDEST PUSH1 0x0 PUSH1 0x60 DUP3 ADD SWAP1 POP PUSH2 0x2DE5 PUSH1 0x0 DUP4 ADD DUP7 PUSH2 0x274A JUMP JUMPDEST PUSH2 0x2DF2 PUSH1 0x20 DUP4 ADD DUP6 PUSH2 0x274A JUMP JUMPDEST PUSH2 0x2DFF PUSH1 0x40 DUP4 ADD DUP5 PUSH2 0x274A JUMP JUMPDEST SWAP5 SWAP4 POP POP POP POP JUMP JUMPDEST PUSH1 0x0 PUSH8 0xFFFFFFFFFFFFFFFF DUP3 GT ISZERO PUSH2 0x2E22 JUMPI PUSH2 0x2E21 PUSH2 0x29D2 JUMP JUMPDEST JUMPDEST PUSH1 0x20 DUP3 MUL SWAP1 POP PUSH1 0x20 DUP2 ADD SWAP1 POP SWAP2 SWAP1 POP JUMP JUMPDEST PUSH1 0x0 PUSH2 0x2E46 PUSH2 0x2E41 DUP5 PUSH2 0x2E07 JUMP JUMPDEST PUSH2 0x2A32 JUMP JUMPDEST SWAP1 POP DUP1 DUP4 DUP3 MSTORE PUSH1 0x20 DUP3 ADD SWAP1 POP PUSH1 0x20 DUP5 MUL DUP4 ADD DUP6 DUP2 GT ISZERO PUSH2 0x2E69 JUMPI PUSH2 0x2E68 PUSH2 0x2BD2 JUMP JUMPDEST JUMPDEST DUP4 JUMPDEST DUP2 DUP2 LT ISZERO PUSH2 0x2E92 JUMPI DUP1 PUSH2 0x2E7E DUP9 DUP3 PUSH2 0x26BF JUMP JUMPDEST DUP5 MSTORE PUSH1 0x20 DUP5 ADD SWAP4 POP POP PUSH1 0x20 DUP2 ADD SWAP1 POP PUSH2 0x2E6B JUMP JUMPDEST POP POP POP SWAP4 SWAP3 POP POP POP JUMP JUMPDEST PUSH1 0x0 DUP3 PUSH1 0x1F DUP4 ADD SLT PUSH2 0x2EB1 JUMPI PUSH2 0x2EB0 PUSH2 0x29C8 JUMP JUMPDEST JUMPDEST DUP2 CALLDATALOAD PUSH2 0x2EC1 DUP5 DUP3 PUSH1 0x20 DUP7 ADD PUSH2 0x2E33 JUMP JUMPDEST SWAP2 POP POP SWAP3 SWAP2 POP POP JUMP JUMPDEST PUSH1 0x0 DUP1 PUSH1 0x40 DUP4 DUP6 SUB SLT ISZERO PUSH2 0x2EE1 JUMPI PUSH2 0x2EE0 PUSH2 0x266C JUMP JUMPDEST JUMPDEST PUSH1 0x0 DUP4 ADD CALLDATALOAD PUSH8 0xFFFFFFFFFFFFFFFF DUP2 GT ISZERO PUSH2 0x2EFF JUMPI PUSH2 0x2EFE PUSH2 0x2671 JUMP JUMPDEST JUMPDEST PUSH2 0x2F0B DUP6 DUP3 DUP7 ADD PUSH2 0x2E9C JUMP JUMPDEST SWAP3 POP POP PUSH1 0x20 DUP4 ADD CALLDATALOAD PUSH8 0xFFFFFFFFFFFFFFFF DUP2 GT ISZERO PUSH2 0x2F2C JUMPI PUSH2 0x2F2B PUSH2 0x2671 JUMP JUMPDEST JUMPDEST PUSH2 0x2F38 DUP6 DUP3 DUP7 ADD PUSH2 0x2C40 JUMP JUMPDEST SWAP2 POP POP SWAP3 POP SWAP3 SWAP1 POP JUMP JUMPDEST PUSH1 0x0 DUP2 MLOAD SWAP1 POP SWAP2 SWAP1 POP JUMP JUMPDEST PUSH1 0x0 DUP3 DUP3 MSTORE PUSH1 0x20 DUP3 ADD SWAP1 POP SWAP3 SWAP2 POP POP JUMP JUMPDEST PUSH1 0x0 DUP2 SWAP1 POP PUSH1 0x20 DUP3 ADD SWAP1 POP SWAP2 SWAP1 POP JUMP JUMPDEST PUSH2 0x2F77 DUP2 PUSH2 0x26D4 JUMP JUMPDEST DUP3 MSTORE POP POP JUMP JUMPDEST PUSH1 0x0 PUSH2 0x2F89 DUP4 DUP4 PUSH2 0x2F6E JUMP JUMPDEST PUSH1 0x20 DUP4 ADD SWAP1 POP SWAP3 SWAP2 POP POP JUMP JUMPDEST PUSH1 0x0 PUSH1 0x20 DUP3 ADD SWAP1 POP SWAP2 SWAP1 POP JUMP JUMPDEST PUSH1 0x0 PUSH2 0x2FAD DUP3 PUSH2 0x2F42 JUMP JUMPDEST PUSH2 0x2FB7 DUP2 DUP6 PUSH2 0x2F4D JUMP JUMPDEST SWAP4 POP PUSH2 0x2FC2 DUP4 PUSH2 0x2F5E JUMP JUMPDEST DUP1 PUSH1 0x0 JUMPDEST DUP4 DUP2 LT ISZERO PUSH2 0x2FF3 JUMPI DUP2 MLOAD PUSH2 0x2FDA DUP9 DUP3 PUSH2 0x2F7D JUMP JUMPDEST SWAP8 POP PUSH2 0x2FE5 DUP4 PUSH2 0x2F95 JUMP JUMPDEST SWAP3 POP POP PUSH1 0x1 DUP2 ADD SWAP1 POP PUSH2 0x2FC6 JUMP JUMPDEST POP DUP6 SWAP4 POP POP POP POP SWAP3 SWAP2 POP POP JUMP JUMPDEST PUSH1 0x0 PUSH1 0x20 DUP3 ADD SWAP1 POP DUP2 DUP2 SUB PUSH1 0x0 DUP4 ADD MSTORE PUSH2 0x301A DUP2 DUP5 PUSH2 0x2FA2 JUMP JUMPDEST SWAP1 POP SWAP3 SWAP2 POP POP JUMP JUMPDEST PUSH2 0x302B DUP2 PUSH2 0x2696 JUMP JUMPDEST DUP3 MSTORE POP POP JUMP JUMPDEST PUSH1 0x0 PUSH1 0x20 DUP3 ADD SWAP1 POP PUSH2 0x3046 PUSH1 0x0 DUP4 ADD DUP5 PUSH2 0x3022 JUMP JUMPDEST SWAP3 SWAP2 POP POP JUMP JUMPDEST PUSH1 0x0 PUSH1 0x40 DUP3 ADD SWAP1 POP PUSH2 0x3061 PUSH1 0x0 DUP4 ADD DUP6 PUSH2 0x3022 JUMP JUMPDEST PUSH2 0x306E PUSH1 0x20 DUP4 ADD DUP5 PUSH2 0x274A JUMP JUMPDEST SWAP4 SWAP3 POP POP POP JUMP JUMPDEST PUSH2 0x307E DUP2 PUSH2 0x27F9 JUMP JUMPDEST DUP2 EQ PUSH2 0x3089 JUMPI PUSH1 0x0 DUP1 REVERT JUMPDEST POP JUMP JUMPDEST PUSH1 0x0 DUP2 CALLDATALOAD SWAP1 POP PUSH2 0x309B DUP2 PUSH2 0x3075 JUMP JUMPDEST SWAP3 SWAP2 POP POP JUMP JUMPDEST PUSH1 0x0 DUP1 PUSH1 0x40 DUP4 DUP6 SUB SLT ISZERO PUSH2 0x30B8 JUMPI PUSH2 0x30B7 PUSH2 0x266C JUMP JUMPDEST JUMPDEST PUSH1 0x0 PUSH2 0x30C6 DUP6 DUP3 DUP7 ADD PUSH2 0x26BF JUMP JUMPDEST SWAP3 POP POP PUSH1 0x20 PUSH2 0x30D7 DUP6 DUP3 DUP7 ADD PUSH2 0x308C JUMP JUMPDEST SWAP2 POP POP SWAP3 POP SWAP3 SWAP1 POP JUMP JUMPDEST PUSH1 0x0 PUSH1 0x20 DUP3 DUP5 SUB SLT ISZERO PUSH2 0x30F7 JUMPI PUSH2 0x30F6 PUSH2 0x266C JUMP JUMPDEST JUMPDEST PUSH1 0x0 PUSH2 0x3105 DUP5 DUP3 DUP6 ADD PUSH2 0x26BF JUMP JUMPDEST SWAP2 POP POP SWAP3 SWAP2 POP POP JUMP JUMPDEST PUSH1 0x0 DUP1 PUSH1 0x0 DUP1 PUSH1 0x0 PUSH1 0xA0 DUP7 DUP9 SUB SLT ISZERO PUSH2 0x312A JUMPI PUSH2 0x3129 PUSH2 0x266C JUMP JUMPDEST JUMPDEST PUSH1 0x0 PUSH2 0x3138 DUP9 DUP3 DUP10 ADD PUSH2 0x26BF JUMP JUMPDEST SWAP6 POP POP PUSH1 0x20 PUSH2 0x3149 DUP9 DUP3 DUP10 ADD PUSH2 0x26BF JUMP JUMPDEST SWAP5 POP POP PUSH1 0x40 PUSH2 0x315A DUP9 DUP3 DUP10 ADD PUSH2 0x26F5 JUMP JUMPDEST SWAP4 POP POP PUSH1 0x60 PUSH2 0x316B DUP9 DUP3 DUP10 ADD PUSH2 0x26F5 JUMP JUMPDEST SWAP3 POP POP PUSH1 0x80 DUP7 ADD CALLDATALOAD PUSH8 0xFFFFFFFFFFFFFFFF DUP2 GT ISZERO PUSH2 0x318C JUMPI PUSH2 0x318B PUSH2 0x2671 JUMP JUMPDEST JUMPDEST PUSH2 0x3198 DUP9 DUP3 DUP10 ADD PUSH2 0x2ACF JUMP JUMPDEST SWAP2 POP POP SWAP3 SWAP6 POP SWAP3 SWAP6 SWAP1 SWAP4 POP JUMP JUMPDEST PUSH32 0x455243313135353A2062616C616E636520717565727920666F7220746865207A PUSH1 0x0 DUP3 ADD MSTORE PUSH32 0x65726F2061646472657373000000000000000000000000000000000000000000 PUSH1 0x20 DUP3 ADD MSTORE POP JUMP JUMPDEST PUSH1 0x0 PUSH2 0x3201 PUSH1 0x2B DUP4 PUSH2 0x28E1 JUMP JUMPDEST SWAP2 POP PUSH2 0x320C DUP3 PUSH2 0x31A5 JUMP JUMPDEST PUSH1 0x40 DUP3 ADD SWAP1 POP SWAP2 SWAP1 POP JUMP JUMPDEST PUSH1 0x0 PUSH1 0x20 DUP3 ADD SWAP1 POP DUP2 DUP2 SUB PUSH1 0x0 DUP4 ADD MSTORE PUSH2 0x3230 DUP2 PUSH2 0x31F4 JUMP JUMPDEST SWAP1 POP SWAP2 SWAP1 POP JUMP JUMPDEST PUSH32 0x4E487B7100000000000000000000000000000000000000000000000000000000 PUSH1 0x0 MSTORE PUSH1 0x22 PUSH1 0x4 MSTORE PUSH1 0x24 PUSH1 0x0 REVERT JUMPDEST PUSH1 0x0 PUSH1 0x2 DUP3 DIV SWAP1 POP PUSH1 0x1 DUP3 AND DUP1 PUSH2 0x327E JUMPI PUSH1 0x7F DUP3 AND SWAP2 POP JUMPDEST PUSH1 0x20 DUP3 LT DUP2 EQ ISZERO PUSH2 0x3292 JUMPI PUSH2 0x3291 PUSH2 0x3237 JUMP JUMPDEST JUMPDEST POP SWAP2 SWAP1 POP JUMP JUMPDEST PUSH32 0x4F7665722073616C6520646174612E2E2E000000000000000000000000000000 PUSH1 0x0 DUP3 ADD MSTORE POP JUMP JUMPDEST PUSH1 0x0 PUSH2 0x32CE PUSH1 0x11 DUP4 PUSH2 0x28E1 JUMP JUMPDEST SWAP2 POP PUSH2 0x32D9 DUP3 PUSH2 0x3298 JUMP JUMPDEST PUSH1 0x20 DUP3 ADD SWAP1 POP SWAP2 SWAP1 POP JUMP JUMPDEST PUSH1 0x0 PUSH1 0x20 DUP3 ADD SWAP1 POP DUP2 DUP2 SUB PUSH1 0x0 DUP4 ADD MSTORE PUSH2 0x32FD DUP2 PUSH2 0x32C1 JUMP JUMPDEST SWAP1 POP SWAP2 SWAP1 POP JUMP JUMPDEST PUSH32 0x455243313135353A2063616C6C6572206973206E6F74206F776E6572206E6F72 PUSH1 0x0 DUP3 ADD MSTORE PUSH32 0x20617070726F7665640000000000000000000000000000000000000000000000 PUSH1 0x20 DUP3 ADD MSTORE POP JUMP JUMPDEST PUSH1 0x0 PUSH2 0x3360 PUSH1 0x29 DUP4 PUSH2 0x28E1 JUMP JUMPDEST SWAP2 POP PUSH2 0x336B DUP3 PUSH2 0x3304 JUMP JUMPDEST PUSH1 0x40 DUP3 ADD SWAP1 POP SWAP2 SWAP1 POP JUMP JUMPDEST PUSH1 0x0 PUSH1 0x20 DUP3 ADD SWAP1 POP DUP2 DUP2 SUB PUSH1 0x0 DUP4 ADD MSTORE PUSH2 0x338F DUP2 PUSH2 0x3353 JUMP JUMPDEST SWAP1 POP SWAP2 SWAP1 POP JUMP JUMPDEST PUSH32 0x455243313135353A207472616E7366657220746F20746865207A65726F206164 PUSH1 0x0 DUP3 ADD MSTORE PUSH32 0x6472657373000000000000000000000000000000000000000000000000000000 PUSH1 0x20 DUP3 ADD MSTORE POP JUMP JUMPDEST PUSH1 0x0 PUSH2 0x33F2 PUSH1 0x25 DUP4 PUSH2 0x28E1 JUMP JUMPDEST SWAP2 POP PUSH2 0x33FD DUP3 PUSH2 0x3396 JUMP JUMPDEST PUSH1 0x40 DUP3 ADD SWAP1 POP SWAP2 SWAP1 POP JUMP JUMPDEST PUSH1 0x0 PUSH1 0x20 DUP3 ADD SWAP1 POP DUP2 DUP2 SUB PUSH1 0x0 DUP4 ADD MSTORE PUSH2 0x3421 DUP2 PUSH2 0x33E5 JUMP JUMPDEST SWAP1 POP SWAP2 SWAP1 POP JUMP JUMPDEST PUSH32 0x45524331313535203A20656E7465722061726720206D6F72652076616C756520 PUSH1 0x0 DUP3 ADD MSTORE PUSH32 0x7468616E20416D6F756E74416C6C6F77616E636520696E7075742076616C7565 PUSH1 0x20 DUP3 ADD MSTORE PUSH32 0x2000000000000000000000000000000000000000000000000000000000000000 PUSH1 0x40 DUP3 ADD MSTORE POP JUMP JUMPDEST PUSH1 0x0 PUSH2 0x34AA PUSH1 0x41 DUP4 PUSH2 0x28E1 JUMP JUMPDEST SWAP2 POP PUSH2 0x34B5 DUP3 PUSH2 0x3428 JUMP JUMPDEST PUSH1 0x60 DUP3 ADD SWAP1 POP SWAP2 SWAP1 POP JUMP JUMPDEST PUSH1 0x0 PUSH1 0x20 DUP3 ADD SWAP1 POP DUP2 DUP2 SUB PUSH1 0x0 DUP4 ADD MSTORE PUSH2 0x34D9 DUP2 PUSH2 0x349D JUMP JUMPDEST SWAP1 POP SWAP2 SWAP1 POP JUMP JUMPDEST PUSH1 0x0 PUSH1 0x80 DUP3 ADD SWAP1 POP PUSH2 0x34F5 PUSH1 0x0 DUP4 ADD DUP8 PUSH2 0x3022 JUMP JUMPDEST PUSH2 0x3502 PUSH1 0x20 DUP4 ADD DUP7 PUSH2 0x3022 JUMP JUMPDEST PUSH2 0x350F PUSH1 0x40 DUP4 ADD DUP6 PUSH2 0x3022 JUMP JUMPDEST PUSH2 0x351C PUSH1 0x60 DUP4 ADD DUP5 PUSH2 0x274A JUMP JUMPDEST SWAP6 SWAP5 POP POP POP POP POP JUMP JUMPDEST PUSH1 0x0 DUP2 MLOAD SWAP1 POP PUSH2 0x3534 DUP2 PUSH2 0x3075 JUMP JUMPDEST SWAP3 SWAP2 POP POP JUMP JUMPDEST PUSH1 0x0 PUSH1 0x20 DUP3 DUP5 SUB SLT ISZERO PUSH2 0x3550 JUMPI PUSH2 0x354F PUSH2 0x266C JUMP JUMPDEST JUMPDEST PUSH1 0x0 PUSH2 0x355E DUP5 DUP3 DUP6 ADD PUSH2 0x3525 JUMP JUMPDEST SWAP2 POP POP SWAP3 SWAP2 POP POP JUMP JUMPDEST PUSH32 0x4E487B7100000000000000000000000000000000000000000000000000000000 PUSH1 0x0 MSTORE PUSH1 0x11 PUSH1 0x4 MSTORE PUSH1 0x24 PUSH1 0x0 REVERT JUMPDEST PUSH1 0x0 PUSH2 0x35A1 DUP3 PUSH2 0x26D4 JUMP JUMPDEST SWAP2 POP PUSH2 0x35AC DUP4 PUSH2 0x26D4 JUMP JUMPDEST SWAP3 POP DUP3 DUP3 LT ISZERO PUSH2 0x35BF JUMPI PUSH2 0x35BE PUSH2 0x3567 JUMP JUMPDEST JUMPDEST DUP3 DUP3 SUB SWAP1 POP SWAP3 SWAP2 POP POP JUMP JUMPDEST PUSH32 0x455243313135353A207472616E736665722063616C6C6572206973206E6F7420 PUSH1 0x0 DUP3 ADD MSTORE PUSH32 0x6F776E6572206E6F7220617070726F7665640000000000000000000000000000 PUSH1 0x20 DUP3 ADD MSTORE POP JUMP JUMPDEST PUSH1 0x0 PUSH2 0x3626 PUSH1 0x32 DUP4 PUSH2 0x28E1 JUMP JUMPDEST SWAP2 POP PUSH2 0x3631 DUP3 PUSH2 0x35CA JUMP JUMPDEST PUSH1 0x40 DUP3 ADD SWAP1 POP SWAP2 SWAP1 POP JUMP JUMPDEST PUSH1 0x0 PUSH1 0x20 DUP3 ADD SWAP1 POP DUP2 DUP2 SUB PUSH1 0x0 DUP4 ADD MSTORE PUSH2 0x3655 DUP2 PUSH2 0x3619 JUMP JUMPDEST SWAP1 POP SWAP2 SWAP1 POP JUMP JUMPDEST PUSH32 0x455243313135353A2073657474696E6720617070726F76616C20737461747573 PUSH1 0x0 DUP3 ADD MSTORE PUSH32 0x20666F722073656C660000000000000000000000000000000000000000000000 PUSH1 0x20 DUP3 ADD MSTORE POP JUMP JUMPDEST PUSH1 0x0 PUSH2 0x36B8 PUSH1 0x29 DUP4 PUSH2 0x28E1 JUMP JUMPDEST SWAP2 POP PUSH2 0x36C3 DUP3 PUSH2 0x365C JUMP JUMPDEST PUSH1 0x40 DUP3 ADD SWAP1 POP SWAP2 SWAP1 POP JUMP JUMPDEST PUSH1 0x0 PUSH1 0x20 DUP3 ADD SWAP1 POP DUP2 DUP2 SUB PUSH1 0x0 DUP4 ADD MSTORE PUSH2 0x36E7 DUP2 PUSH2 0x36AB JUMP JUMPDEST SWAP1 POP SWAP2 SWAP1 POP JUMP JUMPDEST PUSH1 0x0 PUSH1 0x60 DUP3 ADD SWAP1 POP PUSH2 0x3703 PUSH1 0x0 DUP4 ADD DUP7 PUSH2 0x3022 JUMP JUMPDEST PUSH2 0x3710 PUSH1 0x20 DUP4 ADD DUP6 PUSH2 0x3022 JUMP JUMPDEST PUSH2 0x371D PUSH1 0x40 DUP4 ADD DUP5 PUSH2 0x274A JUMP JUMPDEST SWAP5 SWAP4 POP POP POP POP JUMP JUMPDEST PUSH32 0x455243313135353A206163636F756E747320616E6420696473206C656E677468 PUSH1 0x0 DUP3 ADD MSTORE PUSH32 0x206D69736D617463680000000000000000000000000000000000000000000000 PUSH1 0x20 DUP3 ADD MSTORE POP JUMP JUMPDEST PUSH1 0x0 PUSH2 0x3781 PUSH1 0x29 DUP4 PUSH2 0x28E1 JUMP JUMPDEST SWAP2 POP PUSH2 0x378C DUP3 PUSH2 0x3725 JUMP JUMPDEST PUSH1 0x40 DUP3 ADD SWAP1 POP SWAP2 SWAP1 POP JUMP JUMPDEST PUSH1 0x0 PUSH1 0x20 DUP3 ADD SWAP1 POP DUP2 DUP2 SUB PUSH1 0x0 DUP4 ADD MSTORE PUSH2 0x37B0 DUP2 PUSH2 0x3774 JUMP JUMPDEST SWAP1 POP SWAP2 SWAP1 POP JUMP JUMPDEST PUSH32 0x4E487B7100000000000000000000000000000000000000000000000000000000 PUSH1 0x0 MSTORE PUSH1 0x32 PUSH1 0x4 MSTORE PUSH1 0x24 PUSH1 0x0 REVERT JUMPDEST PUSH1 0x0 PUSH2 0x37F1 DUP3 PUSH2 0x26D4 JUMP JUMPDEST SWAP2 POP PUSH32 0xFFFFFFFFFFFFFFFFFFFFFFFFFFFFFFFFFFFFFFFFFFFFFFFFFFFFFFFFFFFFFFFF DUP3 EQ ISZERO PUSH2 0x3824 JUMPI PUSH2 0x3823 PUSH2 0x3567 JUMP JUMPDEST JUMPDEST PUSH1 0x1 DUP3 ADD SWAP1 POP SWAP2 SWAP1 POP JUMP JUMPDEST PUSH1 0x0 DUP2 MLOAD SWAP1 POP PUSH2 0x383E DUP2 PUSH2 0x26DE JUMP JUMPDEST SWAP3 SWAP2 POP POP JUMP JUMPDEST PUSH1 0x0 PUSH1 0x20 DUP3 DUP5 SUB SLT ISZERO PUSH2 0x385A JUMPI PUSH2 0x3859 PUSH2 0x266C JUMP JUMPDEST JUMPDEST PUSH1 0x0 PUSH2 0x3868 DUP5 DUP3 DUP6 ADD PUSH2 0x382F JUMP JUMPDEST SWAP2 POP POP SWAP3 SWAP2 POP POP JUMP JUMPDEST PUSH32 0x455243313135353A20696E73756666696369656E742062616C616E636520666F PUSH1 0x0 DUP3 ADD MSTORE PUSH32 0x72207472616E7366657200000000000000000000000000000000000000000000 PUSH1 0x20 DUP3 ADD MSTORE POP JUMP JUMPDEST PUSH1 0x0 PUSH2 0x38CD PUSH1 0x2A DUP4 PUSH2 0x28E1 JUMP JUMPDEST SWAP2 POP PUSH2 0x38D8 DUP3 PUSH2 0x3871 JUMP JUMPDEST PUSH1 0x40 DUP3 ADD SWAP1 POP SWAP2 SWAP1 POP JUMP JUMPDEST PUSH1 0x0 PUSH1 0x20 DUP3 ADD SWAP1 POP DUP2 DUP2 SUB PUSH1 0x0 DUP4 ADD MSTORE PUSH2 0x38FC DUP2 PUSH2 0x38C0 JUMP JUMPDEST SWAP1 POP SWAP2 SWAP1 POP JUMP JUMPDEST PUSH1 0x0 PUSH2 0x390E DUP3 PUSH2 0x26D4 JUMP JUMPDEST SWAP2 POP PUSH2 0x3919 DUP4 PUSH2 0x26D4 JUMP JUMPDEST SWAP3 POP DUP3 PUSH32 0xFFFFFFFFFFFFFFFFFFFFFFFFFFFFFFFFFFFFFFFFFFFFFFFFFFFFFFFFFFFFFFFF SUB DUP3 GT ISZERO PUSH2 0x394E JUMPI PUSH2 0x394D PUSH2 0x3567 JUMP JUMPDEST JUMPDEST DUP3 DUP3 ADD SWAP1 POP SWAP3 SWAP2 POP POP JUMP JUMPDEST PUSH1 0x0 PUSH1 0x40 DUP3 ADD SWAP1 POP PUSH2 0x396E PUSH1 0x0 DUP4 ADD DUP6 PUSH2 0x274A JUMP JUMPDEST PUSH2 0x397B PUSH1 0x20 DUP4 ADD DUP5 PUSH2 0x274A JUMP JUMPDEST SWAP4 SWAP3 POP POP POP JUMP JUMPDEST PUSH32 0x455243313135353A2069647320616E6420616D6F756E7473206C656E67746820 PUSH1 0x0 DUP3 ADD MSTORE PUSH32 0x6D69736D61746368000000000000000000000000000000000000000000000000 PUSH1 0x20 DUP3 ADD MSTORE POP JUMP JUMPDEST PUSH1 0x0 PUSH2 0x39DE PUSH1 0x28 DUP4 PUSH2 0x28E1 JUMP JUMPDEST SWAP2 POP PUSH2 0x39E9 DUP3 PUSH2 0x3982 JUMP JUMPDEST PUSH1 0x40 DUP3 ADD SWAP1 POP SWAP2 SWAP1 POP JUMP JUMPDEST PUSH1 0x0 PUSH1 0x20 DUP3 ADD SWAP1 POP DUP2 DUP2 SUB PUSH1 0x0 DUP4 ADD MSTORE PUSH2 0x3A0D DUP2 PUSH2 0x39D1 JUMP JUMPDEST SWAP1 POP SWAP2 SWAP1 POP JUMP JUMPDEST PUSH1 0x0 PUSH1 0x40 DUP3 ADD SWAP1 POP DUP2 DUP2 SUB PUSH1 0x0 DUP4 ADD MSTORE PUSH2 0x3A2E DUP2 DUP6 PUSH2 0x2FA2 JUMP JUMPDEST SWAP1 POP DUP2 DUP2 SUB PUSH1 0x20 DUP4 ADD MSTORE PUSH2 0x3A42 DUP2 DUP5 PUSH2 0x2FA2 JUMP JUMPDEST SWAP1 POP SWAP4 SWAP3 POP POP POP JUMP JUMPDEST PUSH32 0x455243313135353A207472616E73666572205F637573746F6D65724164647265 PUSH1 0x0 DUP3 ADD MSTORE PUSH32 0x737320746865207A65726F206164647265737300000000000000000000000000 PUSH1 0x20 DUP3 ADD MSTORE POP JUMP JUMPDEST PUSH1 0x0 PUSH2 0x3AA7 PUSH1 0x33 DUP4 PUSH2 0x28E1 JUMP JUMPDEST SWAP2 POP PUSH2 0x3AB2 DUP3 PUSH2 0x3A4B JUMP JUMPDEST PUSH1 0x40 DUP3 ADD SWAP1 POP SWAP2 SWAP1 POP JUMP JUMPDEST PUSH1 0x0 PUSH1 0x20 DUP3 ADD SWAP1 POP DUP2 DUP2 SUB PUSH1 0x0 DUP4 ADD MSTORE PUSH2 0x3AD6 DUP2 PUSH2 0x3A9A JUMP JUMPDEST SWAP1 POP SWAP2 SWAP1 POP JUMP JUMPDEST PUSH1 0x0 DUP2 MLOAD SWAP1 POP SWAP2 SWAP1 POP JUMP JUMPDEST PUSH1 0x0 DUP3 DUP3 MSTORE PUSH1 0x20 DUP3 ADD SWAP1 POP SWAP3 SWAP2 POP POP JUMP JUMPDEST PUSH1 0x0 PUSH2 0x3B04 DUP3 PUSH2 0x3ADD JUMP JUMPDEST PUSH2 0x3B0E DUP2 DUP6 PUSH2 0x3AE8 JUMP JUMPDEST SWAP4 POP PUSH2 0x3B1E DUP2 DUP6 PUSH1 0x20 DUP7 ADD PUSH2 0x28F2 JUMP JUMPDEST PUSH2 0x3B27 DUP2 PUSH2 0x2925 JUMP JUMPDEST DUP5 ADD SWAP2 POP POP SWAP3 SWAP2 POP POP JUMP JUMPDEST PUSH1 0x0 PUSH1 0xA0 DUP3 ADD SWAP1 POP PUSH2 0x3B47 PUSH1 0x0 DUP4 ADD DUP9 PUSH2 0x3022 JUMP JUMPDEST PUSH2 0x3B54 PUSH1 0x20 DUP4 ADD DUP8 PUSH2 0x3022 JUMP JUMPDEST PUSH2 0x3B61 PUSH1 0x40 DUP4 ADD DUP7 PUSH2 0x274A JUMP JUMPDEST PUSH2 0x3B6E PUSH1 0x60 DUP4 ADD DUP6 PUSH2 0x274A JUMP JUMPDEST DUP2 DUP2 SUB PUSH1 0x80 DUP4 ADD MSTORE PUSH2 0x3B80 DUP2 DUP5 PUSH2 0x3AF9 JUMP JUMPDEST SWAP1 POP SWAP7 SWAP6 POP POP POP POP POP POP JUMP JUMPDEST PUSH1 0x0 DUP2 MLOAD SWAP1 POP PUSH2 0x3B9B DUP2 PUSH2 0x27A0 JUMP JUMPDEST SWAP3 SWAP2 POP POP JUMP JUMPDEST PUSH1 0x0 PUSH1 0x20 DUP3 DUP5 SUB SLT ISZERO PUSH2 0x3BB7 JUMPI PUSH2 0x3BB6 PUSH2 0x266C JUMP JUMPDEST JUMPDEST PUSH1 0x0 PUSH2 0x3BC5 DUP5 DUP3 DUP6 ADD PUSH2 0x3B8C JUMP JUMPDEST SWAP2 POP POP SWAP3 SWAP2 POP POP JUMP JUMPDEST PUSH1 0x0 DUP2 PUSH1 0xE0 SHR SWAP1 POP SWAP2 SWAP1 POP JUMP JUMPDEST PUSH1 0x0 PUSH1 0x3 RETURNDATASIZE GT ISZERO PUSH2 0x3BFA JUMPI PUSH1 0x4 PUSH1 0x0 DUP1 RETURNDATACOPY PUSH2 0x3BF7 PUSH1 0x0 MLOAD PUSH2 0x3BCE JUMP JUMPDEST SWAP1 POP JUMPDEST SWAP1 JUMP JUMPDEST PUSH1 0x0 PUSH1 0x44 RETURNDATASIZE LT ISZERO PUSH2 0x3C0D JUMPI PUSH2 0x3C90 JUMP JUMPDEST PUSH2 0x3C15 PUSH2 0x2662 JUMP JUMPDEST PUSH1 0x4 RETURNDATASIZE SUB PUSH1 0x4 DUP3 RETURNDATACOPY DUP1 MLOAD RETURNDATASIZE PUSH1 0x24 DUP3 ADD GT PUSH8 0xFFFFFFFFFFFFFFFF DUP3 GT OR ISZERO PUSH2 0x3C3D JUMPI POP POP PUSH2 0x3C90 JUMP JUMPDEST DUP1 DUP3 ADD DUP1 MLOAD PUSH8 0xFFFFFFFFFFFFFFFF DUP2 GT ISZERO PUSH2 0x3C5B JUMPI POP POP POP POP PUSH2 0x3C90 JUMP JUMPDEST DUP1 PUSH1 0x20 DUP4 ADD ADD PUSH1 0x4 RETURNDATASIZE SUB DUP6 ADD DUP2 GT ISZERO PUSH2 0x3C78 JUMPI POP POP POP POP POP PUSH2 0x3C90 JUMP JUMPDEST PUSH2 0x3C87 DUP3 PUSH1 0x20 ADD DUP6 ADD DUP7 PUSH2 0x2A01 JUMP JUMPDEST DUP3 SWAP6 POP POP POP POP POP POP JUMPDEST SWAP1 JUMP JUMPDEST PUSH32 0x455243313135353A207472616E7366657220746F206E6F6E2045524331313535 PUSH1 0x0 DUP3 ADD MSTORE PUSH32 0x526563656976657220696D706C656D656E746572000000000000000000000000 PUSH1 0x20 DUP3 ADD MSTORE POP JUMP JUMPDEST PUSH1 0x0 PUSH2 0x3CEF PUSH1 0x34 DUP4 PUSH2 0x28E1 JUMP JUMPDEST SWAP2 POP PUSH2 0x3CFA DUP3 PUSH2 0x3C93 JUMP JUMPDEST PUSH1 0x40 DUP3 ADD SWAP1 POP SWAP2 SWAP1 POP JUMP JUMPDEST PUSH1 0x0 PUSH1 0x20 DUP3 ADD SWAP1 POP DUP2 DUP2 SUB PUSH1 0x0 DUP4 ADD MSTORE PUSH2 0x3D1E DUP2 PUSH2 0x3CE2 JUMP JUMPDEST SWAP1 POP SWAP2 SWAP1 POP JUMP JUMPDEST PUSH32 0x455243313135353A204552433131353552656365697665722072656A65637465 PUSH1 0x0 DUP3 ADD MSTORE PUSH32 0x6420746F6B656E73000000000000000000000000000000000000000000000000 PUSH1 0x20 DUP3 ADD MSTORE POP JUMP JUMPDEST PUSH1 0x0 PUSH2 0x3D81 PUSH1 0x28 DUP4 PUSH2 0x28E1 JUMP JUMPDEST SWAP2 POP PUSH2 0x3D8C DUP3 PUSH2 0x3D25 JUMP JUMPDEST PUSH1 0x40 DUP3 ADD SWAP1 POP SWAP2 SWAP1 POP JUMP JUMPDEST PUSH1 0x0 PUSH1 0x20 DUP3 ADD SWAP1 POP DUP2 DUP2 SUB PUSH1 0x0 DUP4 ADD MSTORE PUSH2 0x3DB0 DUP2 PUSH2 0x3D74 JUMP JUMPDEST SWAP1 POP SWAP2 SWAP1 POP JUMP JUMPDEST PUSH1 0x0 PUSH1 0xA0 DUP3 ADD SWAP1 POP PUSH2 0x3DCC PUSH1 0x0 DUP4 ADD DUP9 PUSH2 0x3022 JUMP JUMPDEST PUSH2 0x3DD9 PUSH1 0x20 DUP4 ADD DUP8 PUSH2 0x3022 JUMP JUMPDEST DUP2 DUP2 SUB PUSH1 0x40 DUP4 ADD MSTORE PUSH2 0x3DEB DUP2 DUP7 PUSH2 0x2FA2 JUMP JUMPDEST SWAP1 POP DUP2 DUP2 SUB PUSH1 0x60 DUP4 ADD MSTORE PUSH2 0x3DFF DUP2 DUP6 PUSH2 0x2FA2 JUMP JUMPDEST SWAP1 POP DUP2 DUP2 SUB PUSH1 0x80 DUP4 ADD MSTORE PUSH2 0x3E13 DUP2 DUP5 PUSH2 0x3AF9 JUMP JUMPDEST SWAP1 POP SWAP7 SWAP6 POP POP POP POP POP POP JUMP INVALID LOG2 PUSH5 0x6970667358 0x22 SLT KECCAK256 JUMPDEST 0x5D 0xCD 0xE1 0x29 DUP9 PUSH16 0xA56123EA460C6C819CD2726AC521C819 LOG4 0xD5 0xEE JUMPDEST SWAP8 CREATE LOG1 0xCA 0xF PUSH5 0x736F6C6343 STOP ADDMOD SIGNEXTEND STOP CALLER "
		},
		"gasEstimates": {
			"creation": {
				"codeDepositCost": "3191400",
				"executionCost": "infinite",
				"totalCost": "infinite"
			},
			"external": {
				"AmoutAllowance(address,address)": "infinite",
				"De_Test_getDate()": "infinite",
				"ExpireDate()": "2474",
				"HasClosed()": "2560",
				"PoolLunched()": "2497",
				"StakingAddress()": "2603",
				"StakingChainID()": "2581",
				"StakingDecimal()": "2521",
				"StakingExpectation()": "2637",
				"StakingLimitAmount()": "2497",
				"StakingLimitPrice()": "2519",
				"StakingNumber()": "439",
				"Test_BalanceOfERC20Token(address)": "infinite",
				"Test_ERC20Approve(address,uint256,uint256)": "infinite",
				"Test_ERC20Transfer(address,address,uint256,uint256,uint256,bytes)": "infinite",
				"Test_ERC20transferFrom(address,address,uint256,uint256,uint256,bytes)": "infinite",
				"Test_getVoter(uint256)": "infinite",
				"balanceOf(address,uint256)": "infinite",
				"balanceOfBatch(address[],uint256[])": "infinite",
				"isApprovedForAll(address,address)": "infinite",
				"ixrun()": "infinite",
				"safeBatchTransferFrom(address,address,uint256[],uint256[],bytes)": "infinite",
				"safeTransferFrom(address,address,uint256,uint256,bytes)": "infinite",
				"setApprovalForAll(address,bool)": "infinite",
				"supportsInterface(bytes4)": "842",
				"totalSupply(uint256)": "infinite",
				"uri(uint256)": "infinite",
				"voterList(uint256)": "infinite"
			},
			"internal": {
				"Test_mint(address,uint256,uint256,uint256,uint256,bytes memory)": "infinite",
				"Test_setVoterList(uint256,address)": "105933",
				"Test_verifyVoterList(address)": "6572",
				"_ERC20Transfer(address,address,uint256,uint256,uint256,bytes memory)": "infinite",
				"_asSingletonArray(uint256)": "infinite",
				"_beforeTokenTransfer(address,address,address,uint256[] memory,uint256[] memory,bytes memory)": "infinite",
				"_burn(address,uint256,uint256)": "infinite",
				"_burnBatch(address,uint256[] memory,uint256[] memory)": "infinite",
				"_doSafeBatchTransferAcceptanceCheck(address,address,address,uint256[] memory,uint256[] memory,bytes memory)": "infinite",
				"_doSafeTransferAcceptanceCheck(address,address,address,uint256,uint256,bytes memory)": "infinite",
				"_mint(address,uint256,uint256,bytes memory)": "infinite",
				"_mintBatch(address,uint256[] memory,uint256[] memory,bytes memory)": "infinite",
				"_safeBatchTransferFrom(address,address,uint256[] memory,uint256[] memory,bytes memory)": "infinite",
				"_safeTransferFrom(address,address,uint256,uint256,bytes memory)": "infinite",
				"_setApprovalForAll(address,address,bool)": "infinite",
				"_setURI(string memory)": "infinite"
			}
		},
		"methodIdentifiers": {
			"AmoutAllowance(address,address)": "3b52ed83",
			"De_Test_getDate()": "44fa523d",
			"ExpireDate()": "3204ab14",
			"HasClosed()": "be51f0fb",
			"PoolLunched()": "2888c5c5",
			"StakingAddress()": "953fb4fb",
			"StakingChainID()": "7e933c51",
			"StakingDecimal()": "47332694",
			"StakingExpectation()": "1bdce027",
			"StakingLimitAmount()": "15898609",
			"StakingLimitPrice()": "1a5fa63c",
			"StakingNumber()": "fc489552",
			"Test_BalanceOfERC20Token(address)": "da1cc443",
			"Test_ERC20Approve(address,uint256,uint256)": "3a85a3a2",
			"Test_ERC20Transfer(address,address,uint256,uint256,uint256,bytes)": "7371ada0",
			"Test_ERC20transferFrom(address,address,uint256,uint256,uint256,bytes)": "22977efd",
			"Test_getVoter(uint256)": "9cbafb0b",
			"balanceOf(address,uint256)": "00fdd58e",
			"balanceOfBatch(address[],uint256[])": "4e1273f4",
			"isApprovedForAll(address,address)": "e985e9c5",
			"ixrun()": "0837430b",
			"safeBatchTransferFrom(address,address,uint256[],uint256[],bytes)": "2eb2c2d6",
			"safeTransferFrom(address,address,uint256,uint256,bytes)": "f242432a",
			"setApprovalForAll(address,bool)": "a22cb465",
			"supportsInterface(bytes4)": "01ffc9a7",
			"totalSupply(uint256)": "bd85b039",
			"uri(uint256)": "0e89341c",
			"voterList(uint256)": "50e2e8af"
		}
	},
	"abi": [
		{
			"inputs": [
				{
					"internalType": "string",
					"name": "uri_",
					"type": "string"
				},
				{
					"internalType": "address",
					"name": "stakingaddress_",
					"type": "address"
				},
				{
					"internalType": "int8",
					"name": "stakingexpectation_",
					"type": "int8"
				},
				{
					"internalType": "uint256",
					"name": "stakinglimitprice_",
					"type": "uint256"
				},
				{
					"internalType": "uint256",
					"name": "stakinglimitamount_",
					"type": "uint256"
				},
				{
					"internalType": "uint256",
					"name": "expiredatebydate_",
					"type": "uint256"
				},
				{
					"internalType": "address",
					"name": "contractAddress_",
					"type": "address"
				}
			],
			"stateMutability": "nonpayable",
			"type": "constructor"
		},
		{
			"anonymous": false,
			"inputs": [
				{
					"indexed": true,
					"internalType": "address",
					"name": "account",
					"type": "address"
				},
				{
					"indexed": true,
					"internalType": "address",
					"name": "operator",
					"type": "address"
				},
				{
					"indexed": false,
					"internalType": "bool",
					"name": "approved",
					"type": "bool"
				}
			],
			"name": "ApprovalForAll",
			"type": "event"
		},
		{
			"anonymous": false,
			"inputs": [
				{
					"indexed": true,
					"internalType": "address",
					"name": "operator",
					"type": "address"
				},
				{
					"indexed": true,
					"internalType": "address",
					"name": "from",
					"type": "address"
				},
				{
					"indexed": true,
					"internalType": "address",
					"name": "to",
					"type": "address"
				},
				{
					"indexed": false,
					"internalType": "uint256[]",
					"name": "ids",
					"type": "uint256[]"
				},
				{
					"indexed": false,
					"internalType": "uint256[]",
					"name": "values",
					"type": "uint256[]"
				}
			],
			"name": "TransferBatch",
			"type": "event"
		},
		{
			"anonymous": false,
			"inputs": [
				{
					"indexed": true,
					"internalType": "address",
					"name": "operator",
					"type": "address"
				},
				{
					"indexed": true,
					"internalType": "address",
					"name": "from",
					"type": "address"
				},
				{
					"indexed": true,
					"internalType": "address",
					"name": "to",
					"type": "address"
				},
				{
					"indexed": false,
					"internalType": "uint256",
					"name": "id",
					"type": "uint256"
				},
				{
					"indexed": false,
					"internalType": "uint256",
					"name": "value",
					"type": "uint256"
				}
			],
			"name": "TransferSingle",
			"type": "event"
		},
		{
			"anonymous": false,
			"inputs": [
				{
					"indexed": false,
					"internalType": "string",
					"name": "value",
					"type": "string"
				},
				{
					"indexed": true,
					"internalType": "uint256",
					"name": "id",
					"type": "uint256"
				}
			],
			"name": "URI",
			"type": "event"
		},
		{
			"inputs": [
				{
					"internalType": "address",
					"name": "",
					"type": "address"
				},
				{
					"internalType": "address",
					"name": "",
					"type": "address"
				}
			],
			"name": "AmoutAllowance",
			"outputs": [
				{
					"internalType": "uint256",
					"name": "",
					"type": "uint256"
				}
			],
			"stateMutability": "view",
			"type": "function"
		},
		{
			"inputs": [],
			"name": "De_Test_getDate",
			"outputs": [
				{
					"internalType": "uint256",
					"name": "",
					"type": "uint256"
				},
				{
					"internalType": "uint256",
					"name": "",
					"type": "uint256"
				},
				{
					"internalType": "uint256",
					"name": "",
					"type": "uint256"
				}
			],
			"stateMutability": "view",
			"type": "function"
		},
		{
			"inputs": [],
			"name": "ExpireDate",
			"outputs": [
				{
					"internalType": "uint256",
					"name": "",
					"type": "uint256"
				}
			],
			"stateMutability": "view",
			"type": "function"
		},
		{
			"inputs": [],
			"name": "HasClosed",
			"outputs": [
				{
					"internalType": "bool",
					"name": "",
					"type": "bool"
				}
			],
			"stateMutability": "view",
			"type": "function"
		},
		{
			"inputs": [],
			"name": "PoolLunched",
			"outputs": [
				{
					"internalType": "uint256",
					"name": "",
					"type": "uint256"
				}
			],
			"stateMutability": "view",
			"type": "function"
		},
		{
			"inputs": [],
			"name": "StakingAddress",
			"outputs": [
				{
					"internalType": "address",
					"name": "",
					"type": "address"
				}
			],
			"stateMutability": "view",
			"type": "function"
		},
		{
			"inputs": [],
			"name": "StakingChainID",
			"outputs": [
				{
					"internalType": "address",
					"name": "",
					"type": "address"
				}
			],
			"stateMutability": "view",
			"type": "function"
		},
		{
			"inputs": [],
			"name": "StakingDecimal",
			"outputs": [
				{
					"internalType": "int8",
					"name": "",
					"type": "int8"
				}
			],
			"stateMutability": "view",
			"type": "function"
		},
		{
			"inputs": [],
			"name": "StakingExpectation",
			"outputs": [
				{
					"internalType": "int8",
					"name": "",
					"type": "int8"
				}
			],
			"stateMutability": "view",
			"type": "function"
		},
		{
			"inputs": [],
			"name": "StakingLimitAmount",
			"outputs": [
				{
					"internalType": "uint256",
					"name": "",
					"type": "uint256"
				}
			],
			"stateMutability": "view",
			"type": "function"
		},
		{
			"inputs": [],
			"name": "StakingLimitPrice",
			"outputs": [
				{
					"internalType": "uint256",
					"name": "",
					"type": "uint256"
				}
			],
			"stateMutability": "view",
			"type": "function"
		},
		{
			"inputs": [],
			"name": "StakingNumber",
			"outputs": [
				{
					"internalType": "uint256",
					"name": "",
					"type": "uint256"
				}
			],
			"stateMutability": "view",
			"type": "function"
		},
		{
			"inputs": [
				{
					"internalType": "address",
					"name": "_to",
					"type": "address"
				}
			],
			"name": "Test_BalanceOfERC20Token",
			"outputs": [
				{
					"internalType": "uint256",
					"name": "",
					"type": "uint256"
				}
			],
			"stateMutability": "view",
			"type": "function"
		},
		{
			"inputs": [
				{
					"internalType": "address",
					"name": "_spender",
					"type": "address"
				},
				{
					"internalType": "uint256",
					"name": "_amount",
					"type": "uint256"
				},
				{
					"internalType": "uint256",
					"name": "_value",
					"type": "uint256"
				}
			],
			"name": "Test_ERC20Approve",
			"outputs": [],
			"stateMutability": "nonpayable",
			"type": "function"
		},
		{
			"inputs": [
				{
					"internalType": "address",
					"name": "_creatorAddress",
					"type": "address"
				},
				{
					"internalType": "address",
					"name": "_customerAddress",
					"type": "address"
				},
				{
					"internalType": "uint256",
					"name": "_id",
					"type": "uint256"
				},
				{
					"internalType": "uint256",
					"name": "_amount",
					"type": "uint256"
				},
				{
					"internalType": "uint256",
					"name": "_price",
					"type": "uint256"
				},
				{
					"internalType": "bytes",
					"name": "_data",
					"type": "bytes"
				}
			],
			"name": "Test_ERC20Transfer",
			"outputs": [],
			"stateMutability": "nonpayable",
			"type": "function"
		},
		{
			"inputs": [
				{
					"internalType": "address",
					"name": "_from",
					"type": "address"
				},
				{
					"internalType": "address",
					"name": "_to",
					"type": "address"
				},
				{
					"internalType": "uint256",
					"name": "_id",
					"type": "uint256"
				},
				{
					"internalType": "uint256",
					"name": "_amount",
					"type": "uint256"
				},
				{
					"internalType": "uint256",
					"name": "_value",
					"type": "uint256"
				},
				{
					"internalType": "bytes",
					"name": "_data",
					"type": "bytes"
				}
			],
			"name": "Test_ERC20transferFrom",
			"outputs": [],
			"stateMutability": "nonpayable",
			"type": "function"
		},
		{
			"inputs": [
				{
					"internalType": "uint256",
					"name": "_voterKey",
					"type": "uint256"
				}
			],
			"name": "Test_getVoter",
			"outputs": [
				{
					"internalType": "address",
					"name": "voterAddress",
					"type": "address"
				},
				{
					"internalType": "uint256",
					"name": "voterId",
					"type": "uint256"
				}
			],
			"stateMutability": "view",
			"type": "function"
		},
		{
			"inputs": [
				{
					"internalType": "address",
					"name": "account",
					"type": "address"
				},
				{
					"internalType": "uint256",
					"name": "id",
					"type": "uint256"
				}
			],
			"name": "balanceOf",
			"outputs": [
				{
					"internalType": "uint256",
					"name": "",
					"type": "uint256"
				}
			],
			"stateMutability": "view",
			"type": "function"
		},
		{
			"inputs": [
				{
					"internalType": "address[]",
					"name": "accounts",
					"type": "address[]"
				},
				{
					"internalType": "uint256[]",
					"name": "ids",
					"type": "uint256[]"
				}
			],
			"name": "balanceOfBatch",
			"outputs": [
				{
					"internalType": "uint256[]",
					"name": "",
					"type": "uint256[]"
				}
			],
			"stateMutability": "view",
			"type": "function"
		},
		{
			"inputs": [
				{
					"internalType": "address",
					"name": "account",
					"type": "address"
				},
				{
					"internalType": "address",
					"name": "operator",
					"type": "address"
				}
			],
			"name": "isApprovedForAll",
			"outputs": [
				{
					"internalType": "bool",
					"name": "",
					"type": "bool"
				}
			],
			"stateMutability": "view",
			"type": "function"
		},
		{
			"inputs": [],
			"name": "ixrun",
			"outputs": [
				{
					"internalType": "contract IXRUN",
					"name": "",
					"type": "address"
				}
			],
			"stateMutability": "view",
			"type": "function"
		},
		{
			"inputs": [
				{
					"internalType": "address",
					"name": "from",
					"type": "address"
				},
				{
					"internalType": "address",
					"name": "to",
					"type": "address"
				},
				{
					"internalType": "uint256[]",
					"name": "ids",
					"type": "uint256[]"
				},
				{
					"internalType": "uint256[]",
					"name": "amounts",
					"type": "uint256[]"
				},
				{
					"internalType": "bytes",
					"name": "data",
					"type": "bytes"
				}
			],
			"name": "safeBatchTransferFrom",
			"outputs": [],
			"stateMutability": "nonpayable",
			"type": "function"
		},
		{
			"inputs": [
				{
					"internalType": "address",
					"name": "from",
					"type": "address"
				},
				{
					"internalType": "address",
					"name": "to",
					"type": "address"
				},
				{
					"internalType": "uint256",
					"name": "id",
					"type": "uint256"
				},
				{
					"internalType": "uint256",
					"name": "amount",
					"type": "uint256"
				},
				{
					"internalType": "bytes",
					"name": "data",
					"type": "bytes"
				}
			],
			"name": "safeTransferFrom",
			"outputs": [],
			"stateMutability": "nonpayable",
			"type": "function"
		},
		{
			"inputs": [
				{
					"internalType": "address",
					"name": "operator",
					"type": "address"
				},
				{
					"internalType": "bool",
					"name": "approved",
					"type": "bool"
				}
			],
			"name": "setApprovalForAll",
			"outputs": [],
			"stateMutability": "nonpayable",
			"type": "function"
		},
		{
			"inputs": [
				{
					"internalType": "bytes4",
					"name": "interfaceId",
					"type": "bytes4"
				}
			],
			"name": "supportsInterface",
			"outputs": [
				{
					"internalType": "bool",
					"name": "",
					"type": "bool"
				}
			],
			"stateMutability": "view",
			"type": "function"
		},
		{
			"inputs": [
				{
					"internalType": "uint256",
					"name": "id",
					"type": "uint256"
				}
			],
			"name": "totalSupply",
			"outputs": [
				{
					"internalType": "uint256",
					"name": "",
					"type": "uint256"
				}
			],
			"stateMutability": "view",
			"type": "function"
		},
		{
			"inputs": [
				{
					"internalType": "uint256",
					"name": "",
					"type": "uint256"
				}
			],
			"name": "uri",
			"outputs": [
				{
					"internalType": "string",
					"name": "",
					"type": "string"
				}
			],
			"stateMutability": "view",
			"type": "function"
		},
		{
			"inputs": [
				{
					"internalType": "uint256",
					"name": "",
					"type": "uint256"
				}
			],
			"name": "voterList",
			"outputs": [
				{
					"internalType": "uint256",
					"name": "",
					"type": "uint256"
				}
			],
			"stateMutability": "view",
			"type": "function"
		}
	]
}